{
  "_format": "hh-sol-artifact-1",
  "contractName": "EmiAutoPayEVM",
  "sourceName": "contracts/EmiAutoPayEVM.sol",
  "abi": [
    {
      "anonymous": false,
      "inputs": [
        {
          "indexed": false,
          "internalType": "uint256",
          "name": "planId",
          "type": "uint256"
        },
        {
          "indexed": false,
          "internalType": "uint256",
          "name": "amount",
          "type": "uint256"
        }
      ],
      "name": "EmiPaid",
      "type": "event"
    },
    {
      "anonymous": false,
      "inputs": [
        {
          "indexed": false,
          "internalType": "uint256",
          "name": "planId",
          "type": "uint256"
        },
        {
          "indexed": false,
          "internalType": "address",
          "name": "sender",
          "type": "address"
        }
      ],
      "name": "FirstPaymentDetected",
      "type": "event"
    },
    {
      "anonymous": false,
      "inputs": [
        {
          "indexed": false,
          "internalType": "uint256",
          "name": "planId",
          "type": "uint256"
        }
      ],
      "name": "PlanCreated",
      "type": "event"
    },
    {
      "inputs": [
        {
          "internalType": "bytes",
          "name": "",
          "type": "bytes"
        }
      ],
      "name": "checkUpkeep",
      "outputs": [
        {
          "internalType": "bool",
          "name": "",
          "type": "bool"
        },
        {
          "internalType": "bytes",
          "name": "",
          "type": "bytes"
        }
      ],
      "stateMutability": "view",
      "type": "function"
    },
    {
      "inputs": [
        {
          "internalType": "uint256",
          "name": "planId",
          "type": "uint256"
        },
        {
          "internalType": "address",
          "name": "sender",
          "type": "address"
        }
      ],
      "name": "confirmFirstPayment",
      "outputs": [],
      "stateMutability": "nonpayable",
      "type": "function"
    },
    {
      "inputs": [
        {
          "internalType": "address",
          "name": "token",
          "type": "address"
        },
        {
          "internalType": "uint256",
          "name": "emi",
          "type": "uint256"
        },
        {
          "internalType": "uint256",
          "name": "interval",
          "type": "uint256"
        },
        {
          "internalType": "uint256",
          "name": "total",
          "type": "uint256"
        }
      ],
      "name": "createPlan",
      "outputs": [],
      "stateMutability": "nonpayable",
      "type": "function"
    },
    {
      "inputs": [
        {
          "internalType": "bytes",
          "name": "data",
          "type": "bytes"
        }
      ],
      "name": "performUpkeep",
      "outputs": [],
      "stateMutability": "nonpayable",
      "type": "function"
    },
    {
      "inputs": [],
      "name": "planCount",
      "outputs": [
        {
          "internalType": "uint256",
          "name": "",
          "type": "uint256"
        }
      ],
      "stateMutability": "view",
      "type": "function"
    },
    {
      "inputs": [
        {
          "internalType": "uint256",
          "name": "",
          "type": "uint256"
        }
      ],
      "name": "plans",
      "outputs": [
        {
          "internalType": "address",
          "name": "sender",
          "type": "address"
        },
        {
          "internalType": "address",
          "name": "receiver",
          "type": "address"
        },
        {
          "internalType": "address",
          "name": "token",
          "type": "address"
        },
        {
          "internalType": "uint256",
          "name": "emi",
          "type": "uint256"
        },
        {
          "internalType": "uint256",
          "name": "interval",
          "type": "uint256"
        },
        {
          "internalType": "uint256",
          "name": "total",
          "type": "uint256"
        },
        {
          "internalType": "uint256",
          "name": "paid",
          "type": "uint256"
        },
        {
          "internalType": "uint256",
          "name": "nextPay",
          "type": "uint256"
        },
        {
          "internalType": "bool",
          "name": "active",
          "type": "bool"
        }
      ],
      "stateMutability": "view",
      "type": "function"
    }
  ],
  "bytecode": "0x608060405234801561001057600080fd5b50610e93806100206000396000f3fe608060405234801561001057600080fd5b50600436106100625760003560e01c80630339e9fa14610067578063382d39bb146100835780634585e33b146100a15780636e04ff0d146100bd578063b1620616146100ee578063be9d5e6214610126575b600080fd5b610081600480360381019061007c919061093e565b610142565b005b61008b61036d565b60405161009891906109b4565b60405180910390f35b6100bb60048036038101906100b69190610a34565b610373565b005b6100d760048036038101906100d29190610a34565b610508565b6040516100e5929190610b2c565b60405180910390f35b61010860048036038101906101039190610b5c565b6106a0565b60405161011d99989796959493929190610b98565b60405180910390f35b610140600480360381019061013b9190610c25565b61075b565b005b603c82101561015057600080fd5b60008081548092919061016290610c94565b9190505550604051806101200160405280600073ffffffffffffffffffffffffffffffffffffffff1681526020013373ffffffffffffffffffffffffffffffffffffffff1681526020018573ffffffffffffffffffffffffffffffffffffffff168152602001848152602001838152602001828152602001600081526020016000815260200160001515815250600160008054815260200190815260200160002060008201518160000160006101000a81548173ffffffffffffffffffffffffffffffffffffffff021916908373ffffffffffffffffffffffffffffffffffffffff16021790555060208201518160010160006101000a81548173ffffffffffffffffffffffffffffffffffffffff021916908373ffffffffffffffffffffffffffffffffffffffff16021790555060408201518160020160006101000a81548173ffffffffffffffffffffffffffffffffffffffff021916908373ffffffffffffffffffffffffffffffffffffffff160217905550606082015181600301556080820151816004015560a0820151816005015560c0820151816006015560e082015181600701556101008201518160080160006101000a81548160ff0219169083151502179055509050507f9dfd4372898f1ab4b7aab4735c5b8c07f64b72ef6f72e0da892265459fc1b86160005460405161035f91906109b4565b60405180910390a150505050565b60005481565b600082828101906103849190610b5c565b905060006001600083815260200190815260200160002090508060020160009054906101000a900473ffffffffffffffffffffffffffffffffffffffff1673ffffffffffffffffffffffffffffffffffffffff166323b872dd8260000160009054906101000a900473ffffffffffffffffffffffffffffffffffffffff168360010160009054906101000a900473ffffffffffffffffffffffffffffffffffffffff1684600301546040518463ffffffff1660e01b815260040161044a93929190610cdc565b6020604051808303816000875af1158015610469573d6000803e3d6000fd5b505050506040513d601f19601f8201168201806040525081019061048d9190610d3f565b5080600301548160060160008282546104a69190610d6c565b925050819055508060040154426104bd9190610d6c565b81600701819055507f06e59a6ee972bbd5f5b1932131f47641231aa73d1b0d32bd72cea9471babf7428282600301546040516104fa929190610da0565b60405180910390a150505050565b600060606000600190505b60005481116106815760006001600083815260200190815260200160002090508060080160009054906101000a900460ff168015610555575080600701544210155b8015610568575080600501548160060154105b801561063b575080600301548160020160009054906101000a900473ffffffffffffffffffffffffffffffffffffffff1673ffffffffffffffffffffffffffffffffffffffff1663dd62ed3e8360000160009054906101000a900473ffffffffffffffffffffffffffffffffffffffff16306040518363ffffffff1660e01b81526004016105f7929190610dc9565b602060405180830381865afa158015610614573d6000803e3d6000fd5b505050506040513d601f19601f820116820180604052508101906106389190610e07565b10155b1561066d5760018260405160200161065391906109b4565b604051602081830303815290604052935093505050610699565b50808061067990610c94565b915050610513565b50600060405180602001604052806000815250915091505b9250929050565b60016020528060005260406000206000915090508060000160009054906101000a900473ffffffffffffffffffffffffffffffffffffffff16908060010160009054906101000a900473ffffffffffffffffffffffffffffffffffffffff16908060020160009054906101000a900473ffffffffffffffffffffffffffffffffffffffff16908060030154908060040154908060050154908060060154908060070154908060080160009054906101000a900460ff16905089565b60006001600084815260200190815260200160002090508060010160009054906101000a900473ffffffffffffffffffffffffffffffffffffffff1673ffffffffffffffffffffffffffffffffffffffff163373ffffffffffffffffffffffffffffffffffffffff16146107ce57600080fd5b8060080160009054906101000a900460ff16156107ea57600080fd5b818160000160006101000a81548173ffffffffffffffffffffffffffffffffffffffff021916908373ffffffffffffffffffffffffffffffffffffffff16021790555060018160080160006101000a81548160ff02191690831515021790555080600401544261085a9190610d6c565b81600701819055507fc1feb8dc891dc96467534c73d44e95e94e55ddc27d9f52fe0e633f6437b3d53c8383604051610893929190610e34565b60405180910390a1505050565b600080fd5b600080fd5b600073ffffffffffffffffffffffffffffffffffffffff82169050919050565b60006108d5826108aa565b9050919050565b6108e5816108ca565b81146108f057600080fd5b50565b600081359050610902816108dc565b92915050565b6000819050919050565b61091b81610908565b811461092657600080fd5b50565b60008135905061093881610912565b92915050565b60008060008060808587031215610958576109576108a0565b5b6000610966878288016108f3565b945050602061097787828801610929565b935050604061098887828801610929565b925050606061099987828801610929565b91505092959194509250565b6109ae81610908565b82525050565b60006020820190506109c960008301846109a5565b92915050565b600080fd5b600080fd5b600080fd5b60008083601f8401126109f4576109f36109cf565b5b8235905067ffffffffffffffff811115610a1157610a106109d4565b5b602083019150836001820283011115610a2d57610a2c6109d9565b5b9250929050565b60008060208385031215610a4b57610a4a6108a0565b5b600083013567ffffffffffffffff811115610a6957610a686108a5565b5b610a75858286016109de565b92509250509250929050565b60008115159050919050565b610a9681610a81565b82525050565b600081519050919050565b600082825260208201905092915050565b60005b83811015610ad6578082015181840152602081019050610abb565b60008484015250505050565b6000601f19601f8301169050919050565b6000610afe82610a9c565b610b088185610aa7565b9350610b18818560208601610ab8565b610b2181610ae2565b840191505092915050565b6000604082019050610b416000830185610a8d565b8181036020830152610b538184610af3565b90509392505050565b600060208284031215610b7257610b716108a0565b5b6000610b8084828501610929565b91505092915050565b610b92816108ca565b82525050565b600061012082019050610bae600083018c610b89565b610bbb602083018b610b89565b610bc8604083018a610b89565b610bd560608301896109a5565b610be260808301886109a5565b610bef60a08301876109a5565b610bfc60c08301866109a5565b610c0960e08301856109a5565b610c17610100830184610a8d565b9a9950505050505050505050565b60008060408385031215610c3c57610c3b6108a0565b5b6000610c4a85828601610929565b9250506020610c5b858286016108f3565b9150509250929050565b7f4e487b7100000000000000000000000000000000000000000000000000000000600052601160045260246000fd5b6000610c9f82610908565b91507fffffffffffffffffffffffffffffffffffffffffffffffffffffffffffffffff8203610cd157610cd0610c65565b5b600182019050919050565b6000606082019050610cf16000830186610b89565b610cfe6020830185610b89565b610d0b60408301846109a5565b949350505050565b610d1c81610a81565b8114610d2757600080fd5b50565b600081519050610d3981610d13565b92915050565b600060208284031215610d5557610d546108a0565b5b6000610d6384828501610d2a565b91505092915050565b6000610d7782610908565b9150610d8283610908565b9250828201905080821115610d9a57610d99610c65565b5b92915050565b6000604082019050610db560008301856109a5565b610dc260208301846109a5565b9392505050565b6000604082019050610dde6000830185610b89565b610deb6020830184610b89565b9392505050565b600081519050610e0181610912565b92915050565b600060208284031215610e1d57610e1c6108a0565b5b6000610e2b84828501610df2565b91505092915050565b6000604082019050610e4960008301856109a5565b610e566020830184610b89565b939250505056fea2646970667358221220e7142bae2eaf765fda6f82fc52d618a1568026d2cc7e2df42908d7c1063ac19464736f6c63430008140033",
  "linkReferences": {},
  "deployedLinkReferences": {}
}