{
  "_format": "hh-sol-artifact-1",
  "contractName": "EmiAutoPayEVM",
  "sourceName": "contracts/EmiAutoPayEVM.sol",
  "abi": [
    {
      "anonymous": false,
      "inputs": [
        {
          "indexed": true,
          "internalType": "uint256",
          "name": "planId",
          "type": "uint256"
        }
      ],
      "name": "EmiCompleted",
      "type": "event"
    },
    {
      "anonymous": false,
      "inputs": [
        {
          "indexed": true,
          "internalType": "uint256",
          "name": "planId",
          "type": "uint256"
        },
        {
          "indexed": false,
          "internalType": "uint256",
          "name": "amount",
          "type": "uint256"
        }
      ],
      "name": "EmiPaid",
      "type": "event"
    },
    {
      "anonymous": false,
      "inputs": [
        {
          "indexed": true,
          "internalType": "uint256",
          "name": "planId",
          "type": "uint256"
        },
        {
          "indexed": true,
          "internalType": "address",
          "name": "sender",
          "type": "address"
        }
      ],
      "name": "PlanActivated",
      "type": "event"
    },
    {
      "anonymous": false,
      "inputs": [
        {
          "indexed": true,
          "internalType": "uint256",
          "name": "planId",
          "type": "uint256"
        }
      ],
      "name": "PlanCreated",
      "type": "event"
    },
    {
      "inputs": [],
      "name": "PERMIT2",
      "outputs": [
        {
          "internalType": "address",
          "name": "",
          "type": "address"
        }
      ],
      "stateMutability": "view",
      "type": "function"
    },
    {
      "inputs": [
        {
          "internalType": "uint256",
          "name": "planId",
          "type": "uint256"
        }
      ],
      "name": "activatePlan",
      "outputs": [],
      "stateMutability": "nonpayable",
      "type": "function"
    },
    {
      "inputs": [
        {
          "internalType": "uint256",
          "name": "planId",
          "type": "uint256"
        },
        {
          "internalType": "uint256",
          "name": "deadline",
          "type": "uint256"
        },
        {
          "internalType": "uint8",
          "name": "v",
          "type": "uint8"
        },
        {
          "internalType": "bytes32",
          "name": "r",
          "type": "bytes32"
        },
        {
          "internalType": "bytes32",
          "name": "s",
          "type": "bytes32"
        }
      ],
      "name": "activatePlanWithPermit",
      "outputs": [],
      "stateMutability": "nonpayable",
      "type": "function"
    },
    {
      "inputs": [
        {
          "internalType": "uint256",
          "name": "planId",
          "type": "uint256"
        },
        {
          "components": [
            {
              "components": [
                {
                  "internalType": "address",
                  "name": "token",
                  "type": "address"
                },
                {
                  "internalType": "uint160",
                  "name": "amount",
                  "type": "uint160"
                },
                {
                  "internalType": "uint48",
                  "name": "expiration",
                  "type": "uint48"
                },
                {
                  "internalType": "uint48",
                  "name": "nonce",
                  "type": "uint48"
                }
              ],
              "internalType": "struct PermitDetails",
              "name": "details",
              "type": "tuple"
            },
            {
              "internalType": "address",
              "name": "spender",
              "type": "address"
            },
            {
              "internalType": "uint256",
              "name": "sigDeadline",
              "type": "uint256"
            }
          ],
          "internalType": "struct PermitSingle",
          "name": "permit",
          "type": "tuple"
        },
        {
          "internalType": "bytes",
          "name": "signature",
          "type": "bytes"
        }
      ],
      "name": "activatePlanWithPermit2",
      "outputs": [],
      "stateMutability": "nonpayable",
      "type": "function"
    },
    {
      "inputs": [
        {
          "internalType": "bytes",
          "name": "",
          "type": "bytes"
        }
      ],
      "name": "checkUpkeep",
      "outputs": [
        {
          "internalType": "bool",
          "name": "upkeepNeeded",
          "type": "bool"
        },
        {
          "internalType": "bytes",
          "name": "performData",
          "type": "bytes"
        }
      ],
      "stateMutability": "view",
      "type": "function"
    },
    {
      "inputs": [
        {
          "internalType": "address",
          "name": "token",
          "type": "address"
        },
        {
          "internalType": "uint256",
          "name": "emi",
          "type": "uint256"
        },
        {
          "internalType": "uint256",
          "name": "interval",
          "type": "uint256"
        },
        {
          "internalType": "uint256",
          "name": "total",
          "type": "uint256"
        }
      ],
      "name": "createPlan",
      "outputs": [],
      "stateMutability": "nonpayable",
      "type": "function"
    },
    {
      "inputs": [
        {
          "internalType": "bytes",
          "name": "data",
          "type": "bytes"
        }
      ],
      "name": "performUpkeep",
      "outputs": [],
      "stateMutability": "nonpayable",
      "type": "function"
    },
    {
      "inputs": [],
      "name": "planCount",
      "outputs": [
        {
          "internalType": "uint256",
          "name": "",
          "type": "uint256"
        }
      ],
      "stateMutability": "view",
      "type": "function"
    },
    {
      "inputs": [
        {
          "internalType": "uint256",
          "name": "",
          "type": "uint256"
        }
      ],
      "name": "plans",
      "outputs": [
        {
          "internalType": "address",
          "name": "sender",
          "type": "address"
        },
        {
          "internalType": "address",
          "name": "receiver",
          "type": "address"
        },
        {
          "internalType": "address",
          "name": "token",
          "type": "address"
        },
        {
          "internalType": "uint256",
          "name": "emi",
          "type": "uint256"
        },
        {
          "internalType": "uint256",
          "name": "interval",
          "type": "uint256"
        },
        {
          "internalType": "uint256",
          "name": "total",
          "type": "uint256"
        },
        {
          "internalType": "uint256",
          "name": "paid",
          "type": "uint256"
        },
        {
          "internalType": "uint256",
          "name": "nextPay",
          "type": "uint256"
        },
        {
          "internalType": "bool",
          "name": "active",
          "type": "bool"
        }
      ],
      "stateMutability": "view",
      "type": "function"
    }
  ],
  "bytecode": "0x608060405234801561001057600080fd5b506001600081905550611d38806100286000396000f3fe608060405234801561001057600080fd5b50600436106100925760003560e01c80636afdd850116100665780636afdd850146101095780636e04ff0d14610127578063b162061614610158578063d4ea9e6214610190578063d7e252a9146101ac57610092565b80629fc8bd146100975780630339e9fa146100b3578063382d39bb146100cf5780634585e33b146100ed575b600080fd5b6100b160048036038101906100ac9190610feb565b6101c8565b005b6100cd60048036038101906100c891906110be565b6102c2565b005b6100d7610610565b6040516100e49190611134565b60405180910390f35b6101076004803603810190610102919061114f565b610616565b005b6101116109e7565b60405161011e91906111ab565b60405180910390f35b610141600480360381019061013c919061114f565b6109fa565b60405161014f929190611271565b60405180910390f35b610172600480360381019061016d91906112a1565b610abf565b604051610187999897969594939291906112ce565b60405180910390f35b6101aa60048036038101906101a591906112a1565b610b7a565b005b6101c660048036038101906101c191906113ca565b610cd7565b005b60006002600086815260200190815260200160002090508060080160009054906101000a900460ff1615610231576040517f08c379a0000000000000000000000000000000000000000000000000000000008152600401610228906114a2565b60405180910390fd5b6e22d473030f116ddee9f6b43ac78ba373ffffffffffffffffffffffffffffffffffffffff16632b67b570338686866040518563ffffffff1660e01b815260040161027f94939291906116da565b600060405180830381600087803b15801561029957600080fd5b505af11580156102ad573d6000803e3d6000fd5b505050506102bb8533610df1565b5050505050565b600073ffffffffffffffffffffffffffffffffffffffff168473ffffffffffffffffffffffffffffffffffffffff1603610331576040517f08c379a000000000000000000000000000000000000000000000000000000000815260040161032890611767565b60405180910390fd5b60008311610374576040517f08c379a000000000000000000000000000000000000000000000000000000000815260040161036b906117d3565b60405180910390fd5b603c8210156103b8576040517f08c379a00000000000000000000000000000000000000000000000000000000081526004016103af9061183f565b60405180910390fd5b828110156103fb576040517f08c379a00000000000000000000000000000000000000000000000000000000081526004016103f2906118ab565b60405180910390fd5b6001600081548092919061040e906118fa565b9190505550604051806101200160405280600073ffffffffffffffffffffffffffffffffffffffff1681526020013373ffffffffffffffffffffffffffffffffffffffff1681526020018573ffffffffffffffffffffffffffffffffffffffff16815260200184815260200183815260200182815260200160008152602001600081526020016000151581525060026000600154815260200190815260200160002060008201518160000160006101000a81548173ffffffffffffffffffffffffffffffffffffffff021916908373ffffffffffffffffffffffffffffffffffffffff16021790555060208201518160010160006101000a81548173ffffffffffffffffffffffffffffffffffffffff021916908373ffffffffffffffffffffffffffffffffffffffff16021790555060408201518160020160006101000a81548173ffffffffffffffffffffffffffffffffffffffff021916908373ffffffffffffffffffffffffffffffffffffffff160217905550606082015181600301556080820151816004015560a0820151816005015560c0820151816006015560e082015181600701556101008201518160080160006101000a81548160ff0219169083151502179055509050506001547f9dfd4372898f1ab4b7aab4735c5b8c07f64b72ef6f72e0da892265459fc1b86160405160405180910390a250505050565b60015481565b61061e610ec9565b6000828281019061062f91906112a1565b905060006002600083815260200190815260200160002090508060080160009054906101000a900460ff16610699576040517f08c379a00000000000000000000000000000000000000000000000000000000081526004016106909061198e565b60405180910390fd5b80600701544210156106e0576040517f08c379a00000000000000000000000000000000000000000000000000000000081526004016106d7906119fa565b60405180910390fd5b60008160020160009054906101000a900473ffffffffffffffffffffffffffffffffffffffff1673ffffffffffffffffffffffffffffffffffffffff166323b872dd8360000160009054906101000a900473ffffffffffffffffffffffffffffffffffffffff168460010160009054906101000a900473ffffffffffffffffffffffffffffffffffffffff1685600301546040518463ffffffff1660e01b815260040161078f93929190611a1a565b6020604051808303816000875af11580156107ae573d6000803e3d6000fd5b505050506040513d601f19601f820116820180604052508101906107d29190611a7d565b9050806108ca576e22d473030f116ddee9f6b43ac78ba373ffffffffffffffffffffffffffffffffffffffff166336c785168360000160009054906101000a900473ffffffffffffffffffffffffffffffffffffffff168460010160009054906101000a900473ffffffffffffffffffffffffffffffffffffffff1685600301548660020160009054906101000a900473ffffffffffffffffffffffffffffffffffffffff166040518563ffffffff1660e01b81526004016108979493929190611ab9565b600060405180830381600087803b1580156108b157600080fd5b505af11580156108c5573d6000803e3d6000fd5b505050505b81600301548260060160008282546108e29190611afe565b9250508190555081600501548260060154106109835760008260080160006101000a81548160ff021916908315150217905550827f06e59a6ee972bbd5f5b1932131f47641231aa73d1b0d32bd72cea9471babf74283600301546040516109499190611134565b60405180910390a2827f5417900f2b30001c152939c30dea707712a1b6254728bc12c5bf0137cb36e9a060405160405180910390a26109d8565b8160040154426109939190611afe565b8260070181905550827f06e59a6ee972bbd5f5b1932131f47641231aa73d1b0d32bd72cea9471babf74283600301546040516109cf9190611134565b60405180910390a25b5050506109e3610f18565b5050565b6e22d473030f116ddee9f6b43ac78ba381565b600060606000600190505b6001548111610aa05760006002600083815260200190815260200160002090508060080160009054906101000a900460ff168015610a4a575080600501548160060154105b8015610a5a575080600701544210155b15610a8c57600182604051602001610a729190611134565b604051602081830303815290604052935093505050610ab8565b508080610a98906118fa565b915050610a05565b50600060405180602001604052806000815250915091505b9250929050565b60026020528060005260406000206000915090508060000160009054906101000a900473ffffffffffffffffffffffffffffffffffffffff16908060010160009054906101000a900473ffffffffffffffffffffffffffffffffffffffff16908060020160009054906101000a900473ffffffffffffffffffffffffffffffffffffffff16908060030154908060040154908060050154908060060154908060070154908060080160009054906101000a900460ff16905089565b60006002600083815260200190815260200160002090508060080160009054906101000a900460ff1615610be3576040517f08c379a0000000000000000000000000000000000000000000000000000000008152600401610bda906114a2565b60405180910390fd5b80600301548160020160009054906101000a900473ffffffffffffffffffffffffffffffffffffffff1673ffffffffffffffffffffffffffffffffffffffff1663dd62ed3e33306040518363ffffffff1660e01b8152600401610c47929190611b32565b602060405180830381865afa158015610c64573d6000803e3d6000fd5b505050506040513d601f19601f82011682018060405250810190610c889190611b70565b1015610cc9576040517f08c379a0000000000000000000000000000000000000000000000000000000008152600401610cc090611be9565b60405180910390fd5b610cd38233610df1565b5050565b60006002600087815260200190815260200160002090508060080160009054906101000a900460ff1615610d40576040517f08c379a0000000000000000000000000000000000000000000000000000000008152600401610d37906114a2565b60405180910390fd5b8060020160009054906101000a900473ffffffffffffffffffffffffffffffffffffffff1673ffffffffffffffffffffffffffffffffffffffff1663d505accf33308460030154898989896040518863ffffffff1660e01b8152600401610dad9796959493929190611c27565b600060405180830381600087803b158015610dc757600080fd5b505af1158015610ddb573d6000803e3d6000fd5b50505050610de98633610df1565b505050505050565b6000600260008481526020019081526020016000209050818160000160006101000a81548173ffffffffffffffffffffffffffffffffffffffff021916908373ffffffffffffffffffffffffffffffffffffffff16021790555060018160080160006101000a81548160ff021916908315150217905550806004015442610e789190611afe565b81600701819055508173ffffffffffffffffffffffffffffffffffffffff16837f1f07c729fc76534d72c9e3ad0a792bf34de515a8aabc1a61bd40c2a2bd72ad8860405160405180910390a3505050565b600260005403610f0e576040517f08c379a0000000000000000000000000000000000000000000000000000000008152600401610f0590611ce2565b60405180910390fd5b6002600081905550565b6001600081905550565b600080fd5b600080fd5b6000819050919050565b610f3f81610f2c565b8114610f4a57600080fd5b50565b600081359050610f5c81610f36565b92915050565b600080fd5b600060c08284031215610f7d57610f7c610f62565b5b81905092915050565b600080fd5b600080fd5b600080fd5b60008083601f840112610fab57610faa610f86565b5b8235905067ffffffffffffffff811115610fc857610fc7610f8b565b5b602083019150836001820283011115610fe457610fe3610f90565b5b9250929050565b600080600080610100858703121561100657611005610f22565b5b600061101487828801610f4d565b945050602061102587828801610f67565b93505060e085013567ffffffffffffffff81111561104657611045610f27565b5b61105287828801610f95565b925092505092959194509250565b600073ffffffffffffffffffffffffffffffffffffffff82169050919050565b600061108b82611060565b9050919050565b61109b81611080565b81146110a657600080fd5b50565b6000813590506110b881611092565b92915050565b600080600080608085870312156110d8576110d7610f22565b5b60006110e6878288016110a9565b94505060206110f787828801610f4d565b935050604061110887828801610f4d565b925050606061111987828801610f4d565b91505092959194509250565b61112e81610f2c565b82525050565b60006020820190506111496000830184611125565b92915050565b6000806020838503121561116657611165610f22565b5b600083013567ffffffffffffffff81111561118457611183610f27565b5b61119085828601610f95565b92509250509250929050565b6111a581611080565b82525050565b60006020820190506111c0600083018461119c565b92915050565b60008115159050919050565b6111db816111c6565b82525050565b600081519050919050565b600082825260208201905092915050565b60005b8381101561121b578082015181840152602081019050611200565b60008484015250505050565b6000601f19601f8301169050919050565b6000611243826111e1565b61124d81856111ec565b935061125d8185602086016111fd565b61126681611227565b840191505092915050565b600060408201905061128660008301856111d2565b81810360208301526112988184611238565b90509392505050565b6000602082840312156112b7576112b6610f22565b5b60006112c584828501610f4d565b91505092915050565b6000610120820190506112e4600083018c61119c565b6112f1602083018b61119c565b6112fe604083018a61119c565b61130b6060830189611125565b6113186080830188611125565b61132560a0830187611125565b61133260c0830186611125565b61133f60e0830185611125565b61134d6101008301846111d2565b9a9950505050505050505050565b600060ff82169050919050565b6113718161135b565b811461137c57600080fd5b50565b60008135905061138e81611368565b92915050565b6000819050919050565b6113a781611394565b81146113b257600080fd5b50565b6000813590506113c48161139e565b92915050565b600080600080600060a086880312156113e6576113e5610f22565b5b60006113f488828901610f4d565b955050602061140588828901610f4d565b94505060406114168882890161137f565b9350506060611427888289016113b5565b9250506080611438888289016113b5565b9150509295509295909350565b600082825260208201905092915050565b7f416c726561647920616374697665000000000000000000000000000000000000600082015250565b600061148c600e83611445565b915061149782611456565b602082019050919050565b600060208201905081810360008301526114bb8161147f565b9050919050565b600082905092915050565b60006114dc60208401846110a9565b905092915050565b6114ed81611080565b82525050565b6114fc81611060565b811461150757600080fd5b50565b600081359050611519816114f3565b92915050565b600061152e602084018461150a565b905092915050565b61153f81611060565b82525050565b600065ffffffffffff82169050919050565b61156081611545565b811461156b57600080fd5b50565b60008135905061157d81611557565b92915050565b6000611592602084018461156e565b905092915050565b6115a381611545565b82525050565b608082016115ba60008301836114cd565b6115c760008501826114e4565b506115d5602083018361151f565b6115e26020850182611536565b506115f06040830183611583565b6115fd604085018261159a565b5061160b6060830183611583565b611618606085018261159a565b50505050565b600061162d6020840184610f4d565b905092915050565b61163e81610f2c565b82525050565b60c0820161165560008301836114c2565b61166260008501826115a9565b5061167060808301836114cd565b61167d60808501826114e4565b5061168b60a083018361161e565b61169860a0850182611635565b50505050565b82818337600083830152505050565b60006116b983856111ec565b93506116c683858461169e565b6116cf83611227565b840190509392505050565b6000610100820190506116f0600083018761119c565b6116fd6020830186611644565b81810360e08301526117108184866116ad565b905095945050505050565b7f496e76616c696420746f6b656e00000000000000000000000000000000000000600082015250565b6000611751600d83611445565b915061175c8261171b565b602082019050919050565b6000602082019050818103600083015261178081611744565b9050919050565b7f496e76616c696420454d49000000000000000000000000000000000000000000600082015250565b60006117bd600b83611445565b91506117c882611787565b602082019050919050565b600060208201905081810360008301526117ec816117b0565b9050919050565b7f4d696e20696e74657276616c2036307300000000000000000000000000000000600082015250565b6000611829601083611445565b9150611834826117f3565b602082019050919050565b600060208201905081810360008301526118588161181c565b9050919050565b7f546f74616c203c20454d49000000000000000000000000000000000000000000600082015250565b6000611895600b83611445565b91506118a08261185f565b602082019050919050565b600060208201905081810360008301526118c481611888565b9050919050565b7f4e487b7100000000000000000000000000000000000000000000000000000000600052601160045260246000fd5b600061190582610f2c565b91507fffffffffffffffffffffffffffffffffffffffffffffffffffffffffffffffff8203611937576119366118cb565b5b600182019050919050565b7f496e616374697665000000000000000000000000000000000000000000000000600082015250565b6000611978600883611445565b915061198382611942565b602082019050919050565b600060208201905081810360008301526119a78161196b565b9050919050565b7f546f6f206561726c790000000000000000000000000000000000000000000000600082015250565b60006119e4600983611445565b91506119ef826119ae565b602082019050919050565b60006020820190508181036000830152611a13816119d7565b9050919050565b6000606082019050611a2f600083018661119c565b611a3c602083018561119c565b611a496040830184611125565b949350505050565b611a5a816111c6565b8114611a6557600080fd5b50565b600081519050611a7781611a51565b92915050565b600060208284031215611a9357611a92610f22565b5b6000611aa184828501611a68565b91505092915050565b611ab381611060565b82525050565b6000608082019050611ace600083018761119c565b611adb602083018661119c565b611ae86040830185611aaa565b611af5606083018461119c565b95945050505050565b6000611b0982610f2c565b9150611b1483610f2c565b9250828201905080821115611b2c57611b2b6118cb565b5b92915050565b6000604082019050611b47600083018561119c565b611b54602083018461119c565b9392505050565b600081519050611b6a81610f36565b92915050565b600060208284031215611b8657611b85610f22565b5b6000611b9484828501611b5b565b91505092915050565b7f496e73756666696369656e7420616c6c6f77616e636500000000000000000000600082015250565b6000611bd3601683611445565b9150611bde82611b9d565b602082019050919050565b60006020820190508181036000830152611c0281611bc6565b9050919050565b611c128161135b565b82525050565b611c2181611394565b82525050565b600060e082019050611c3c600083018a61119c565b611c49602083018961119c565b611c566040830188611125565b611c636060830187611125565b611c706080830186611c09565b611c7d60a0830185611c18565b611c8a60c0830184611c18565b98975050505050505050565b7f5265656e7472616e637947756172643a207265656e7472616e742063616c6c00600082015250565b6000611ccc601f83611445565b9150611cd782611c96565b602082019050919050565b60006020820190508181036000830152611cfb81611cbf565b905091905056fea264697066735822122037ff56a85e0584818e4976e6aef90491228fc85061d761767011ac1391110e8864736f6c63430008140033",
  "linkReferences": {},
  "deployedLinkReferences": {}
}