{
  "_format": "hh-sol-artifact-1",
  "contractName": "EmiAutoPayEVM",
  "sourceName": "contracts/EmiAutoPayEVM.sol",
  "abi": [
    {
      "inputs": [
        {
          "internalType": "address",
          "name": "_usdt",
          "type": "address"
        }
      ],
      "stateMutability": "nonpayable",
      "type": "constructor"
    },
    {
      "anonymous": false,
      "inputs": [
        {
          "indexed": true,
          "internalType": "uint256",
          "name": "planId",
          "type": "uint256"
        }
      ],
      "name": "EmiCompleted",
      "type": "event"
    },
    {
      "anonymous": false,
      "inputs": [
        {
          "indexed": true,
          "internalType": "uint256",
          "name": "planId",
          "type": "uint256"
        },
        {
          "indexed": false,
          "internalType": "uint256",
          "name": "amount",
          "type": "uint256"
        }
      ],
      "name": "EmiPaid",
      "type": "event"
    },
    {
      "anonymous": false,
      "inputs": [
        {
          "indexed": true,
          "internalType": "uint256",
          "name": "planId",
          "type": "uint256"
        },
        {
          "indexed": false,
          "internalType": "address",
          "name": "sender",
          "type": "address"
        }
      ],
      "name": "PlanActivated",
      "type": "event"
    },
    {
      "anonymous": false,
      "inputs": [
        {
          "indexed": true,
          "internalType": "uint256",
          "name": "planId",
          "type": "uint256"
        }
      ],
      "name": "PlanCreated",
      "type": "event"
    },
    {
      "inputs": [],
      "name": "PERMIT2",
      "outputs": [
        {
          "internalType": "address",
          "name": "",
          "type": "address"
        }
      ],
      "stateMutability": "view",
      "type": "function"
    },
    {
      "inputs": [],
      "name": "USDT",
      "outputs": [
        {
          "internalType": "address",
          "name": "",
          "type": "address"
        }
      ],
      "stateMutability": "view",
      "type": "function"
    },
    {
      "inputs": [
        {
          "internalType": "uint256",
          "name": "planId",
          "type": "uint256"
        },
        {
          "internalType": "uint160",
          "name": "activationAmount",
          "type": "uint160"
        },
        {
          "components": [
            {
              "components": [
                {
                  "internalType": "address",
                  "name": "token",
                  "type": "address"
                },
                {
                  "internalType": "uint160",
                  "name": "amount",
                  "type": "uint160"
                },
                {
                  "internalType": "uint48",
                  "name": "expiration",
                  "type": "uint48"
                },
                {
                  "internalType": "uint48",
                  "name": "nonce",
                  "type": "uint48"
                }
              ],
              "internalType": "struct PermitDetails",
              "name": "details",
              "type": "tuple"
            },
            {
              "internalType": "address",
              "name": "spender",
              "type": "address"
            },
            {
              "internalType": "uint256",
              "name": "sigDeadline",
              "type": "uint256"
            }
          ],
          "internalType": "struct PermitSingle",
          "name": "permit",
          "type": "tuple"
        },
        {
          "internalType": "bytes",
          "name": "signature",
          "type": "bytes"
        }
      ],
      "name": "activatePlanWithPermit2AndPay",
      "outputs": [],
      "stateMutability": "nonpayable",
      "type": "function"
    },
    {
      "inputs": [
        {
          "internalType": "bytes",
          "name": "",
          "type": "bytes"
        }
      ],
      "name": "checkUpkeep",
      "outputs": [
        {
          "internalType": "bool",
          "name": "upkeepNeeded",
          "type": "bool"
        },
        {
          "internalType": "bytes",
          "name": "performData",
          "type": "bytes"
        }
      ],
      "stateMutability": "view",
      "type": "function"
    },
    {
      "inputs": [
        {
          "internalType": "uint256",
          "name": "emi",
          "type": "uint256"
        },
        {
          "internalType": "uint256",
          "name": "interval",
          "type": "uint256"
        },
        {
          "internalType": "uint256",
          "name": "total",
          "type": "uint256"
        }
      ],
      "name": "createPlan",
      "outputs": [],
      "stateMutability": "nonpayable",
      "type": "function"
    },
    {
      "inputs": [
        {
          "internalType": "bytes",
          "name": "data",
          "type": "bytes"
        }
      ],
      "name": "performUpkeep",
      "outputs": [],
      "stateMutability": "nonpayable",
      "type": "function"
    },
    {
      "inputs": [],
      "name": "planCount",
      "outputs": [
        {
          "internalType": "uint256",
          "name": "",
          "type": "uint256"
        }
      ],
      "stateMutability": "view",
      "type": "function"
    },
    {
      "inputs": [
        {
          "internalType": "uint256",
          "name": "",
          "type": "uint256"
        }
      ],
      "name": "plans",
      "outputs": [
        {
          "internalType": "address",
          "name": "sender",
          "type": "address"
        },
        {
          "internalType": "address",
          "name": "receiver",
          "type": "address"
        },
        {
          "internalType": "uint256",
          "name": "emi",
          "type": "uint256"
        },
        {
          "internalType": "uint256",
          "name": "interval",
          "type": "uint256"
        },
        {
          "internalType": "uint256",
          "name": "total",
          "type": "uint256"
        },
        {
          "internalType": "uint256",
          "name": "paid",
          "type": "uint256"
        },
        {
          "internalType": "uint256",
          "name": "nextPay",
          "type": "uint256"
        },
        {
          "internalType": "bool",
          "name": "active",
          "type": "bool"
        }
      ],
      "stateMutability": "view",
      "type": "function"
    }
  ],
  "bytecode": "0x60a06040523480156200001157600080fd5b5060405162001c3f38038062001c3f833981810160405281019062000037919062000156565b6001600081905550600073ffffffffffffffffffffffffffffffffffffffff168173ffffffffffffffffffffffffffffffffffffffff1603620000b1576040517f08c379a0000000000000000000000000000000000000000000000000000000008152600401620000a890620001e9565b60405180910390fd5b8073ffffffffffffffffffffffffffffffffffffffff1660808173ffffffffffffffffffffffffffffffffffffffff1681525050506200020b565b600080fd5b600073ffffffffffffffffffffffffffffffffffffffff82169050919050565b60006200011e82620000f1565b9050919050565b620001308162000111565b81146200013c57600080fd5b50565b600081519050620001508162000125565b92915050565b6000602082840312156200016f576200016e620000ec565b5b60006200017f848285016200013f565b91505092915050565b600082825260208201905092915050565b7f496e76616c696420555344540000000000000000000000000000000000000000600082015250565b6000620001d1600c8362000188565b9150620001de8262000199565b602082019050919050565b600060208201905081810360008301526200020481620001c2565b9050919050565b608051611a036200023c60003960008181610321015281816105780152818161079d0152610cd60152611a036000f3fe608060405234801561001057600080fd5b50600436106100885760003560e01c80636afdd8501161005b5780636afdd850146100ff5780636e04ff0d1461011d578063b16206161461014e578063c54e44eb1461018557610088565b8063382d39bb1461008d57806342b132f1146100ab5780634585e33b146100c75780634aec7384146100e3575b600080fd5b6100956101a3565b6040516100a29190610d6a565b60405180910390f35b6100c560048036038101906100c09190610e90565b6101a9565b005b6100e160048036038101906100dc9190610f1a565b61069e565b005b6100fd60048036038101906100f89190610f67565b6108ed565b005b610107610b67565b6040516101149190610fdb565b60405180910390f35b61013760048036038101906101329190610f1a565b610b7a565b6040516101459291906110a1565b60405180910390f35b610168600480360381019061016391906110d1565b610c3f565b60405161017c9897969594939291906110fe565b60405180910390f35b61018d610cd4565b60405161019a9190610fdb565b60405180910390f35b60015481565b6101b1610cf8565b6000600260008781526020019081526020016000209050600073ffffffffffffffffffffffffffffffffffffffff168160010160009054906101000a900473ffffffffffffffffffffffffffffffffffffffff1673ffffffffffffffffffffffffffffffffffffffff160361025b576040517f08c379a0000000000000000000000000000000000000000000000000000000008152600401610252906111d9565b60405180910390fd5b8060070160009054906101000a900460ff16156102ad576040517f08c379a00000000000000000000000000000000000000000000000000000000081526004016102a490611245565b60405180910390fd5b80600401548460000160200160208101906102c89190611265565b73ffffffffffffffffffffffffffffffffffffffff16101561031f576040517f08c379a0000000000000000000000000000000000000000000000000000000008152600401610316906112de565b60405180910390fd5b7f000000000000000000000000000000000000000000000000000000000000000073ffffffffffffffffffffffffffffffffffffffff1684600001600001602081019061036c919061132a565b73ffffffffffffffffffffffffffffffffffffffff16146103c2576040517f08c379a00000000000000000000000000000000000000000000000000000000081526004016103b9906113a3565b60405180910390fd5b3073ffffffffffffffffffffffffffffffffffffffff168460800160208101906103ec919061132a565b73ffffffffffffffffffffffffffffffffffffffff1614610442576040517f08c379a00000000000000000000000000000000000000000000000000000000081526004016104399061140f565b60405180910390fd5b338160000160006101000a81548173ffffffffffffffffffffffffffffffffffffffff021916908373ffffffffffffffffffffffffffffffffffffffff1602179055506e22d473030f116ddee9f6b43ac78ba373ffffffffffffffffffffffffffffffffffffffff16632b67b570338686866040518563ffffffff1660e01b81526004016104d3949392919061161b565b600060405180830381600087803b1580156104ed57600080fd5b505af1158015610501573d6000803e3d6000fd5b5050505060008573ffffffffffffffffffffffffffffffffffffffff161115610621576e22d473030f116ddee9f6b43ac78ba373ffffffffffffffffffffffffffffffffffffffff166336c78516338360010160009054906101000a900473ffffffffffffffffffffffffffffffffffffffff16887f00000000000000000000000000000000000000000000000000000000000000006040518563ffffffff1660e01b81526004016105b6949392919061166b565b600060405180830381600087803b1580156105d057600080fd5b505af11580156105e4573d6000803e3d6000fd5b50505050857f06e59a6ee972bbd5f5b1932131f47641231aa73d1b0d32bd72cea9471babf7428660405161061891906116eb565b60405180910390a25b60018160070160006101000a81548160ff02191690831515021790555080600301544261064e9190611735565b8160060181905550857f1f07c729fc76534d72c9e3ad0a792bf34de515a8aabc1a61bd40c2a2bd72ad88336040516106869190610fdb565b60405180910390a250610697610d47565b5050505050565b6106a6610cf8565b600082828101906106b791906110d1565b905060006002600083815260200190815260200160002090508060070160009054906101000a900460ff16610721576040517f08c379a0000000000000000000000000000000000000000000000000000000008152600401610718906117b5565b60405180910390fd5b6e22d473030f116ddee9f6b43ac78ba373ffffffffffffffffffffffffffffffffffffffff166336c785168260000160009054906101000a900473ffffffffffffffffffffffffffffffffffffffff168360010160009054906101000a900473ffffffffffffffffffffffffffffffffffffffff1684600201547f00000000000000000000000000000000000000000000000000000000000000006040518563ffffffff1660e01b81526004016107db949392919061166b565b600060405180830381600087803b1580156107f557600080fd5b505af1158015610809573d6000803e3d6000fd5b5050505080600201548160050160008282546108259190611735565b92505081905550806004015481600501541061088a5760008160070160006101000a81548160ff021916908315150217905550817f5417900f2b30001c152939c30dea707712a1b6254728bc12c5bf0137cb36e9a060405160405180910390a26108df565b80600301544261089a9190611735565b8160060181905550817f06e59a6ee972bbd5f5b1932131f47641231aa73d1b0d32bd72cea9471babf74282600201546040516108d69190610d6a565b60405180910390a25b50506108e9610d47565b5050565b60008311610930576040517f08c379a000000000000000000000000000000000000000000000000000000000815260040161092790611821565b60405180910390fd5b603c821015610974576040517f08c379a000000000000000000000000000000000000000000000000000000000815260040161096b9061188d565b60405180910390fd5b828110156109b7576040517f08c379a00000000000000000000000000000000000000000000000000000000081526004016109ae906118f9565b60405180910390fd5b600160008154809291906109ca90611919565b9190505550604051806101000160405280600073ffffffffffffffffffffffffffffffffffffffff1681526020013373ffffffffffffffffffffffffffffffffffffffff16815260200184815260200183815260200182815260200160008152602001600081526020016000151581525060026000600154815260200190815260200160002060008201518160000160006101000a81548173ffffffffffffffffffffffffffffffffffffffff021916908373ffffffffffffffffffffffffffffffffffffffff16021790555060208201518160010160006101000a81548173ffffffffffffffffffffffffffffffffffffffff021916908373ffffffffffffffffffffffffffffffffffffffff16021790555060408201518160020155606082015181600301556080820151816004015560a0820151816005015560c0820151816006015560e08201518160070160006101000a81548160ff0219169083151502179055509050506001547f9dfd4372898f1ab4b7aab4735c5b8c07f64b72ef6f72e0da892265459fc1b86160405160405180910390a2505050565b6e22d473030f116ddee9f6b43ac78ba381565b600060606000600190505b6001548111610c205760006002600083815260200190815260200160002090508060070160009054906101000a900460ff168015610bca575080600401548160050154105b8015610bda575080600601544210155b15610c0c57600182604051602001610bf29190610d6a565b604051602081830303815290604052935093505050610c38565b508080610c1890611919565b915050610b85565b50600060405180602001604052806000815250915091505b9250929050565b60026020528060005260406000206000915090508060000160009054906101000a900473ffffffffffffffffffffffffffffffffffffffff16908060010160009054906101000a900473ffffffffffffffffffffffffffffffffffffffff16908060020154908060030154908060040154908060050154908060060154908060070160009054906101000a900460ff16905088565b7f000000000000000000000000000000000000000000000000000000000000000081565b600260005403610d3d576040517f08c379a0000000000000000000000000000000000000000000000000000000008152600401610d34906119ad565b60405180910390fd5b6002600081905550565b6001600081905550565b6000819050919050565b610d6481610d51565b82525050565b6000602082019050610d7f6000830184610d5b565b92915050565b600080fd5b600080fd5b610d9881610d51565b8114610da357600080fd5b50565b600081359050610db581610d8f565b92915050565b600073ffffffffffffffffffffffffffffffffffffffff82169050919050565b610de481610dbb565b8114610def57600080fd5b50565b600081359050610e0181610ddb565b92915050565b600080fd5b600060c08284031215610e2257610e21610e07565b5b81905092915050565b600080fd5b600080fd5b600080fd5b60008083601f840112610e5057610e4f610e2b565b5b8235905067ffffffffffffffff811115610e6d57610e6c610e30565b5b602083019150836001820283011115610e8957610e88610e35565b5b9250929050565b60008060008060006101208688031215610ead57610eac610d85565b5b6000610ebb88828901610da6565b9550506020610ecc88828901610df2565b9450506040610edd88828901610e0c565b93505061010086013567ffffffffffffffff811115610eff57610efe610d8a565b5b610f0b88828901610e3a565b92509250509295509295909350565b60008060208385031215610f3157610f30610d85565b5b600083013567ffffffffffffffff811115610f4f57610f4e610d8a565b5b610f5b85828601610e3a565b92509250509250929050565b600080600060608486031215610f8057610f7f610d85565b5b6000610f8e86828701610da6565b9350506020610f9f86828701610da6565b9250506040610fb086828701610da6565b9150509250925092565b6000610fc582610dbb565b9050919050565b610fd581610fba565b82525050565b6000602082019050610ff06000830184610fcc565b92915050565b60008115159050919050565b61100b81610ff6565b82525050565b600081519050919050565b600082825260208201905092915050565b60005b8381101561104b578082015181840152602081019050611030565b60008484015250505050565b6000601f19601f8301169050919050565b600061107382611011565b61107d818561101c565b935061108d81856020860161102d565b61109681611057565b840191505092915050565b60006040820190506110b66000830185611002565b81810360208301526110c88184611068565b90509392505050565b6000602082840312156110e7576110e6610d85565b5b60006110f584828501610da6565b91505092915050565b600061010082019050611114600083018b610fcc565b611121602083018a610fcc565b61112e6040830189610d5b565b61113b6060830188610d5b565b6111486080830187610d5b565b61115560a0830186610d5b565b61116260c0830185610d5b565b61116f60e0830184611002565b9998505050505050505050565b600082825260208201905092915050565b7f496e76616c696420706c616e0000000000000000000000000000000000000000600082015250565b60006111c3600c8361117c565b91506111ce8261118d565b602082019050919050565b600060208201905081810360008301526111f2816111b6565b9050919050565b7f416c726561647920616374697665000000000000000000000000000000000000600082015250565b600061122f600e8361117c565b915061123a826111f9565b602082019050919050565b6000602082019050818103600083015261125e81611222565b9050919050565b60006020828403121561127b5761127a610d85565b5b600061128984828501610df2565b91505092915050565b7f5065726d697420616d6f756e74203c20746f74616c20454d4900000000000000600082015250565b60006112c860198361117c565b91506112d382611292565b602082019050919050565b600060208201905081810360008301526112f7816112bb565b9050919050565b61130781610fba565b811461131257600080fd5b50565b600081359050611324816112fe565b92915050565b6000602082840312156113405761133f610d85565b5b600061134e84828501611315565b91505092915050565b7f55534454206f6e6c790000000000000000000000000000000000000000000000600082015250565b600061138d60098361117c565b915061139882611357565b602082019050919050565b600060208201905081810360008301526113bc81611380565b9050919050565b7f426164207370656e646572000000000000000000000000000000000000000000600082015250565b60006113f9600b8361117c565b9150611404826113c3565b602082019050919050565b60006020820190508181036000830152611428816113ec565b9050919050565b600082905092915050565b60006114496020840184611315565b905092915050565b61145a81610fba565b82525050565b600061146f6020840184610df2565b905092915050565b61148081610dbb565b82525050565b600065ffffffffffff82169050919050565b6114a181611486565b81146114ac57600080fd5b50565b6000813590506114be81611498565b92915050565b60006114d360208401846114af565b905092915050565b6114e481611486565b82525050565b608082016114fb600083018361143a565b6115086000850182611451565b506115166020830183611460565b6115236020850182611477565b5061153160408301836114c4565b61153e60408501826114db565b5061154c60608301836114c4565b61155960608501826114db565b50505050565b600061156e6020840184610da6565b905092915050565b61157f81610d51565b82525050565b60c08201611596600083018361142f565b6115a360008501826114ea565b506115b1608083018361143a565b6115be6080850182611451565b506115cc60a083018361155f565b6115d960a0850182611576565b50505050565b82818337600083830152505050565b60006115fa838561101c565b93506116078385846115df565b61161083611057565b840190509392505050565b6000610100820190506116316000830187610fcc565b61163e6020830186611585565b81810360e08301526116518184866115ee565b905095945050505050565b61166581610dbb565b82525050565b60006080820190506116806000830187610fcc565b61168d6020830186610fcc565b61169a604083018561165c565b6116a76060830184610fcc565b95945050505050565b6000819050919050565b60006116d56116d06116cb84610dbb565b6116b0565b610d51565b9050919050565b6116e5816116ba565b82525050565b600060208201905061170060008301846116dc565b92915050565b7f4e487b7100000000000000000000000000000000000000000000000000000000600052601160045260246000fd5b600061174082610d51565b915061174b83610d51565b925082820190508082111561176357611762611706565b5b92915050565b7f496e616374697665000000000000000000000000000000000000000000000000600082015250565b600061179f60088361117c565b91506117aa82611769565b602082019050919050565b600060208201905081810360008301526117ce81611792565b9050919050565b7f496e76616c696420454d49000000000000000000000000000000000000000000600082015250565b600061180b600b8361117c565b9150611816826117d5565b602082019050919050565b6000602082019050818103600083015261183a816117fe565b9050919050565b7f4d696e2036307300000000000000000000000000000000000000000000000000600082015250565b600061187760078361117c565b915061188282611841565b602082019050919050565b600060208201905081810360008301526118a68161186a565b9050919050565b7f546f74616c203c20454d49000000000000000000000000000000000000000000600082015250565b60006118e3600b8361117c565b91506118ee826118ad565b602082019050919050565b60006020820190508181036000830152611912816118d6565b9050919050565b600061192482610d51565b91507fffffffffffffffffffffffffffffffffffffffffffffffffffffffffffffffff820361195657611955611706565b5b600182019050919050565b7f5265656e7472616e637947756172643a207265656e7472616e742063616c6c00600082015250565b6000611997601f8361117c565b91506119a282611961565b602082019050919050565b600060208201905081810360008301526119c68161198a565b905091905056fea2646970667358221220c051e29a9d6a640f54fa1c9046e4524ee61fc04523dbb6d5852001a35bed3f0464736f6c63430008140033",
  "linkReferences": {},
  "deployedLinkReferences": {}
}