{
  "_format": "hh-sol-artifact-1",
  "contractName": "EmiAutoPay",
  "sourceName": "contracts/EmiAutoPay.sol",
  "abi": [
    {
      "anonymous": false,
      "inputs": [
        {
          "indexed": true,
          "internalType": "uint256",
          "name": "planId",
          "type": "uint256"
        },
        {
          "indexed": true,
          "internalType": "address",
          "name": "receiver",
          "type": "address"
        }
      ],
      "name": "EmiCompleted",
      "type": "event"
    },
    {
      "anonymous": false,
      "inputs": [
        {
          "indexed": true,
          "internalType": "uint256",
          "name": "planId",
          "type": "uint256"
        },
        {
          "indexed": true,
          "internalType": "address",
          "name": "receiver",
          "type": "address"
        },
        {
          "indexed": false,
          "internalType": "uint256",
          "name": "amount",
          "type": "uint256"
        },
        {
          "indexed": false,
          "internalType": "uint256",
          "name": "nextPaymentTime",
          "type": "uint256"
        }
      ],
      "name": "EmiPaid",
      "type": "event"
    },
    {
      "anonymous": false,
      "inputs": [
        {
          "indexed": true,
          "internalType": "uint256",
          "name": "planId",
          "type": "uint256"
        },
        {
          "indexed": true,
          "internalType": "address",
          "name": "receiver",
          "type": "address"
        },
        {
          "indexed": false,
          "internalType": "string",
          "name": "receiverNetwork",
          "type": "string"
        },
        {
          "indexed": false,
          "internalType": "address",
          "name": "tokenAddress",
          "type": "address"
        },
        {
          "indexed": false,
          "internalType": "uint256",
          "name": "emiAmount",
          "type": "uint256"
        },
        {
          "indexed": false,
          "internalType": "uint256",
          "name": "interval",
          "type": "uint256"
        },
        {
          "indexed": false,
          "internalType": "uint256",
          "name": "totalAmount",
          "type": "uint256"
        }
      ],
      "name": "EmiPlanCreated",
      "type": "event"
    },
    {
      "anonymous": false,
      "inputs": [
        {
          "indexed": true,
          "internalType": "uint256",
          "name": "planId",
          "type": "uint256"
        },
        {
          "indexed": true,
          "internalType": "address",
          "name": "sender",
          "type": "address"
        }
      ],
      "name": "PlanActivated",
      "type": "event"
    },
    {
      "inputs": [
        {
          "internalType": "uint256",
          "name": "planId",
          "type": "uint256"
        },
        {
          "internalType": "address",
          "name": "sender",
          "type": "address"
        }
      ],
      "name": "activatePlan",
      "outputs": [],
      "stateMutability": "nonpayable",
      "type": "function"
    },
    {
      "inputs": [
        {
          "internalType": "bytes",
          "name": "",
          "type": "bytes"
        }
      ],
      "name": "checkUpkeep",
      "outputs": [
        {
          "internalType": "bool",
          "name": "upkeepNeeded",
          "type": "bool"
        },
        {
          "internalType": "bytes",
          "name": "",
          "type": "bytes"
        }
      ],
      "stateMutability": "view",
      "type": "function"
    },
    {
      "inputs": [
        {
          "internalType": "address",
          "name": "receiver",
          "type": "address"
        },
        {
          "internalType": "string",
          "name": "receiverNetwork",
          "type": "string"
        },
        {
          "internalType": "address",
          "name": "tokenAddress",
          "type": "address"
        },
        {
          "internalType": "uint256",
          "name": "emiAmount",
          "type": "uint256"
        },
        {
          "internalType": "uint256",
          "name": "interval",
          "type": "uint256"
        },
        {
          "internalType": "uint256",
          "name": "totalAmount",
          "type": "uint256"
        }
      ],
      "name": "createEmiPlan",
      "outputs": [],
      "stateMutability": "nonpayable",
      "type": "function"
    },
    {
      "inputs": [
        {
          "internalType": "bytes",
          "name": "performData",
          "type": "bytes"
        }
      ],
      "name": "performUpkeep",
      "outputs": [],
      "stateMutability": "nonpayable",
      "type": "function"
    },
    {
      "inputs": [],
      "name": "planCounter",
      "outputs": [
        {
          "internalType": "uint256",
          "name": "",
          "type": "uint256"
        }
      ],
      "stateMutability": "view",
      "type": "function"
    },
    {
      "inputs": [
        {
          "internalType": "uint256",
          "name": "",
          "type": "uint256"
        }
      ],
      "name": "plans",
      "outputs": [
        {
          "internalType": "address",
          "name": "sender",
          "type": "address"
        },
        {
          "internalType": "address",
          "name": "receiver",
          "type": "address"
        },
        {
          "internalType": "string",
          "name": "receiverNetwork",
          "type": "string"
        },
        {
          "internalType": "address",
          "name": "tokenAddress",
          "type": "address"
        },
        {
          "internalType": "uint256",
          "name": "emiAmount",
          "type": "uint256"
        },
        {
          "internalType": "uint256",
          "name": "interval",
          "type": "uint256"
        },
        {
          "internalType": "uint256",
          "name": "totalAmount",
          "type": "uint256"
        },
        {
          "internalType": "uint256",
          "name": "amountPaid",
          "type": "uint256"
        },
        {
          "internalType": "uint256",
          "name": "nextPaymentTime",
          "type": "uint256"
        },
        {
          "internalType": "bool",
          "name": "isActive",
          "type": "bool"
        }
      ],
      "stateMutability": "view",
      "type": "function"
    }
  ],
  "bytecode": "0x608060405234801561001057600080fd5b506001600081905550611ef8806100286000396000f3fe608060405234801561001057600080fd5b50600436106100625760003560e01c80634585e33b146100675780634c8cb614146100835780636e04ff0d1461009f578063a36a38ed146100d0578063b1620616146100ee578063c16c79f214610127575b600080fd5b610081600480360381019061007c9190610f5d565b610143565b005b61009d6004803603810190610098919061117f565b6104a1565b005b6100b960048036038101906100b49190610f5d565b6108a7565b6040516100c79291906112c2565b60405180910390f35b6100d8610b10565b6040516100e59190611301565b60405180910390f35b6101086004803603810190610103919061131c565b610b16565b60405161011e9a999897969594939291906113ad565b60405180910390f35b610141600480360381019061013c9190611450565b610c5f565b005b61014b610e8b565b6000828281019061015c919061131c565b905060006002600083815260200190815260200160002090508060090160009054906101000a900460ff166101c6576040517f08c379a00000000000000000000000000000000000000000000000000000000081526004016101bd906114dc565b60405180910390fd5b806008015442101561020d576040517f08c379a000000000000000000000000000000000000000000000000000000000815260040161020490611548565b60405180910390fd5b60008160030160009054906101000a900473ffffffffffffffffffffffffffffffffffffffff1690508073ffffffffffffffffffffffffffffffffffffffff166323b872dd8360000160009054906101000a900473ffffffffffffffffffffffffffffffffffffffff168460010160009054906101000a900473ffffffffffffffffffffffffffffffffffffffff1685600401546040518463ffffffff1660e01b81526004016102bf93929190611568565b6020604051808303816000875af11580156102de573d6000803e3d6000fd5b505050506040513d601f19601f8201168201806040525081019061030291906115cb565b610341576040517f08c379a000000000000000000000000000000000000000000000000000000000815260040161033890611644565b60405180910390fd5b81600401548260070160008282546103599190611693565b9250508190555081600601548260070154106103fc5760008260090160006101000a81548160ff0219169083151502179055508160010160009054906101000a900473ffffffffffffffffffffffffffffffffffffffff1673ffffffffffffffffffffffffffffffffffffffff16837fa3bab362c56d9c72948ee10e56218f16c5fa98dc088e4da691faa012cd16dc8560405160405180910390a3505050610495565b81600501544261040c9190611693565b82600801819055508160010160009054906101000a900473ffffffffffffffffffffffffffffffffffffffff1673ffffffffffffffffffffffffffffffffffffffff16837f8ab83c4430024635edd71fef5c6913522144cac183fecf278259ca65d355b779846004015485600801546040516104899291906116c7565b60405180910390a35050505b61049d610eda565b5050565b600073ffffffffffffffffffffffffffffffffffffffff168673ffffffffffffffffffffffffffffffffffffffff1603610510576040517f08c379a00000000000000000000000000000000000000000000000000000000081526004016105079061173c565b60405180910390fd5b600073ffffffffffffffffffffffffffffffffffffffff168473ffffffffffffffffffffffffffffffffffffffff160361057f576040517f08c379a0000000000000000000000000000000000000000000000000000000008152600401610576906117a8565b60405180910390fd5b600083116105c2576040517f08c379a00000000000000000000000000000000000000000000000000000000081526004016105b990611814565b60405180910390fd5b82811015610605576040517f08c379a00000000000000000000000000000000000000000000000000000000081526004016105fc90611880565b60405180910390fd5b603c821015610649576040517f08c379a0000000000000000000000000000000000000000000000000000000008152600401610640906118ec565b60405180910390fd5b6001600081548092919061065c9061190c565b9190505550604051806101400160405280600073ffffffffffffffffffffffffffffffffffffffff1681526020018773ffffffffffffffffffffffffffffffffffffffff1681526020018681526020018573ffffffffffffffffffffffffffffffffffffffff16815260200184815260200183815260200182815260200160008152602001600081526020016000151581525060026000600154815260200190815260200160002060008201518160000160006101000a81548173ffffffffffffffffffffffffffffffffffffffff021916908373ffffffffffffffffffffffffffffffffffffffff16021790555060208201518160010160006101000a81548173ffffffffffffffffffffffffffffffffffffffff021916908373ffffffffffffffffffffffffffffffffffffffff16021790555060408201518160020190816107a79190611b60565b5060608201518160030160006101000a81548173ffffffffffffffffffffffffffffffffffffffff021916908373ffffffffffffffffffffffffffffffffffffffff1602179055506080820151816004015560a0820151816005015560c0820151816006015560e0820151816007015561010082015181600801556101208201518160090160006101000a81548160ff0219169083151502179055509050508573ffffffffffffffffffffffffffffffffffffffff166001547feb60d1b76e681363ef82e8588496a2097279e71f177d8817dda75669ccfbd43f8787878787604051610897959493929190611c32565b60405180910390a3505050505050565b600060606000600190505b6001548111610af15760006002600083815260200190815260200160002090508060090160009054906101000a900460ff1680156108f7575080600601548160070154105b8015610907575080600801544210155b80156109da575080600401548160030160009054906101000a900473ffffffffffffffffffffffffffffffffffffffff1673ffffffffffffffffffffffffffffffffffffffff1663dd62ed3e8360000160009054906101000a900473ffffffffffffffffffffffffffffffffffffffff16306040518363ffffffff1660e01b8152600401610996929190611c8c565b602060405180830381865afa1580156109b3573d6000803e3d6000fd5b505050506040513d601f19601f820116820180604052508101906109d79190611cca565b10155b8015610aab575080600401548160030160009054906101000a900473ffffffffffffffffffffffffffffffffffffffff1673ffffffffffffffffffffffffffffffffffffffff166370a082318360000160009054906101000a900473ffffffffffffffffffffffffffffffffffffffff166040518263ffffffff1660e01b8152600401610a679190611cf7565b602060405180830381865afa158015610a84573d6000803e3d6000fd5b505050506040513d601f19601f82011682018060405250810190610aa89190611cca565b10155b15610add57600182604051602001610ac39190611301565b604051602081830303815290604052935093505050610b09565b508080610ae99061190c565b9150506108b2565b50600060405180602001604052806000815250915091505b9250929050565b60015481565b60026020528060005260406000206000915090508060000160009054906101000a900473ffffffffffffffffffffffffffffffffffffffff16908060010160009054906101000a900473ffffffffffffffffffffffffffffffffffffffff1690806002018054610b8590611983565b80601f0160208091040260200160405190810160405280929190818152602001828054610bb190611983565b8015610bfe5780601f10610bd357610100808354040283529160200191610bfe565b820191906000526020600020905b815481529060010190602001808311610be157829003601f168201915b5050505050908060030160009054906101000a900473ffffffffffffffffffffffffffffffffffffffff16908060040154908060050154908060060154908060070154908060080154908060090160009054906101000a900460ff1690508a565b60006002600084815260200190815260200160002090508060090160009054906101000a900460ff1615610cc8576040517f08c379a0000000000000000000000000000000000000000000000000000000008152600401610cbf90611d5e565b60405180910390fd5b600073ffffffffffffffffffffffffffffffffffffffff168160000160009054906101000a900473ffffffffffffffffffffffffffffffffffffffff1673ffffffffffffffffffffffffffffffffffffffff1614610d5b576040517f08c379a0000000000000000000000000000000000000000000000000000000008152600401610d5290611dca565b60405180910390fd5b600073ffffffffffffffffffffffffffffffffffffffff168273ffffffffffffffffffffffffffffffffffffffff1603610dca576040517f08c379a0000000000000000000000000000000000000000000000000000000008152600401610dc190611e36565b60405180910390fd5b818160000160006101000a81548173ffffffffffffffffffffffffffffffffffffffff021916908373ffffffffffffffffffffffffffffffffffffffff16021790555060018160090160006101000a81548160ff021916908315150217905550806005015442610e3a9190611693565b81600801819055508173ffffffffffffffffffffffffffffffffffffffff16837f1f07c729fc76534d72c9e3ad0a792bf34de515a8aabc1a61bd40c2a2bd72ad8860405160405180910390a3505050565b600260005403610ed0576040517f08c379a0000000000000000000000000000000000000000000000000000000008152600401610ec790611ea2565b60405180910390fd5b6002600081905550565b6001600081905550565b6000604051905090565b600080fd5b600080fd5b600080fd5b600080fd5b600080fd5b60008083601f840112610f1d57610f1c610ef8565b5b8235905067ffffffffffffffff811115610f3a57610f39610efd565b5b602083019150836001820283011115610f5657610f55610f02565b5b9250929050565b60008060208385031215610f7457610f73610eee565b5b600083013567ffffffffffffffff811115610f9257610f91610ef3565b5b610f9e85828601610f07565b92509250509250929050565b600073ffffffffffffffffffffffffffffffffffffffff82169050919050565b6000610fd582610faa565b9050919050565b610fe581610fca565b8114610ff057600080fd5b50565b60008135905061100281610fdc565b92915050565b600080fd5b6000601f19601f8301169050919050565b7f4e487b7100000000000000000000000000000000000000000000000000000000600052604160045260246000fd5b6110568261100d565b810181811067ffffffffffffffff821117156110755761107461101e565b5b80604052505050565b6000611088610ee4565b9050611094828261104d565b919050565b600067ffffffffffffffff8211156110b4576110b361101e565b5b6110bd8261100d565b9050602081019050919050565b82818337600083830152505050565b60006110ec6110e784611099565b61107e565b90508281526020810184848401111561110857611107611008565b5b6111138482856110ca565b509392505050565b600082601f8301126111305761112f610ef8565b5b81356111408482602086016110d9565b91505092915050565b6000819050919050565b61115c81611149565b811461116757600080fd5b50565b60008135905061117981611153565b92915050565b60008060008060008060c0878903121561119c5761119b610eee565b5b60006111aa89828a01610ff3565b965050602087013567ffffffffffffffff8111156111cb576111ca610ef3565b5b6111d789828a0161111b565b95505060406111e889828a01610ff3565b94505060606111f989828a0161116a565b935050608061120a89828a0161116a565b92505060a061121b89828a0161116a565b9150509295509295509295565b60008115159050919050565b61123d81611228565b82525050565b600081519050919050565b600082825260208201905092915050565b60005b8381101561127d578082015181840152602081019050611262565b60008484015250505050565b600061129482611243565b61129e818561124e565b93506112ae81856020860161125f565b6112b78161100d565b840191505092915050565b60006040820190506112d76000830185611234565b81810360208301526112e98184611289565b90509392505050565b6112fb81611149565b82525050565b600060208201905061131660008301846112f2565b92915050565b60006020828403121561133257611331610eee565b5b60006113408482850161116a565b91505092915050565b61135281610fca565b82525050565b600081519050919050565b600082825260208201905092915050565b600061137f82611358565b6113898185611363565b935061139981856020860161125f565b6113a28161100d565b840191505092915050565b6000610140820190506113c3600083018d611349565b6113d0602083018c611349565b81810360408301526113e2818b611374565b90506113f1606083018a611349565b6113fe60808301896112f2565b61140b60a08301886112f2565b61141860c08301876112f2565b61142560e08301866112f2565b6114336101008301856112f2565b611441610120830184611234565b9b9a5050505050505050505050565b6000806040838503121561146757611466610eee565b5b60006114758582860161116a565b925050602061148685828601610ff3565b9150509250929050565b7f506c616e20696e61637469766500000000000000000000000000000000000000600082015250565b60006114c6600d83611363565b91506114d182611490565b602082019050919050565b600060208201905081810360008301526114f5816114b9565b9050919050565b7f546f6f206561726c790000000000000000000000000000000000000000000000600082015250565b6000611532600983611363565b915061153d826114fc565b602082019050919050565b6000602082019050818103600083015261156181611525565b9050919050565b600060608201905061157d6000830186611349565b61158a6020830185611349565b61159760408301846112f2565b949350505050565b6115a881611228565b81146115b357600080fd5b50565b6000815190506115c58161159f565b92915050565b6000602082840312156115e1576115e0610eee565b5b60006115ef848285016115b6565b91505092915050565b7f5472616e73666572206661696c65640000000000000000000000000000000000600082015250565b600061162e600f83611363565b9150611639826115f8565b602082019050919050565b6000602082019050818103600083015261165d81611621565b9050919050565b7f4e487b7100000000000000000000000000000000000000000000000000000000600052601160045260246000fd5b600061169e82611149565b91506116a983611149565b92508282019050808211156116c1576116c0611664565b5b92915050565b60006040820190506116dc60008301856112f2565b6116e960208301846112f2565b9392505050565b7f496e76616c696420726563656976657200000000000000000000000000000000600082015250565b6000611726601083611363565b9150611731826116f0565b602082019050919050565b6000602082019050818103600083015261175581611719565b9050919050565b7f496e76616c696420746f6b656e00000000000000000000000000000000000000600082015250565b6000611792600d83611363565b915061179d8261175c565b602082019050919050565b600060208201905081810360008301526117c181611785565b9050919050565b7f496e76616c696420454d49000000000000000000000000000000000000000000600082015250565b60006117fe600b83611363565b9150611809826117c8565b602082019050919050565b6000602082019050818103600083015261182d816117f1565b9050919050565b7f546f74616c203c20454d49000000000000000000000000000000000000000000600082015250565b600061186a600b83611363565b915061187582611834565b602082019050919050565b600060208201905081810360008301526118998161185d565b9050919050565b7f496e74657276616c203e3d2031206d696e757465000000000000000000000000600082015250565b60006118d6601483611363565b91506118e1826118a0565b602082019050919050565b60006020820190508181036000830152611905816118c9565b9050919050565b600061191782611149565b91507fffffffffffffffffffffffffffffffffffffffffffffffffffffffffffffffff820361194957611948611664565b5b600182019050919050565b7f4e487b7100000000000000000000000000000000000000000000000000000000600052602260045260246000fd5b6000600282049050600182168061199b57607f821691505b6020821081036119ae576119ad611954565b5b50919050565b60008190508160005260206000209050919050565b60006020601f8301049050919050565b600082821b905092915050565b600060088302611a167fffffffffffffffffffffffffffffffffffffffffffffffffffffffffffffffff826119d9565b611a2086836119d9565b95508019841693508086168417925050509392505050565b6000819050919050565b6000611a5d611a58611a5384611149565b611a38565b611149565b9050919050565b6000819050919050565b611a7783611a42565b611a8b611a8382611a64565b8484546119e6565b825550505050565b600090565b611aa0611a93565b611aab818484611a6e565b505050565b5b81811015611acf57611ac4600082611a98565b600181019050611ab1565b5050565b601f821115611b1457611ae5816119b4565b611aee846119c9565b81016020851015611afd578190505b611b11611b09856119c9565b830182611ab0565b50505b505050565b600082821c905092915050565b6000611b3760001984600802611b19565b1980831691505092915050565b6000611b508383611b26565b9150826002028217905092915050565b611b6982611358565b67ffffffffffffffff811115611b8257611b8161101e565b5b611b8c8254611983565b611b97828285611ad3565b600060209050601f831160018114611bca5760008415611bb8578287015190505b611bc28582611b44565b865550611c2a565b601f198416611bd8866119b4565b60005b82811015611c0057848901518255600182019150602085019450602081019050611bdb565b86831015611c1d5784890151611c19601f891682611b26565b8355505b6001600288020188555050505b505050505050565b600060a0820190508181036000830152611c4c8188611374565b9050611c5b6020830187611349565b611c6860408301866112f2565b611c7560608301856112f2565b611c8260808301846112f2565b9695505050505050565b6000604082019050611ca16000830185611349565b611cae6020830184611349565b9392505050565b600081519050611cc481611153565b92915050565b600060208284031215611ce057611cdf610eee565b5b6000611cee84828501611cb5565b91505092915050565b6000602082019050611d0c6000830184611349565b92915050565b7f416c726561647920616374697665000000000000000000000000000000000000600082015250565b6000611d48600e83611363565b9150611d5382611d12565b602082019050919050565b60006020820190508181036000830152611d7781611d3b565b9050919050565b7f53656e64657220616c7265616479206c6f636b65640000000000000000000000600082015250565b6000611db4601583611363565b9150611dbf82611d7e565b602082019050919050565b60006020820190508181036000830152611de381611da7565b9050919050565b7f496e76616c69642073656e646572000000000000000000000000000000000000600082015250565b6000611e20600e83611363565b9150611e2b82611dea565b602082019050919050565b60006020820190508181036000830152611e4f81611e13565b9050919050565b7f5265656e7472616e637947756172643a207265656e7472616e742063616c6c00600082015250565b6000611e8c601f83611363565b9150611e9782611e56565b602082019050919050565b60006020820190508181036000830152611ebb81611e7f565b905091905056fea26469706673582212206d881d4cf40e7da148e05d5fa465e0089e2744589cd425110b71240bd3e1ff0b64736f6c63430008140033",
  "linkReferences": {},
  "deployedLinkReferences": {}
}