{
  "_format": "hh-sol-artifact-1",
  "contractName": "EmiAutoPay",
  "sourceName": "contracts/EmiAutoPay.sol",
  "abi": [
    {
      "anonymous": false,
      "inputs": [
        {
          "indexed": true,
          "internalType": "address",
          "name": "sender",
          "type": "address"
        },
        {
          "indexed": false,
          "internalType": "uint256",
          "name": "amount",
          "type": "uint256"
        }
      ],
      "name": "DepositMade",
      "type": "event"
    },
    {
      "anonymous": false,
      "inputs": [
        {
          "indexed": true,
          "internalType": "address",
          "name": "receiver",
          "type": "address"
        }
      ],
      "name": "EmiCompleted",
      "type": "event"
    },
    {
      "anonymous": false,
      "inputs": [
        {
          "indexed": true,
          "internalType": "address",
          "name": "receiver",
          "type": "address"
        },
        {
          "indexed": false,
          "internalType": "uint256",
          "name": "amount",
          "type": "uint256"
        },
        {
          "indexed": false,
          "internalType": "uint256",
          "name": "nextPaymentTime",
          "type": "uint256"
        }
      ],
      "name": "EmiPaid",
      "type": "event"
    },
    {
      "anonymous": false,
      "inputs": [
        {
          "indexed": true,
          "internalType": "address",
          "name": "sender",
          "type": "address"
        },
        {
          "indexed": true,
          "internalType": "address",
          "name": "receiver",
          "type": "address"
        },
        {
          "indexed": false,
          "internalType": "uint256",
          "name": "emiAmount",
          "type": "uint256"
        },
        {
          "indexed": false,
          "internalType": "uint256",
          "name": "interval",
          "type": "uint256"
        },
        {
          "indexed": false,
          "internalType": "uint256",
          "name": "totalAmount",
          "type": "uint256"
        }
      ],
      "name": "EmiPlanCreated",
      "type": "event"
    },
    {
      "anonymous": false,
      "inputs": [
        {
          "indexed": true,
          "internalType": "address",
          "name": "previousOwner",
          "type": "address"
        },
        {
          "indexed": true,
          "internalType": "address",
          "name": "newOwner",
          "type": "address"
        }
      ],
      "name": "OwnershipTransferred",
      "type": "event"
    },
    {
      "inputs": [
        {
          "internalType": "bytes",
          "name": "",
          "type": "bytes"
        }
      ],
      "name": "checkUpkeep",
      "outputs": [
        {
          "internalType": "bool",
          "name": "upkeepNeeded",
          "type": "bool"
        },
        {
          "internalType": "bytes",
          "name": "",
          "type": "bytes"
        }
      ],
      "stateMutability": "view",
      "type": "function"
    },
    {
      "inputs": [
        {
          "internalType": "address",
          "name": "receiver",
          "type": "address"
        },
        {
          "internalType": "uint256",
          "name": "emiAmount",
          "type": "uint256"
        },
        {
          "internalType": "uint256",
          "name": "interval",
          "type": "uint256"
        },
        {
          "internalType": "uint256",
          "name": "totalAmount",
          "type": "uint256"
        }
      ],
      "name": "createEmiPlan",
      "outputs": [],
      "stateMutability": "nonpayable",
      "type": "function"
    },
    {
      "inputs": [],
      "name": "depositFunds",
      "outputs": [],
      "stateMutability": "payable",
      "type": "function"
    },
    {
      "inputs": [],
      "name": "getContractBalance",
      "outputs": [
        {
          "internalType": "uint256",
          "name": "",
          "type": "uint256"
        }
      ],
      "stateMutability": "view",
      "type": "function"
    },
    {
      "inputs": [
        {
          "internalType": "address",
          "name": "s",
          "type": "address"
        }
      ],
      "name": "getSenderDeposit",
      "outputs": [
        {
          "internalType": "uint256",
          "name": "",
          "type": "uint256"
        }
      ],
      "stateMutability": "view",
      "type": "function"
    },
    {
      "inputs": [],
      "name": "owner",
      "outputs": [
        {
          "internalType": "address",
          "name": "",
          "type": "address"
        }
      ],
      "stateMutability": "view",
      "type": "function"
    },
    {
      "inputs": [
        {
          "internalType": "bytes",
          "name": "",
          "type": "bytes"
        }
      ],
      "name": "performUpkeep",
      "outputs": [],
      "stateMutability": "nonpayable",
      "type": "function"
    },
    {
      "inputs": [],
      "name": "plan",
      "outputs": [
        {
          "internalType": "address",
          "name": "sender",
          "type": "address"
        },
        {
          "internalType": "address",
          "name": "receiver",
          "type": "address"
        },
        {
          "internalType": "uint256",
          "name": "emiAmount",
          "type": "uint256"
        },
        {
          "internalType": "uint256",
          "name": "interval",
          "type": "uint256"
        },
        {
          "internalType": "uint256",
          "name": "totalAmount",
          "type": "uint256"
        },
        {
          "internalType": "uint256",
          "name": "amountPaid",
          "type": "uint256"
        },
        {
          "internalType": "uint256",
          "name": "nextPaymentTime",
          "type": "uint256"
        },
        {
          "internalType": "bool",
          "name": "isActive",
          "type": "bool"
        }
      ],
      "stateMutability": "view",
      "type": "function"
    },
    {
      "inputs": [],
      "name": "renounceOwnership",
      "outputs": [],
      "stateMutability": "nonpayable",
      "type": "function"
    },
    {
      "inputs": [
        {
          "internalType": "address",
          "name": "",
          "type": "address"
        }
      ],
      "name": "senderDeposits",
      "outputs": [
        {
          "internalType": "uint256",
          "name": "",
          "type": "uint256"
        }
      ],
      "stateMutability": "view",
      "type": "function"
    },
    {
      "inputs": [
        {
          "internalType": "address",
          "name": "newOwner",
          "type": "address"
        }
      ],
      "name": "transferOwnership",
      "outputs": [],
      "stateMutability": "nonpayable",
      "type": "function"
    }
  ],
  "bytecode": "0x608060405234801561001057600080fd5b50600160008190555061003561002a61003a60201b60201c565b61004260201b60201c565b610108565b600033905090565b6000600160009054906101000a900473ffffffffffffffffffffffffffffffffffffffff16905081600160006101000a81548173ffffffffffffffffffffffffffffffffffffffff021916908373ffffffffffffffffffffffffffffffffffffffff1602179055508173ffffffffffffffffffffffffffffffffffffffff168173ffffffffffffffffffffffffffffffffffffffff167f8be0079c531659141344cd1fd0a4f28419497f9722a3daafe3b4186f6b6457e060405160405180910390a35050565b6116c7806101176000396000f3fe60806040526004361061009c5760003560e01c8063715018a611610064578063715018a6146101a25780638da5cb5b146101b9578063e2c41dbc146101e4578063e39a75c0146101ee578063eb7d730314610217578063f2fde38b146102545761009c565b806336a3294f146100a15780634585e33b146100de57806353e06571146101075780636e04ff0d146101395780636f9fb98a14610177575b600080fd5b3480156100ad57600080fd5b506100c860048036038101906100c39190610e6e565b61027d565b6040516100d59190610eb4565b60405180910390f35b3480156100ea57600080fd5b5061010560048036038101906101009190610f34565b610295565b005b34801561011357600080fd5b5061011c61058b565b604051610130989796959493929190610fab565b60405180910390f35b34801561014557600080fd5b50610160600480360381019061015b9190610f34565b61060e565b60405161016e9291906110b9565b60405180910390f35b34801561018357600080fd5b5061018c6106b3565b6040516101999190610eb4565b60405180910390f35b3480156101ae57600080fd5b506101b76106bb565b005b3480156101c557600080fd5b506101ce6106cf565b6040516101db91906110e9565b60405180910390f35b6101ec6106f9565b005b3480156101fa57600080fd5b5061021560048036038101906102109190611130565b610894565b005b34801561022357600080fd5b5061023e60048036038101906102399190610e6e565b610b95565b60405161024b9190610eb4565b60405180910390f35b34801561026057600080fd5b5061027b60048036038101906102769190610e6e565b610bde565b005b600a6020528060005260406000206000915090505481565b61029d610c61565b600260070160009054906101000a900460ff16801561032457506002800154600a6000600260000160009054906101000a900473ffffffffffffffffffffffffffffffffffffffff1673ffffffffffffffffffffffffffffffffffffffff1673ffffffffffffffffffffffffffffffffffffffff1681526020019081526020016000205410155b801561033557506002600601544210155b1561057e576002800154600a6000600260000160009054906101000a900473ffffffffffffffffffffffffffffffffffffffff1673ffffffffffffffffffffffffffffffffffffffff1673ffffffffffffffffffffffffffffffffffffffff16815260200190815260200160002060008282546103b291906111c6565b92505081905550600260010160009054906101000a900473ffffffffffffffffffffffffffffffffffffffff1673ffffffffffffffffffffffffffffffffffffffff166108fc60028001549081150290604051600060405180830381858888f19350505050158015610428573d6000803e3d6000fd5b5060028001546002600501600082825461044291906111fa565b92505081905550600260040154600260050154106104e5576000600260070160006101000a81548160ff021916908315150217905550600260010160009054906101000a900473ffffffffffffffffffffffffffffffffffffffff1673ffffffffffffffffffffffffffffffffffffffff167f209d75a7c13fb985ae4710a4c74a4d6886d9de5c7dc6e3a98959de78fb2dc30e60405160405180910390a261057f565b600260030154426104f691906111fa565b600260060181905550600260010160009054906101000a900473ffffffffffffffffffffffffffffffffffffffff1673ffffffffffffffffffffffffffffffffffffffff167faf7a1863671a8f6c36d7e2a2c5b80375b21bffe316b06d9a7cbd36f0bb004f5b600280015460026006015460405161057592919061122e565b60405180910390a25b5b610587610cb0565b5050565b60028060000160009054906101000a900473ffffffffffffffffffffffffffffffffffffffff16908060010160009054906101000a900473ffffffffffffffffffffffffffffffffffffffff16908060020154908060030154908060040154908060050154908060060154908060070160009054906101000a900460ff16905088565b60006060600260070160009054906101000a900460ff16801561069957506002800154600a6000600260000160009054906101000a900473ffffffffffffffffffffffffffffffffffffffff1673ffffffffffffffffffffffffffffffffffffffff1673ffffffffffffffffffffffffffffffffffffffff1681526020019081526020016000205410155b80156106aa57506002600601544210155b91509250929050565b600047905090565b6106c3610cba565b6106cd6000610d38565b565b6000600160009054906101000a900473ffffffffffffffffffffffffffffffffffffffff16905090565b610701610c61565b600260070160009054906101000a900460ff16610753576040517f08c379a000000000000000000000000000000000000000000000000000000000815260040161074a906112b4565b60405180910390fd5b600260000160009054906101000a900473ffffffffffffffffffffffffffffffffffffffff1673ffffffffffffffffffffffffffffffffffffffff163373ffffffffffffffffffffffffffffffffffffffff16146107e6576040517f08c379a00000000000000000000000000000000000000000000000000000000081526004016107dd90611320565b60405180910390fd5b34600a60003373ffffffffffffffffffffffffffffffffffffffff1673ffffffffffffffffffffffffffffffffffffffff168152602001908152602001600020600082825461083591906111fa565b925050819055503373ffffffffffffffffffffffffffffffffffffffff167fd15c9547ea5c06670c0010ce19bc32d54682a4b3801ece7f3ab0c3f17106b4bb346040516108829190610eb4565b60405180910390a2610892610cb0565b565b600073ffffffffffffffffffffffffffffffffffffffff168473ffffffffffffffffffffffffffffffffffffffff1603610903576040517f08c379a00000000000000000000000000000000000000000000000000000000081526004016108fa9061138c565b60405180910390fd5b60008311610946576040517f08c379a000000000000000000000000000000000000000000000000000000000815260040161093d906113f8565b60405180910390fd5b828111610988576040517f08c379a000000000000000000000000000000000000000000000000000000000815260040161097f90611464565b60405180910390fd5b603c8210156109cc576040517f08c379a00000000000000000000000000000000000000000000000000000000081526004016109c3906114d0565b60405180910390fd5b6040518061010001604052803373ffffffffffffffffffffffffffffffffffffffff1681526020018573ffffffffffffffffffffffffffffffffffffffff168152602001848152602001838152602001828152602001600081526020018342610a3591906111fa565b815260200160011515815250600260008201518160000160006101000a81548173ffffffffffffffffffffffffffffffffffffffff021916908373ffffffffffffffffffffffffffffffffffffffff16021790555060208201518160010160006101000a81548173ffffffffffffffffffffffffffffffffffffffff021916908373ffffffffffffffffffffffffffffffffffffffff16021790555060408201518160020155606082015181600301556080820151816004015560a0820151816005015560c0820151816006015560e08201518160070160006101000a81548160ff0219169083151502179055509050508373ffffffffffffffffffffffffffffffffffffffff163373ffffffffffffffffffffffffffffffffffffffff167f41bdf00c0aa2fdb18b9bbb4e27d6806c81121d7b17508e48909e0ec15e72135c858585604051610b87939291906114f0565b60405180910390a350505050565b6000600a60008373ffffffffffffffffffffffffffffffffffffffff1673ffffffffffffffffffffffffffffffffffffffff168152602001908152602001600020549050919050565b610be6610cba565b600073ffffffffffffffffffffffffffffffffffffffff168173ffffffffffffffffffffffffffffffffffffffff1603610c55576040517f08c379a0000000000000000000000000000000000000000000000000000000008152600401610c4c90611599565b60405180910390fd5b610c5e81610d38565b50565b600260005403610ca6576040517f08c379a0000000000000000000000000000000000000000000000000000000008152600401610c9d90611605565b60405180910390fd5b6002600081905550565b6001600081905550565b610cc2610dfe565b73ffffffffffffffffffffffffffffffffffffffff16610ce06106cf565b73ffffffffffffffffffffffffffffffffffffffff1614610d36576040517f08c379a0000000000000000000000000000000000000000000000000000000008152600401610d2d90611671565b60405180910390fd5b565b6000600160009054906101000a900473ffffffffffffffffffffffffffffffffffffffff16905081600160006101000a81548173ffffffffffffffffffffffffffffffffffffffff021916908373ffffffffffffffffffffffffffffffffffffffff1602179055508173ffffffffffffffffffffffffffffffffffffffff168173ffffffffffffffffffffffffffffffffffffffff167f8be0079c531659141344cd1fd0a4f28419497f9722a3daafe3b4186f6b6457e060405160405180910390a35050565b600033905090565b600080fd5b600080fd5b600073ffffffffffffffffffffffffffffffffffffffff82169050919050565b6000610e3b82610e10565b9050919050565b610e4b81610e30565b8114610e5657600080fd5b50565b600081359050610e6881610e42565b92915050565b600060208284031215610e8457610e83610e06565b5b6000610e9284828501610e59565b91505092915050565b6000819050919050565b610eae81610e9b565b82525050565b6000602082019050610ec96000830184610ea5565b92915050565b600080fd5b600080fd5b600080fd5b60008083601f840112610ef457610ef3610ecf565b5b8235905067ffffffffffffffff811115610f1157610f10610ed4565b5b602083019150836001820283011115610f2d57610f2c610ed9565b5b9250929050565b60008060208385031215610f4b57610f4a610e06565b5b600083013567ffffffffffffffff811115610f6957610f68610e0b565b5b610f7585828601610ede565b92509250509250929050565b610f8a81610e30565b82525050565b60008115159050919050565b610fa581610f90565b82525050565b600061010082019050610fc1600083018b610f81565b610fce602083018a610f81565b610fdb6040830189610ea5565b610fe86060830188610ea5565b610ff56080830187610ea5565b61100260a0830186610ea5565b61100f60c0830185610ea5565b61101c60e0830184610f9c565b9998505050505050505050565b600081519050919050565b600082825260208201905092915050565b60005b83811015611063578082015181840152602081019050611048565b60008484015250505050565b6000601f19601f8301169050919050565b600061108b82611029565b6110958185611034565b93506110a5818560208601611045565b6110ae8161106f565b840191505092915050565b60006040820190506110ce6000830185610f9c565b81810360208301526110e08184611080565b90509392505050565b60006020820190506110fe6000830184610f81565b92915050565b61110d81610e9b565b811461111857600080fd5b50565b60008135905061112a81611104565b92915050565b6000806000806080858703121561114a57611149610e06565b5b600061115887828801610e59565b94505060206111698782880161111b565b935050604061117a8782880161111b565b925050606061118b8782880161111b565b91505092959194509250565b7f4e487b7100000000000000000000000000000000000000000000000000000000600052601160045260246000fd5b60006111d182610e9b565b91506111dc83610e9b565b92508282039050818111156111f4576111f3611197565b5b92915050565b600061120582610e9b565b915061121083610e9b565b925082820190508082111561122857611227611197565b5b92915050565b60006040820190506112436000830185610ea5565b6112506020830184610ea5565b9392505050565b600082825260208201905092915050565b7f4e6f2061637469766520706c616e000000000000000000000000000000000000600082015250565b600061129e600e83611257565b91506112a982611268565b602082019050919050565b600060208201905081810360008301526112cd81611291565b9050919050565b7f4e6f7420454d492073656e646572000000000000000000000000000000000000600082015250565b600061130a600e83611257565b9150611315826112d4565b602082019050919050565b60006020820190508181036000830152611339816112fd565b9050919050565b7f496e76616c696420726563656976657200000000000000000000000000000000600082015250565b6000611376601083611257565b915061138182611340565b602082019050919050565b600060208201905081810360008301526113a581611369565b9050919050565b7f496e76616c696420454d49000000000000000000000000000000000000000000600082015250565b60006113e2600b83611257565b91506113ed826113ac565b602082019050919050565b60006020820190508181036000830152611411816113d5565b9050919050565b7f546f74616c203c20454d49000000000000000000000000000000000000000000600082015250565b600061144e600b83611257565b915061145982611418565b602082019050919050565b6000602082019050818103600083015261147d81611441565b9050919050565b7f496e74657276616c20746f6f20736d616c6c0000000000000000000000000000600082015250565b60006114ba601283611257565b91506114c582611484565b602082019050919050565b600060208201905081810360008301526114e9816114ad565b9050919050565b60006060820190506115056000830186610ea5565b6115126020830185610ea5565b61151f6040830184610ea5565b949350505050565b7f4f776e61626c653a206e6577206f776e657220697320746865207a65726f206160008201527f6464726573730000000000000000000000000000000000000000000000000000602082015250565b6000611583602683611257565b915061158e82611527565b604082019050919050565b600060208201905081810360008301526115b281611576565b9050919050565b7f5265656e7472616e637947756172643a207265656e7472616e742063616c6c00600082015250565b60006115ef601f83611257565b91506115fa826115b9565b602082019050919050565b6000602082019050818103600083015261161e816115e2565b9050919050565b7f4f776e61626c653a2063616c6c6572206973206e6f7420746865206f776e6572600082015250565b600061165b602083611257565b915061166682611625565b602082019050919050565b6000602082019050818103600083015261168a8161164e565b905091905056fea26469706673582212205596e58ad008f3f4bc9ed4bd5ddec2714a92d1f4b0012e3619a1a3f31206850164736f6c63430008140033",
  "linkReferences": {},
  "deployedLinkReferences": {}
}