{
  "_format": "hh-sol-artifact-1",
  "contractName": "EmiAutoPay",
  "sourceName": "contracts/EmiAutoPay.sol",
  "abi": [
    {
      "anonymous": false,
      "inputs": [
        {
          "indexed": true,
          "internalType": "uint256",
          "name": "planId",
          "type": "uint256"
        },
        {
          "indexed": true,
          "internalType": "address",
          "name": "receiver",
          "type": "address"
        }
      ],
      "name": "EmiCompleted",
      "type": "event"
    },
    {
      "anonymous": false,
      "inputs": [
        {
          "indexed": true,
          "internalType": "uint256",
          "name": "planId",
          "type": "uint256"
        },
        {
          "indexed": true,
          "internalType": "address",
          "name": "receiver",
          "type": "address"
        },
        {
          "indexed": false,
          "internalType": "uint256",
          "name": "amount",
          "type": "uint256"
        },
        {
          "indexed": false,
          "internalType": "uint256",
          "name": "nextPaymentTime",
          "type": "uint256"
        }
      ],
      "name": "EmiPaid",
      "type": "event"
    },
    {
      "anonymous": false,
      "inputs": [
        {
          "indexed": true,
          "internalType": "uint256",
          "name": "planId",
          "type": "uint256"
        },
        {
          "indexed": true,
          "internalType": "address",
          "name": "receiver",
          "type": "address"
        },
        {
          "indexed": true,
          "internalType": "address",
          "name": "token",
          "type": "address"
        },
        {
          "indexed": false,
          "internalType": "uint256",
          "name": "emiAmount",
          "type": "uint256"
        },
        {
          "indexed": false,
          "internalType": "uint256",
          "name": "interval",
          "type": "uint256"
        },
        {
          "indexed": false,
          "internalType": "uint256",
          "name": "totalAmount",
          "type": "uint256"
        }
      ],
      "name": "EmiPlanCreated",
      "type": "event"
    },
    {
      "anonymous": false,
      "inputs": [
        {
          "indexed": true,
          "internalType": "uint256",
          "name": "planId",
          "type": "uint256"
        },
        {
          "indexed": true,
          "internalType": "address",
          "name": "sender",
          "type": "address"
        }
      ],
      "name": "PlanActivated",
      "type": "event"
    },
    {
      "inputs": [
        {
          "internalType": "uint256",
          "name": "planId",
          "type": "uint256"
        },
        {
          "internalType": "address",
          "name": "sender",
          "type": "address"
        }
      ],
      "name": "activatePlan",
      "outputs": [],
      "stateMutability": "nonpayable",
      "type": "function"
    },
    {
      "inputs": [
        {
          "internalType": "bytes",
          "name": "",
          "type": "bytes"
        }
      ],
      "name": "checkUpkeep",
      "outputs": [
        {
          "internalType": "bool",
          "name": "upkeepNeeded",
          "type": "bool"
        },
        {
          "internalType": "bytes",
          "name": "",
          "type": "bytes"
        }
      ],
      "stateMutability": "view",
      "type": "function"
    },
    {
      "inputs": [
        {
          "internalType": "address",
          "name": "receiver",
          "type": "address"
        },
        {
          "internalType": "address",
          "name": "token",
          "type": "address"
        },
        {
          "internalType": "uint256",
          "name": "emiAmount",
          "type": "uint256"
        },
        {
          "internalType": "uint256",
          "name": "interval",
          "type": "uint256"
        },
        {
          "internalType": "uint256",
          "name": "totalAmount",
          "type": "uint256"
        }
      ],
      "name": "createEmiPlan",
      "outputs": [],
      "stateMutability": "nonpayable",
      "type": "function"
    },
    {
      "inputs": [
        {
          "internalType": "bytes",
          "name": "performData",
          "type": "bytes"
        }
      ],
      "name": "performUpkeep",
      "outputs": [],
      "stateMutability": "nonpayable",
      "type": "function"
    },
    {
      "inputs": [],
      "name": "planCounter",
      "outputs": [
        {
          "internalType": "uint256",
          "name": "",
          "type": "uint256"
        }
      ],
      "stateMutability": "view",
      "type": "function"
    },
    {
      "inputs": [
        {
          "internalType": "uint256",
          "name": "",
          "type": "uint256"
        }
      ],
      "name": "plans",
      "outputs": [
        {
          "internalType": "address",
          "name": "sender",
          "type": "address"
        },
        {
          "internalType": "address",
          "name": "receiver",
          "type": "address"
        },
        {
          "internalType": "address",
          "name": "token",
          "type": "address"
        },
        {
          "internalType": "uint256",
          "name": "emiAmount",
          "type": "uint256"
        },
        {
          "internalType": "uint256",
          "name": "interval",
          "type": "uint256"
        },
        {
          "internalType": "uint256",
          "name": "totalAmount",
          "type": "uint256"
        },
        {
          "internalType": "uint256",
          "name": "amountPaid",
          "type": "uint256"
        },
        {
          "internalType": "uint256",
          "name": "nextPaymentTime",
          "type": "uint256"
        },
        {
          "internalType": "bool",
          "name": "isActive",
          "type": "bool"
        }
      ],
      "stateMutability": "view",
      "type": "function"
    }
  ],
  "bytecode": "0x608060405234801561001057600080fd5b50600160008190555061199b806100286000396000f3fe608060405234801561001057600080fd5b50600436106100625760003560e01c80634585e33b146100675780636e04ff0d1461008357806387226f3d146100b4578063a36a38ed146100d0578063b1620616146100ee578063c16c79f214610126575b600080fd5b610081600480360381019061007c9190610eb9565b610142565b005b61009d60048036038101906100989190610eb9565b6104a0565b6040516100ab929190610fb1565b60405180910390f35b6100ce60048036038101906100c99190611075565b610709565b005b6100d8610b04565b6040516100e591906110ff565b60405180910390f35b6101086004803603810190610103919061111a565b610b0a565b60405161011d99989796959493929190611156565b60405180910390f35b610140600480360381019061013b91906111e3565b610bc5565b005b61014a610df1565b6000828281019061015b919061111a565b905060006002600083815260200190815260200160002090508060080160009054906101000a900460ff166101c5576040517f08c379a00000000000000000000000000000000000000000000000000000000081526004016101bc90611280565b60405180910390fd5b806007015442101561020c576040517f08c379a0000000000000000000000000000000000000000000000000000000008152600401610203906112ec565b60405180910390fd5b60008160020160009054906101000a900473ffffffffffffffffffffffffffffffffffffffff1690508073ffffffffffffffffffffffffffffffffffffffff166323b872dd8360000160009054906101000a900473ffffffffffffffffffffffffffffffffffffffff168460010160009054906101000a900473ffffffffffffffffffffffffffffffffffffffff1685600301546040518463ffffffff1660e01b81526004016102be9392919061130c565b6020604051808303816000875af11580156102dd573d6000803e3d6000fd5b505050506040513d601f19601f82011682018060405250810190610301919061136f565b610340576040517f08c379a0000000000000000000000000000000000000000000000000000000008152600401610337906113e8565b60405180910390fd5b81600301548260060160008282546103589190611437565b9250508190555081600501548260060154106103fb5760008260080160006101000a81548160ff0219169083151502179055508160010160009054906101000a900473ffffffffffffffffffffffffffffffffffffffff1673ffffffffffffffffffffffffffffffffffffffff16837fa3bab362c56d9c72948ee10e56218f16c5fa98dc088e4da691faa012cd16dc8560405160405180910390a3505050610494565b81600401544261040b9190611437565b82600701819055508160010160009054906101000a900473ffffffffffffffffffffffffffffffffffffffff1673ffffffffffffffffffffffffffffffffffffffff16837f8ab83c4430024635edd71fef5c6913522144cac183fecf278259ca65d355b7798460030154856007015460405161048892919061146b565b60405180910390a35050505b61049c610e40565b5050565b600060606000600190505b60015481116106ea5760006002600083815260200190815260200160002090508060080160009054906101000a900460ff1680156104f0575080600501548160060154105b8015610500575080600701544210155b80156105d3575080600301548160020160009054906101000a900473ffffffffffffffffffffffffffffffffffffffff1673ffffffffffffffffffffffffffffffffffffffff1663dd62ed3e8360000160009054906101000a900473ffffffffffffffffffffffffffffffffffffffff16306040518363ffffffff1660e01b815260040161058f929190611494565b602060405180830381865afa1580156105ac573d6000803e3d6000fd5b505050506040513d601f19601f820116820180604052508101906105d091906114d2565b10155b80156106a4575080600301548160020160009054906101000a900473ffffffffffffffffffffffffffffffffffffffff1673ffffffffffffffffffffffffffffffffffffffff166370a082318360000160009054906101000a900473ffffffffffffffffffffffffffffffffffffffff166040518263ffffffff1660e01b815260040161066091906114ff565b602060405180830381865afa15801561067d573d6000803e3d6000fd5b505050506040513d601f19601f820116820180604052508101906106a191906114d2565b10155b156106d6576001826040516020016106bc91906110ff565b604051602081830303815290604052935093505050610702565b5080806106e29061151a565b9150506104ab565b50600060405180602001604052806000815250915091505b9250929050565b600073ffffffffffffffffffffffffffffffffffffffff168573ffffffffffffffffffffffffffffffffffffffff1603610778576040517f08c379a000000000000000000000000000000000000000000000000000000000815260040161076f906115ae565b60405180910390fd5b600073ffffffffffffffffffffffffffffffffffffffff168473ffffffffffffffffffffffffffffffffffffffff16036107e7576040517f08c379a00000000000000000000000000000000000000000000000000000000081526004016107de9061161a565b60405180910390fd5b6000831161082a576040517f08c379a000000000000000000000000000000000000000000000000000000000815260040161082190611686565b60405180910390fd5b8281101561086d576040517f08c379a0000000000000000000000000000000000000000000000000000000008152600401610864906116f2565b60405180910390fd5b603c8210156108b1576040517f08c379a00000000000000000000000000000000000000000000000000000000081526004016108a89061175e565b60405180910390fd5b600160008154809291906108c49061151a565b9190505550604051806101200160405280600073ffffffffffffffffffffffffffffffffffffffff1681526020018673ffffffffffffffffffffffffffffffffffffffff1681526020018573ffffffffffffffffffffffffffffffffffffffff16815260200184815260200183815260200182815260200160008152602001600081526020016000151581525060026000600154815260200190815260200160002060008201518160000160006101000a81548173ffffffffffffffffffffffffffffffffffffffff021916908373ffffffffffffffffffffffffffffffffffffffff16021790555060208201518160010160006101000a81548173ffffffffffffffffffffffffffffffffffffffff021916908373ffffffffffffffffffffffffffffffffffffffff16021790555060408201518160020160006101000a81548173ffffffffffffffffffffffffffffffffffffffff021916908373ffffffffffffffffffffffffffffffffffffffff160217905550606082015181600301556080820151816004015560a0820151816005015560c0820151816006015560e082015181600701556101008201518160080160006101000a81548160ff0219169083151502179055509050508373ffffffffffffffffffffffffffffffffffffffff168573ffffffffffffffffffffffffffffffffffffffff166001547fcdb984ec4074b487d3ab26bf1b6c708d5a85749749c4edbf56da8fdc902fd8a0868686604051610af59392919061177e565b60405180910390a45050505050565b60015481565b60026020528060005260406000206000915090508060000160009054906101000a900473ffffffffffffffffffffffffffffffffffffffff16908060010160009054906101000a900473ffffffffffffffffffffffffffffffffffffffff16908060020160009054906101000a900473ffffffffffffffffffffffffffffffffffffffff16908060030154908060040154908060050154908060060154908060070154908060080160009054906101000a900460ff16905089565b60006002600084815260200190815260200160002090508060080160009054906101000a900460ff1615610c2e576040517f08c379a0000000000000000000000000000000000000000000000000000000008152600401610c2590611801565b60405180910390fd5b600073ffffffffffffffffffffffffffffffffffffffff168160000160009054906101000a900473ffffffffffffffffffffffffffffffffffffffff1673ffffffffffffffffffffffffffffffffffffffff1614610cc1576040517f08c379a0000000000000000000000000000000000000000000000000000000008152600401610cb89061186d565b60405180910390fd5b600073ffffffffffffffffffffffffffffffffffffffff168273ffffffffffffffffffffffffffffffffffffffff1603610d30576040517f08c379a0000000000000000000000000000000000000000000000000000000008152600401610d27906118d9565b60405180910390fd5b818160000160006101000a81548173ffffffffffffffffffffffffffffffffffffffff021916908373ffffffffffffffffffffffffffffffffffffffff16021790555060018160080160006101000a81548160ff021916908315150217905550806004015442610da09190611437565b81600701819055508173ffffffffffffffffffffffffffffffffffffffff16837f1f07c729fc76534d72c9e3ad0a792bf34de515a8aabc1a61bd40c2a2bd72ad8860405160405180910390a3505050565b600260005403610e36576040517f08c379a0000000000000000000000000000000000000000000000000000000008152600401610e2d90611945565b60405180910390fd5b6002600081905550565b6001600081905550565b600080fd5b600080fd5b600080fd5b600080fd5b600080fd5b60008083601f840112610e7957610e78610e54565b5b8235905067ffffffffffffffff811115610e9657610e95610e59565b5b602083019150836001820283011115610eb257610eb1610e5e565b5b9250929050565b60008060208385031215610ed057610ecf610e4a565b5b600083013567ffffffffffffffff811115610eee57610eed610e4f565b5b610efa85828601610e63565b92509250509250929050565b60008115159050919050565b610f1b81610f06565b82525050565b600081519050919050565b600082825260208201905092915050565b60005b83811015610f5b578082015181840152602081019050610f40565b60008484015250505050565b6000601f19601f8301169050919050565b6000610f8382610f21565b610f8d8185610f2c565b9350610f9d818560208601610f3d565b610fa681610f67565b840191505092915050565b6000604082019050610fc66000830185610f12565b8181036020830152610fd88184610f78565b90509392505050565b600073ffffffffffffffffffffffffffffffffffffffff82169050919050565b600061100c82610fe1565b9050919050565b61101c81611001565b811461102757600080fd5b50565b60008135905061103981611013565b92915050565b6000819050919050565b6110528161103f565b811461105d57600080fd5b50565b60008135905061106f81611049565b92915050565b600080600080600060a0868803121561109157611090610e4a565b5b600061109f8882890161102a565b95505060206110b08882890161102a565b94505060406110c188828901611060565b93505060606110d288828901611060565b92505060806110e388828901611060565b9150509295509295909350565b6110f98161103f565b82525050565b600060208201905061111460008301846110f0565b92915050565b6000602082840312156111305761112f610e4a565b5b600061113e84828501611060565b91505092915050565b61115081611001565b82525050565b60006101208201905061116c600083018c611147565b611179602083018b611147565b611186604083018a611147565b61119360608301896110f0565b6111a060808301886110f0565b6111ad60a08301876110f0565b6111ba60c08301866110f0565b6111c760e08301856110f0565b6111d5610100830184610f12565b9a9950505050505050505050565b600080604083850312156111fa576111f9610e4a565b5b600061120885828601611060565b92505060206112198582860161102a565b9150509250929050565b600082825260208201905092915050565b7f506c616e20696e61637469766500000000000000000000000000000000000000600082015250565b600061126a600d83611223565b915061127582611234565b602082019050919050565b600060208201905081810360008301526112998161125d565b9050919050565b7f546f6f206561726c790000000000000000000000000000000000000000000000600082015250565b60006112d6600983611223565b91506112e1826112a0565b602082019050919050565b60006020820190508181036000830152611305816112c9565b9050919050565b60006060820190506113216000830186611147565b61132e6020830185611147565b61133b60408301846110f0565b949350505050565b61134c81610f06565b811461135757600080fd5b50565b60008151905061136981611343565b92915050565b60006020828403121561138557611384610e4a565b5b60006113938482850161135a565b91505092915050565b7f5472616e73666572206661696c65640000000000000000000000000000000000600082015250565b60006113d2600f83611223565b91506113dd8261139c565b602082019050919050565b60006020820190508181036000830152611401816113c5565b9050919050565b7f4e487b7100000000000000000000000000000000000000000000000000000000600052601160045260246000fd5b60006114428261103f565b915061144d8361103f565b925082820190508082111561146557611464611408565b5b92915050565b600060408201905061148060008301856110f0565b61148d60208301846110f0565b9392505050565b60006040820190506114a96000830185611147565b6114b66020830184611147565b9392505050565b6000815190506114cc81611049565b92915050565b6000602082840312156114e8576114e7610e4a565b5b60006114f6848285016114bd565b91505092915050565b60006020820190506115146000830184611147565b92915050565b60006115258261103f565b91507fffffffffffffffffffffffffffffffffffffffffffffffffffffffffffffffff820361155757611556611408565b5b600182019050919050565b7f496e76616c696420726563656976657200000000000000000000000000000000600082015250565b6000611598601083611223565b91506115a382611562565b602082019050919050565b600060208201905081810360008301526115c78161158b565b9050919050565b7f496e76616c696420746f6b656e00000000000000000000000000000000000000600082015250565b6000611604600d83611223565b915061160f826115ce565b602082019050919050565b60006020820190508181036000830152611633816115f7565b9050919050565b7f496e76616c696420454d49000000000000000000000000000000000000000000600082015250565b6000611670600b83611223565b915061167b8261163a565b602082019050919050565b6000602082019050818103600083015261169f81611663565b9050919050565b7f546f74616c203c20454d49000000000000000000000000000000000000000000600082015250565b60006116dc600b83611223565b91506116e7826116a6565b602082019050919050565b6000602082019050818103600083015261170b816116cf565b9050919050565b7f496e74657276616c203e3d2031206d696e757465000000000000000000000000600082015250565b6000611748601483611223565b915061175382611712565b602082019050919050565b600060208201905081810360008301526117778161173b565b9050919050565b600060608201905061179360008301866110f0565b6117a060208301856110f0565b6117ad60408301846110f0565b949350505050565b7f416c726561647920616374697665000000000000000000000000000000000000600082015250565b60006117eb600e83611223565b91506117f6826117b5565b602082019050919050565b6000602082019050818103600083015261181a816117de565b9050919050565b7f53656e64657220616c7265616479206c6f636b65640000000000000000000000600082015250565b6000611857601583611223565b915061186282611821565b602082019050919050565b600060208201905081810360008301526118868161184a565b9050919050565b7f496e76616c69642073656e646572000000000000000000000000000000000000600082015250565b60006118c3600e83611223565b91506118ce8261188d565b602082019050919050565b600060208201905081810360008301526118f2816118b6565b9050919050565b7f5265656e7472616e637947756172643a207265656e7472616e742063616c6c00600082015250565b600061192f601f83611223565b915061193a826118f9565b602082019050919050565b6000602082019050818103600083015261195e81611922565b905091905056fea26469706673582212207243f86835549e8340fb77f39bb0406ac8db0eb93ffa83ffb5309726faf3cf1964736f6c63430008140033",
  "linkReferences": {},
  "deployedLinkReferences": {}
}