{
  "_format": "hh-sol-artifact-1",
  "contractName": "EmiAutoPay",
  "sourceName": "contracts/EmiAutoPay.sol",
  "abi": [
    {
      "anonymous": false,
      "inputs": [
        {
          "indexed": true,
          "internalType": "uint256",
          "name": "planId",
          "type": "uint256"
        }
      ],
      "name": "EmiCompleted",
      "type": "event"
    },
    {
      "anonymous": false,
      "inputs": [
        {
          "indexed": true,
          "internalType": "uint256",
          "name": "planId",
          "type": "uint256"
        },
        {
          "indexed": false,
          "internalType": "address",
          "name": "receiver",
          "type": "address"
        },
        {
          "indexed": false,
          "internalType": "uint256",
          "name": "amount",
          "type": "uint256"
        }
      ],
      "name": "EmiPaid",
      "type": "event"
    },
    {
      "anonymous": false,
      "inputs": [
        {
          "indexed": true,
          "internalType": "uint256",
          "name": "planId",
          "type": "uint256"
        },
        {
          "indexed": true,
          "internalType": "address",
          "name": "receiver",
          "type": "address"
        },
        {
          "indexed": false,
          "internalType": "address",
          "name": "token",
          "type": "address"
        },
        {
          "indexed": false,
          "internalType": "uint256",
          "name": "emiAmount",
          "type": "uint256"
        },
        {
          "indexed": false,
          "internalType": "uint256",
          "name": "interval",
          "type": "uint256"
        },
        {
          "indexed": false,
          "internalType": "uint256",
          "name": "totalAmount",
          "type": "uint256"
        }
      ],
      "name": "EmiPlanCreated",
      "type": "event"
    },
    {
      "anonymous": false,
      "inputs": [
        {
          "indexed": true,
          "internalType": "uint256",
          "name": "planId",
          "type": "uint256"
        },
        {
          "indexed": true,
          "internalType": "address",
          "name": "sender",
          "type": "address"
        }
      ],
      "name": "PlanActivated",
      "type": "event"
    },
    {
      "inputs": [
        {
          "internalType": "bytes",
          "name": "",
          "type": "bytes"
        }
      ],
      "name": "checkUpkeep",
      "outputs": [
        {
          "internalType": "bool",
          "name": "upkeepNeeded",
          "type": "bool"
        },
        {
          "internalType": "bytes",
          "name": "performData",
          "type": "bytes"
        }
      ],
      "stateMutability": "view",
      "type": "function"
    },
    {
      "inputs": [
        {
          "internalType": "address",
          "name": "receiver",
          "type": "address"
        },
        {
          "internalType": "address",
          "name": "token",
          "type": "address"
        },
        {
          "internalType": "uint256",
          "name": "emiAmount",
          "type": "uint256"
        },
        {
          "internalType": "uint256",
          "name": "interval",
          "type": "uint256"
        },
        {
          "internalType": "uint256",
          "name": "totalAmount",
          "type": "uint256"
        }
      ],
      "name": "createEmiPlan",
      "outputs": [],
      "stateMutability": "nonpayable",
      "type": "function"
    },
    {
      "inputs": [
        {
          "internalType": "bytes",
          "name": "performData",
          "type": "bytes"
        }
      ],
      "name": "performUpkeep",
      "outputs": [],
      "stateMutability": "nonpayable",
      "type": "function"
    },
    {
      "inputs": [],
      "name": "planCounter",
      "outputs": [
        {
          "internalType": "uint256",
          "name": "",
          "type": "uint256"
        }
      ],
      "stateMutability": "view",
      "type": "function"
    },
    {
      "inputs": [
        {
          "internalType": "uint256",
          "name": "",
          "type": "uint256"
        }
      ],
      "name": "plans",
      "outputs": [
        {
          "internalType": "address",
          "name": "sender",
          "type": "address"
        },
        {
          "internalType": "address",
          "name": "receiver",
          "type": "address"
        },
        {
          "internalType": "address",
          "name": "token",
          "type": "address"
        },
        {
          "internalType": "uint256",
          "name": "emiAmount",
          "type": "uint256"
        },
        {
          "internalType": "uint256",
          "name": "interval",
          "type": "uint256"
        },
        {
          "internalType": "uint256",
          "name": "totalAmount",
          "type": "uint256"
        },
        {
          "internalType": "uint256",
          "name": "amountPaid",
          "type": "uint256"
        },
        {
          "internalType": "uint256",
          "name": "nextPaymentTime",
          "type": "uint256"
        },
        {
          "internalType": "bool",
          "name": "isActive",
          "type": "bool"
        }
      ],
      "stateMutability": "view",
      "type": "function"
    },
    {
      "inputs": [
        {
          "internalType": "uint256",
          "name": "planId",
          "type": "uint256"
        },
        {
          "internalType": "uint256",
          "name": "amount",
          "type": "uint256"
        }
      ],
      "name": "receivePayment",
      "outputs": [],
      "stateMutability": "nonpayable",
      "type": "function"
    }
  ],
  "bytecode": "0x608060405234801561001057600080fd5b506001600081905550611880806100286000396000f3fe608060405234801561001057600080fd5b50600436106100625760003560e01c80634585e33b146100675780636e04ff0d1461008357806387226f3d146100b4578063a36a38ed146100d0578063b1620616146100ee578063ded1e6eb14610126575b600080fd5b610081600480360381019061007c9190610e83565b610142565b005b61009d60048036038101906100989190610e83565b6103bc565b6040516100ab929190610f7b565b60405180910390f35b6100ce60048036038101906100c9919061103f565b610554565b005b6100d86108b4565b6040516100e591906110c9565b60405180910390f35b610108600480360381019061010391906110e4565b6108ba565b60405161011d99989796959493929190611120565b60405180910390f35b610140600480360381019061013b91906111ad565b610975565b005b61014a610dbb565b6000828281019061015b91906110e4565b905060006002600083815260200190815260200160002090508060080160009054906101000a900460ff166101c5576040517f08c379a00000000000000000000000000000000000000000000000000000000081526004016101bc9061124a565b60405180910390fd5b8060020160009054906101000a900473ffffffffffffffffffffffffffffffffffffffff1673ffffffffffffffffffffffffffffffffffffffff166323b872dd8260000160009054906101000a900473ffffffffffffffffffffffffffffffffffffffff168360010160009054906101000a900473ffffffffffffffffffffffffffffffffffffffff1684600301546040518463ffffffff1660e01b81526004016102729392919061126a565b6020604051808303816000875af1158015610291573d6000803e3d6000fd5b505050506040513d601f19601f820116820180604052508101906102b591906112cd565b5080600301548160060160008282546102ce9190611329565b9250508190555080600501548160060154106103335760008160080160006101000a81548160ff021916908315150217905550817f5417900f2b30001c152939c30dea707712a1b6254728bc12c5bf0137cb36e9a060405160405180910390a26103ae565b8060040154426103439190611329565b8160070181905550817ffcdb70ec34e50c8a6b968805fe08898ed287d82b5e8c24c5a672b0d4bd0bad128260010160009054906101000a900473ffffffffffffffffffffffffffffffffffffffff1683600301546040516103a592919061135d565b60405180910390a25b50506103b8610e0a565b5050565b600060606000600190505b60015481116105355760006002600083815260200190815260200160002090508060080160009054906101000a900460ff16801561040c575080600501548160060154105b801561041c575080600701544210155b80156104ef575080600301548160020160009054906101000a900473ffffffffffffffffffffffffffffffffffffffff1673ffffffffffffffffffffffffffffffffffffffff1663dd62ed3e8360000160009054906101000a900473ffffffffffffffffffffffffffffffffffffffff16306040518363ffffffff1660e01b81526004016104ab929190611386565b602060405180830381865afa1580156104c8573d6000803e3d6000fd5b505050506040513d601f19601f820116820180604052508101906104ec91906113c4565b10155b156105215760018260405160200161050791906110c9565b60405160208183030381529060405293509350505061054d565b50808061052d906113f1565b9150506103c7565b50600060405180602001604052806000815250915091505b9250929050565b600073ffffffffffffffffffffffffffffffffffffffff168573ffffffffffffffffffffffffffffffffffffffff16036105c3576040517f08c379a00000000000000000000000000000000000000000000000000000000081526004016105ba90611485565b60405180910390fd5b600073ffffffffffffffffffffffffffffffffffffffff168473ffffffffffffffffffffffffffffffffffffffff1603610632576040517f08c379a0000000000000000000000000000000000000000000000000000000008152600401610629906114f1565b60405180910390fd5b603c821015610676576040517f08c379a000000000000000000000000000000000000000000000000000000000815260040161066d9061155d565b60405180910390fd5b60016000815480929190610689906113f1565b9190505550604051806101200160405280600073ffffffffffffffffffffffffffffffffffffffff1681526020018673ffffffffffffffffffffffffffffffffffffffff1681526020018573ffffffffffffffffffffffffffffffffffffffff16815260200184815260200183815260200182815260200160008152602001600081526020016000151581525060026000600154815260200190815260200160002060008201518160000160006101000a81548173ffffffffffffffffffffffffffffffffffffffff021916908373ffffffffffffffffffffffffffffffffffffffff16021790555060208201518160010160006101000a81548173ffffffffffffffffffffffffffffffffffffffff021916908373ffffffffffffffffffffffffffffffffffffffff16021790555060408201518160020160006101000a81548173ffffffffffffffffffffffffffffffffffffffff021916908373ffffffffffffffffffffffffffffffffffffffff160217905550606082015181600301556080820151816004015560a0820151816005015560c0820151816006015560e082015181600701556101008201518160080160006101000a81548160ff0219169083151502179055509050508473ffffffffffffffffffffffffffffffffffffffff166001547fcdb984ec4074b487d3ab26bf1b6c708d5a85749749c4edbf56da8fdc902fd8a0868686866040516108a5949392919061157d565b60405180910390a35050505050565b60015481565b60026020528060005260406000206000915090508060000160009054906101000a900473ffffffffffffffffffffffffffffffffffffffff16908060010160009054906101000a900473ffffffffffffffffffffffffffffffffffffffff16908060020160009054906101000a900473ffffffffffffffffffffffffffffffffffffffff16908060030154908060040154908060050154908060060154908060070154908060080160009054906101000a900460ff16905089565b61097d610dbb565b60006002600084815260200190815260200160002090508060080160009054906101000a900460ff16156109e6576040517f08c379a00000000000000000000000000000000000000000000000000000000081526004016109dd9061160e565b60405180910390fd5b8060030154821015610a2d576040517f08c379a0000000000000000000000000000000000000000000000000000000008152600401610a249061167a565b60405180910390fd5b600073ffffffffffffffffffffffffffffffffffffffff168160010160009054906101000a900473ffffffffffffffffffffffffffffffffffffffff1673ffffffffffffffffffffffffffffffffffffffff1603610ac0576040517f08c379a0000000000000000000000000000000000000000000000000000000008152600401610ab7906116e6565b60405180910390fd5b60008160020160009054906101000a900473ffffffffffffffffffffffffffffffffffffffff169050828173ffffffffffffffffffffffffffffffffffffffff1663dd62ed3e33306040518363ffffffff1660e01b8152600401610b25929190611386565b602060405180830381865afa158015610b42573d6000803e3d6000fd5b505050506040513d601f19601f82011682018060405250810190610b6691906113c4565b1015610ba7576040517f08c379a0000000000000000000000000000000000000000000000000000000008152600401610b9e90611752565b60405180910390fd5b8073ffffffffffffffffffffffffffffffffffffffff166323b872dd338460010160009054906101000a900473ffffffffffffffffffffffffffffffffffffffff16866040518463ffffffff1660e01b8152600401610c089392919061126a565b6020604051808303816000875af1158015610c27573d6000803e3d6000fd5b505050506040513d601f19601f82011682018060405250810190610c4b91906112cd565b610c8a576040517f08c379a0000000000000000000000000000000000000000000000000000000008152600401610c81906117be565b60405180910390fd5b338260000160006101000a81548173ffffffffffffffffffffffffffffffffffffffff021916908373ffffffffffffffffffffffffffffffffffffffff16021790555060018260080160006101000a81548160ff021916908315150217905550828260060181905550816004015442610d039190611329565b82600701819055503373ffffffffffffffffffffffffffffffffffffffff16847f1f07c729fc76534d72c9e3ad0a792bf34de515a8aabc1a61bd40c2a2bd72ad8860405160405180910390a3837ffcdb70ec34e50c8a6b968805fe08898ed287d82b5e8c24c5a672b0d4bd0bad128360010160009054906101000a900473ffffffffffffffffffffffffffffffffffffffff1685604051610da592919061135d565b60405180910390a25050610db7610e0a565b5050565b600260005403610e00576040517f08c379a0000000000000000000000000000000000000000000000000000000008152600401610df79061182a565b60405180910390fd5b6002600081905550565b6001600081905550565b600080fd5b600080fd5b600080fd5b600080fd5b600080fd5b60008083601f840112610e4357610e42610e1e565b5b8235905067ffffffffffffffff811115610e6057610e5f610e23565b5b602083019150836001820283011115610e7c57610e7b610e28565b5b9250929050565b60008060208385031215610e9a57610e99610e14565b5b600083013567ffffffffffffffff811115610eb857610eb7610e19565b5b610ec485828601610e2d565b92509250509250929050565b60008115159050919050565b610ee581610ed0565b82525050565b600081519050919050565b600082825260208201905092915050565b60005b83811015610f25578082015181840152602081019050610f0a565b60008484015250505050565b6000601f19601f8301169050919050565b6000610f4d82610eeb565b610f578185610ef6565b9350610f67818560208601610f07565b610f7081610f31565b840191505092915050565b6000604082019050610f906000830185610edc565b8181036020830152610fa28184610f42565b90509392505050565b600073ffffffffffffffffffffffffffffffffffffffff82169050919050565b6000610fd682610fab565b9050919050565b610fe681610fcb565b8114610ff157600080fd5b50565b60008135905061100381610fdd565b92915050565b6000819050919050565b61101c81611009565b811461102757600080fd5b50565b60008135905061103981611013565b92915050565b600080600080600060a0868803121561105b5761105a610e14565b5b600061106988828901610ff4565b955050602061107a88828901610ff4565b945050604061108b8882890161102a565b935050606061109c8882890161102a565b92505060806110ad8882890161102a565b9150509295509295909350565b6110c381611009565b82525050565b60006020820190506110de60008301846110ba565b92915050565b6000602082840312156110fa576110f9610e14565b5b60006111088482850161102a565b91505092915050565b61111a81610fcb565b82525050565b600061012082019050611136600083018c611111565b611143602083018b611111565b611150604083018a611111565b61115d60608301896110ba565b61116a60808301886110ba565b61117760a08301876110ba565b61118460c08301866110ba565b61119160e08301856110ba565b61119f610100830184610edc565b9a9950505050505050505050565b600080604083850312156111c4576111c3610e14565b5b60006111d28582860161102a565b92505060206111e38582860161102a565b9150509250929050565b600082825260208201905092915050565b7f506c616e206e6f74206163746976650000000000000000000000000000000000600082015250565b6000611234600f836111ed565b915061123f826111fe565b602082019050919050565b6000602082019050818103600083015261126381611227565b9050919050565b600060608201905061127f6000830186611111565b61128c6020830185611111565b61129960408301846110ba565b949350505050565b6112aa81610ed0565b81146112b557600080fd5b50565b6000815190506112c7816112a1565b92915050565b6000602082840312156112e3576112e2610e14565b5b60006112f1848285016112b8565b91505092915050565b7f4e487b7100000000000000000000000000000000000000000000000000000000600052601160045260246000fd5b600061133482611009565b915061133f83611009565b9250828201905080821115611357576113566112fa565b5b92915050565b60006040820190506113726000830185611111565b61137f60208301846110ba565b9392505050565b600060408201905061139b6000830185611111565b6113a86020830184611111565b9392505050565b6000815190506113be81611013565b92915050565b6000602082840312156113da576113d9610e14565b5b60006113e8848285016113af565b91505092915050565b60006113fc82611009565b91507fffffffffffffffffffffffffffffffffffffffffffffffffffffffffffffffff820361142e5761142d6112fa565b5b600182019050919050565b7f496e76616c696420726563656976657200000000000000000000000000000000600082015250565b600061146f6010836111ed565b915061147a82611439565b602082019050919050565b6000602082019050818103600083015261149e81611462565b9050919050565b7f496e76616c696420746f6b656e00000000000000000000000000000000000000600082015250565b60006114db600d836111ed565b91506114e6826114a5565b602082019050919050565b6000602082019050818103600083015261150a816114ce565b9050919050565b7f4d696e2031206d696e0000000000000000000000000000000000000000000000600082015250565b60006115476009836111ed565b915061155282611511565b602082019050919050565b600060208201905081810360008301526115768161153a565b9050919050565b60006080820190506115926000830187611111565b61159f60208301866110ba565b6115ac60408301856110ba565b6115b960608301846110ba565b95945050505050565b7f506c616e20616c72656164792061637469766500000000000000000000000000600082015250565b60006115f86013836111ed565b9150611603826115c2565b602082019050919050565b60006020820190508181036000830152611627816115eb565b9050919050565b7f416d6f756e74203c20454d490000000000000000000000000000000000000000600082015250565b6000611664600c836111ed565b915061166f8261162e565b602082019050919050565b6000602082019050818103600083015261169381611657565b9050919050565b7f506c616e20646f6573206e6f7420657869737400000000000000000000000000600082015250565b60006116d06013836111ed565b91506116db8261169a565b602082019050919050565b600060208201905081810360008301526116ff816116c3565b9050919050565b7f417070726f766520746f6b656e20666972737400000000000000000000000000600082015250565b600061173c6013836111ed565b915061174782611706565b602082019050919050565b6000602082019050818103600083015261176b8161172f565b9050919050565b7f5472616e73666572206661696c65640000000000000000000000000000000000600082015250565b60006117a8600f836111ed565b91506117b382611772565b602082019050919050565b600060208201905081810360008301526117d78161179b565b9050919050565b7f5265656e7472616e637947756172643a207265656e7472616e742063616c6c00600082015250565b6000611814601f836111ed565b915061181f826117de565b602082019050919050565b6000602082019050818103600083015261184381611807565b905091905056fea2646970667358221220b513392aa797fcd3d5a55607c67aa91c74aad49458e8a7a8bf07b8ce7bcf3e3e64736f6c63430008140033",
  "linkReferences": {},
  "deployedLinkReferences": {}
}