{
  "_format": "hh-sol-artifact-1",
  "contractName": "EmiAutoPay",
  "sourceName": "contracts/EmiAutoPay.sol",
  "abi": [
    {
      "anonymous": false,
      "inputs": [
        {
          "indexed": true,
          "internalType": "uint256",
          "name": "planId",
          "type": "uint256"
        }
      ],
      "name": "EmiCompleted",
      "type": "event"
    },
    {
      "anonymous": false,
      "inputs": [
        {
          "indexed": true,
          "internalType": "uint256",
          "name": "planId",
          "type": "uint256"
        },
        {
          "indexed": false,
          "internalType": "address",
          "name": "receiver",
          "type": "address"
        },
        {
          "indexed": false,
          "internalType": "uint256",
          "name": "amount",
          "type": "uint256"
        }
      ],
      "name": "EmiPaid",
      "type": "event"
    },
    {
      "anonymous": false,
      "inputs": [
        {
          "indexed": true,
          "internalType": "uint256",
          "name": "planId",
          "type": "uint256"
        },
        {
          "indexed": true,
          "internalType": "address",
          "name": "receiver",
          "type": "address"
        },
        {
          "indexed": false,
          "internalType": "address",
          "name": "token",
          "type": "address"
        },
        {
          "indexed": false,
          "internalType": "uint256",
          "name": "emiAmount",
          "type": "uint256"
        },
        {
          "indexed": false,
          "internalType": "uint256",
          "name": "interval",
          "type": "uint256"
        },
        {
          "indexed": false,
          "internalType": "uint256",
          "name": "totalAmount",
          "type": "uint256"
        }
      ],
      "name": "EmiPlanCreated",
      "type": "event"
    },
    {
      "anonymous": false,
      "inputs": [
        {
          "indexed": true,
          "internalType": "uint256",
          "name": "planId",
          "type": "uint256"
        },
        {
          "indexed": true,
          "internalType": "address",
          "name": "sender",
          "type": "address"
        }
      ],
      "name": "PlanActivated",
      "type": "event"
    },
    {
      "anonymous": false,
      "inputs": [
        {
          "indexed": true,
          "internalType": "uint256",
          "name": "planId",
          "type": "uint256"
        },
        {
          "indexed": false,
          "internalType": "address",
          "name": "oldReceiver",
          "type": "address"
        },
        {
          "indexed": false,
          "internalType": "address",
          "name": "newReceiver",
          "type": "address"
        }
      ],
      "name": "ReceiverModified",
      "type": "event"
    },
    {
      "inputs": [
        {
          "internalType": "uint256",
          "name": "planId",
          "type": "uint256"
        }
      ],
      "name": "activatePlan",
      "outputs": [],
      "stateMutability": "nonpayable",
      "type": "function"
    },
    {
      "inputs": [
        {
          "internalType": "uint256",
          "name": "planId",
          "type": "uint256"
        },
        {
          "internalType": "uint256",
          "name": "deadline",
          "type": "uint256"
        },
        {
          "internalType": "uint8",
          "name": "v",
          "type": "uint8"
        },
        {
          "internalType": "bytes32",
          "name": "r",
          "type": "bytes32"
        },
        {
          "internalType": "bytes32",
          "name": "s",
          "type": "bytes32"
        }
      ],
      "name": "activatePlanWithPermit",
      "outputs": [],
      "stateMutability": "nonpayable",
      "type": "function"
    },
    {
      "inputs": [
        {
          "internalType": "bytes",
          "name": "",
          "type": "bytes"
        }
      ],
      "name": "checkUpkeep",
      "outputs": [
        {
          "internalType": "bool",
          "name": "upkeepNeeded",
          "type": "bool"
        },
        {
          "internalType": "bytes",
          "name": "",
          "type": "bytes"
        }
      ],
      "stateMutability": "view",
      "type": "function"
    },
    {
      "inputs": [
        {
          "internalType": "address",
          "name": "receiver",
          "type": "address"
        },
        {
          "internalType": "address",
          "name": "token",
          "type": "address"
        },
        {
          "internalType": "uint256",
          "name": "emiAmount",
          "type": "uint256"
        },
        {
          "internalType": "uint256",
          "name": "interval",
          "type": "uint256"
        },
        {
          "internalType": "uint256",
          "name": "totalAmount",
          "type": "uint256"
        }
      ],
      "name": "createEmiPlan",
      "outputs": [],
      "stateMutability": "nonpayable",
      "type": "function"
    },
    {
      "inputs": [
        {
          "internalType": "uint256",
          "name": "planId",
          "type": "uint256"
        },
        {
          "internalType": "address",
          "name": "newReceiver",
          "type": "address"
        }
      ],
      "name": "modifyReceiver",
      "outputs": [],
      "stateMutability": "nonpayable",
      "type": "function"
    },
    {
      "inputs": [
        {
          "internalType": "bytes",
          "name": "data",
          "type": "bytes"
        }
      ],
      "name": "performUpkeep",
      "outputs": [],
      "stateMutability": "nonpayable",
      "type": "function"
    },
    {
      "inputs": [],
      "name": "planCounter",
      "outputs": [
        {
          "internalType": "uint256",
          "name": "",
          "type": "uint256"
        }
      ],
      "stateMutability": "view",
      "type": "function"
    },
    {
      "inputs": [
        {
          "internalType": "uint256",
          "name": "",
          "type": "uint256"
        }
      ],
      "name": "plans",
      "outputs": [
        {
          "internalType": "address",
          "name": "sender",
          "type": "address"
        },
        {
          "internalType": "address",
          "name": "receiver",
          "type": "address"
        },
        {
          "internalType": "address",
          "name": "token",
          "type": "address"
        },
        {
          "internalType": "uint256",
          "name": "emiAmount",
          "type": "uint256"
        },
        {
          "internalType": "uint256",
          "name": "interval",
          "type": "uint256"
        },
        {
          "internalType": "uint256",
          "name": "totalAmount",
          "type": "uint256"
        },
        {
          "internalType": "uint256",
          "name": "amountPaid",
          "type": "uint256"
        },
        {
          "internalType": "uint256",
          "name": "nextPaymentTime",
          "type": "uint256"
        },
        {
          "internalType": "bool",
          "name": "isActive",
          "type": "bool"
        }
      ],
      "stateMutability": "view",
      "type": "function"
    }
  ],
  "bytecode": "0x608060405234801561001057600080fd5b5060016000819055506121fc806100286000396000f3fe608060405234801561001057600080fd5b50600436106100885760003560e01c8063b16206161161005b578063b162061614610114578063c06792171461014c578063d4ea9e6214610168578063d7e252a91461018457610088565b80634585e33b1461008d5780636e04ff0d146100a957806387226f3d146100da578063a36a38ed146100f6575b600080fd5b6100a760048036038101906100a29190611400565b6101a0565b005b6100c360048036038101906100be9190611400565b610507565b6040516100d19291906114f8565b60405180910390f35b6100f460048036038101906100ef91906115bc565b61069f565b005b6100fe610a85565b60405161010b9190611646565b60405180910390f35b61012e60048036038101906101299190611661565b610a8b565b6040516101439998979695949392919061169d565b60405180910390f35b6101666004803603810190610161919061172a565b610b46565b005b610182600480360381019061017d9190611661565b610e37565b005b61019e600480360381019061019991906117d9565b6110d9565b005b6101a8611338565b600082828101906101b99190611661565b905060006002600083815260200190815260200160002090508060080160009054906101000a900460ff16610223576040517f08c379a000000000000000000000000000000000000000000000000000000000815260040161021a906118b1565b60405180910390fd5b806007015442101561026a576040517f08c379a00000000000000000000000000000000000000000000000000000000081526004016102619061191d565b60405180910390fd5b60008160020160009054906101000a900473ffffffffffffffffffffffffffffffffffffffff1690508073ffffffffffffffffffffffffffffffffffffffff166323b872dd8360000160009054906101000a900473ffffffffffffffffffffffffffffffffffffffff168460010160009054906101000a900473ffffffffffffffffffffffffffffffffffffffff1685600301546040518463ffffffff1660e01b815260040161031c9392919061193d565b6020604051808303816000875af115801561033b573d6000803e3d6000fd5b505050506040513d601f19601f8201168201806040525081019061035f91906119a0565b61039e576040517f08c379a000000000000000000000000000000000000000000000000000000000815260040161039590611a19565b60405180910390fd5b81600301548260060160008282546103b69190611a68565b92505081905550816005015482600601541061047d5760008260080160006101000a81548160ff021916908315150217905550827ffcdb70ec34e50c8a6b968805fe08898ed287d82b5e8c24c5a672b0d4bd0bad128360010160009054906101000a900473ffffffffffffffffffffffffffffffffffffffff168460030154604051610443929190611a9c565b60405180910390a2827f5417900f2b30001c152939c30dea707712a1b6254728bc12c5bf0137cb36e9a060405160405180910390a26104f8565b81600401544261048d9190611a68565b8260070181905550827ffcdb70ec34e50c8a6b968805fe08898ed287d82b5e8c24c5a672b0d4bd0bad128360010160009054906101000a900473ffffffffffffffffffffffffffffffffffffffff1684600301546040516104ef929190611a9c565b60405180910390a25b505050610503611387565b5050565b600060606000600190505b60015481116106805760006002600083815260200190815260200160002090508060080160009054906101000a900460ff168015610557575080600501548160060154105b8015610567575080600701544210155b801561063a575080600301548160020160009054906101000a900473ffffffffffffffffffffffffffffffffffffffff1673ffffffffffffffffffffffffffffffffffffffff1663dd62ed3e8360000160009054906101000a900473ffffffffffffffffffffffffffffffffffffffff16306040518363ffffffff1660e01b81526004016105f6929190611ac5565b602060405180830381865afa158015610613573d6000803e3d6000fd5b505050506040513d601f19601f820116820180604052508101906106379190611b03565b10155b1561066c576001826040516020016106529190611646565b604051602081830303815290604052935093505050610698565b50808061067890611b30565b915050610512565b50600060405180602001604052806000815250915091505b9250929050565b600073ffffffffffffffffffffffffffffffffffffffff168573ffffffffffffffffffffffffffffffffffffffff160361070e576040517f08c379a000000000000000000000000000000000000000000000000000000000815260040161070590611bc4565b60405180910390fd5b600073ffffffffffffffffffffffffffffffffffffffff168473ffffffffffffffffffffffffffffffffffffffff160361077d576040517f08c379a000000000000000000000000000000000000000000000000000000000815260040161077490611c30565b60405180910390fd5b603c8210156107c1576040517f08c379a00000000000000000000000000000000000000000000000000000000081526004016107b890611c9c565b60405180910390fd5b60008311610804576040517f08c379a00000000000000000000000000000000000000000000000000000000081526004016107fb90611d08565b60405180910390fd5b82811015610847576040517f08c379a000000000000000000000000000000000000000000000000000000000815260040161083e90611d74565b60405180910390fd5b6001600081548092919061085a90611b30565b9190505550604051806101200160405280600073ffffffffffffffffffffffffffffffffffffffff1681526020018673ffffffffffffffffffffffffffffffffffffffff1681526020018573ffffffffffffffffffffffffffffffffffffffff16815260200184815260200183815260200182815260200160008152602001600081526020016000151581525060026000600154815260200190815260200160002060008201518160000160006101000a81548173ffffffffffffffffffffffffffffffffffffffff021916908373ffffffffffffffffffffffffffffffffffffffff16021790555060208201518160010160006101000a81548173ffffffffffffffffffffffffffffffffffffffff021916908373ffffffffffffffffffffffffffffffffffffffff16021790555060408201518160020160006101000a81548173ffffffffffffffffffffffffffffffffffffffff021916908373ffffffffffffffffffffffffffffffffffffffff160217905550606082015181600301556080820151816004015560a0820151816005015560c0820151816006015560e082015181600701556101008201518160080160006101000a81548160ff0219169083151502179055509050508473ffffffffffffffffffffffffffffffffffffffff166001547fcdb984ec4074b487d3ab26bf1b6c708d5a85749749c4edbf56da8fdc902fd8a086868686604051610a769493929190611d94565b60405180910390a35050505050565b60015481565b60026020528060005260406000206000915090508060000160009054906101000a900473ffffffffffffffffffffffffffffffffffffffff16908060010160009054906101000a900473ffffffffffffffffffffffffffffffffffffffff16908060020160009054906101000a900473ffffffffffffffffffffffffffffffffffffffff16908060030154908060040154908060050154908060060154908060070154908060080160009054906101000a900460ff16905089565b60006002600084815260200190815260200160002090508060080160009054906101000a900460ff16610bae576040517f08c379a0000000000000000000000000000000000000000000000000000000008152600401610ba590611e25565b60405180910390fd5b8060050154816006015410610bf8576040517f08c379a0000000000000000000000000000000000000000000000000000000008152600401610bef90611e91565b60405180910390fd5b8060010160009054906101000a900473ffffffffffffffffffffffffffffffffffffffff1673ffffffffffffffffffffffffffffffffffffffff163373ffffffffffffffffffffffffffffffffffffffff1614610c8a576040517f08c379a0000000000000000000000000000000000000000000000000000000008152600401610c8190611efd565b60405180910390fd5b600073ffffffffffffffffffffffffffffffffffffffff168273ffffffffffffffffffffffffffffffffffffffff1603610cf9576040517f08c379a0000000000000000000000000000000000000000000000000000000008152600401610cf090611bc4565b60405180910390fd5b8060010160009054906101000a900473ffffffffffffffffffffffffffffffffffffffff1673ffffffffffffffffffffffffffffffffffffffff168273ffffffffffffffffffffffffffffffffffffffff1603610d8b576040517f08c379a0000000000000000000000000000000000000000000000000000000008152600401610d8290611f69565b60405180910390fd5b60008160010160009054906101000a900473ffffffffffffffffffffffffffffffffffffffff169050828260010160006101000a81548173ffffffffffffffffffffffffffffffffffffffff021916908373ffffffffffffffffffffffffffffffffffffffff160217905550837faadf15e12a2dfa21dc4dff8615b2be4cc4ba80ec8a5338ceba7ef92d606fb75f8285604051610e29929190611ac5565b60405180910390a250505050565b60006002600083815260200190815260200160002090508060080160009054906101000a900460ff1615610ea0576040517f08c379a0000000000000000000000000000000000000000000000000000000008152600401610e9790611fd5565b60405180910390fd5b600073ffffffffffffffffffffffffffffffffffffffff168160010160009054906101000a900473ffffffffffffffffffffffffffffffffffffffff1673ffffffffffffffffffffffffffffffffffffffff1603610f33576040517f08c379a0000000000000000000000000000000000000000000000000000000008152600401610f2a90612041565b60405180910390fd5b80600301548160020160009054906101000a900473ffffffffffffffffffffffffffffffffffffffff1673ffffffffffffffffffffffffffffffffffffffff1663dd62ed3e33306040518363ffffffff1660e01b8152600401610f97929190611ac5565b602060405180830381865afa158015610fb4573d6000803e3d6000fd5b505050506040513d601f19601f82011682018060405250810190610fd89190611b03565b1015611019576040517f08c379a0000000000000000000000000000000000000000000000000000000008152600401611010906120ad565b60405180910390fd5b338160000160006101000a81548173ffffffffffffffffffffffffffffffffffffffff021916908373ffffffffffffffffffffffffffffffffffffffff16021790555060018160080160006101000a81548160ff0219169083151502179055508060040154426110899190611a68565b81600701819055503373ffffffffffffffffffffffffffffffffffffffff16827f1f07c729fc76534d72c9e3ad0a792bf34de515a8aabc1a61bd40c2a2bd72ad8860405160405180910390a35050565b60006002600087815260200190815260200160002090508060080160009054906101000a900460ff1615611142576040517f08c379a000000000000000000000000000000000000000000000000000000000815260040161113990611fd5565b60405180910390fd5b600073ffffffffffffffffffffffffffffffffffffffff168160010160009054906101000a900473ffffffffffffffffffffffffffffffffffffffff1673ffffffffffffffffffffffffffffffffffffffff16036111d5576040517f08c379a00000000000000000000000000000000000000000000000000000000081526004016111cc90612041565b60405180910390fd5b8060020160009054906101000a900473ffffffffffffffffffffffffffffffffffffffff1673ffffffffffffffffffffffffffffffffffffffff1663d505accf33308460030154898989896040518863ffffffff1660e01b815260040161124297969594939291906120eb565b600060405180830381600087803b15801561125c57600080fd5b505af1158015611270573d6000803e3d6000fd5b50505050338160000160006101000a81548173ffffffffffffffffffffffffffffffffffffffff021916908373ffffffffffffffffffffffffffffffffffffffff16021790555060018160080160006101000a81548160ff0219169083151502179055508060040154426112e49190611a68565b81600701819055503373ffffffffffffffffffffffffffffffffffffffff16867f1f07c729fc76534d72c9e3ad0a792bf34de515a8aabc1a61bd40c2a2bd72ad8860405160405180910390a3505050505050565b60026000540361137d576040517f08c379a0000000000000000000000000000000000000000000000000000000008152600401611374906121a6565b60405180910390fd5b6002600081905550565b6001600081905550565b600080fd5b600080fd5b600080fd5b600080fd5b600080fd5b60008083601f8401126113c0576113bf61139b565b5b8235905067ffffffffffffffff8111156113dd576113dc6113a0565b5b6020830191508360018202830111156113f9576113f86113a5565b5b9250929050565b6000806020838503121561141757611416611391565b5b600083013567ffffffffffffffff81111561143557611434611396565b5b611441858286016113aa565b92509250509250929050565b60008115159050919050565b6114628161144d565b82525050565b600081519050919050565b600082825260208201905092915050565b60005b838110156114a2578082015181840152602081019050611487565b60008484015250505050565b6000601f19601f8301169050919050565b60006114ca82611468565b6114d48185611473565b93506114e4818560208601611484565b6114ed816114ae565b840191505092915050565b600060408201905061150d6000830185611459565b818103602083015261151f81846114bf565b90509392505050565b600073ffffffffffffffffffffffffffffffffffffffff82169050919050565b600061155382611528565b9050919050565b61156381611548565b811461156e57600080fd5b50565b6000813590506115808161155a565b92915050565b6000819050919050565b61159981611586565b81146115a457600080fd5b50565b6000813590506115b681611590565b92915050565b600080600080600060a086880312156115d8576115d7611391565b5b60006115e688828901611571565b95505060206115f788828901611571565b9450506040611608888289016115a7565b9350506060611619888289016115a7565b925050608061162a888289016115a7565b9150509295509295909350565b61164081611586565b82525050565b600060208201905061165b6000830184611637565b92915050565b60006020828403121561167757611676611391565b5b6000611685848285016115a7565b91505092915050565b61169781611548565b82525050565b6000610120820190506116b3600083018c61168e565b6116c0602083018b61168e565b6116cd604083018a61168e565b6116da6060830189611637565b6116e76080830188611637565b6116f460a0830187611637565b61170160c0830186611637565b61170e60e0830185611637565b61171c610100830184611459565b9a9950505050505050505050565b6000806040838503121561174157611740611391565b5b600061174f858286016115a7565b925050602061176085828601611571565b9150509250929050565b600060ff82169050919050565b6117808161176a565b811461178b57600080fd5b50565b60008135905061179d81611777565b92915050565b6000819050919050565b6117b6816117a3565b81146117c157600080fd5b50565b6000813590506117d3816117ad565b92915050565b600080600080600060a086880312156117f5576117f4611391565b5b6000611803888289016115a7565b9550506020611814888289016115a7565b94505060406118258882890161178e565b9350506060611836888289016117c4565b9250506080611847888289016117c4565b9150509295509295909350565b600082825260208201905092915050565b7f496e616374697665000000000000000000000000000000000000000000000000600082015250565b600061189b600883611854565b91506118a682611865565b602082019050919050565b600060208201905081810360008301526118ca8161188e565b9050919050565b7f546f6f206561726c790000000000000000000000000000000000000000000000600082015250565b6000611907600983611854565b9150611912826118d1565b602082019050919050565b60006020820190508181036000830152611936816118fa565b9050919050565b6000606082019050611952600083018661168e565b61195f602083018561168e565b61196c6040830184611637565b949350505050565b61197d8161144d565b811461198857600080fd5b50565b60008151905061199a81611974565b92915050565b6000602082840312156119b6576119b5611391565b5b60006119c48482850161198b565b91505092915050565b7f5472616e73666572206661696c65640000000000000000000000000000000000600082015250565b6000611a03600f83611854565b9150611a0e826119cd565b602082019050919050565b60006020820190508181036000830152611a32816119f6565b9050919050565b7f4e487b7100000000000000000000000000000000000000000000000000000000600052601160045260246000fd5b6000611a7382611586565b9150611a7e83611586565b9250828201905080821115611a9657611a95611a39565b5b92915050565b6000604082019050611ab1600083018561168e565b611abe6020830184611637565b9392505050565b6000604082019050611ada600083018561168e565b611ae7602083018461168e565b9392505050565b600081519050611afd81611590565b92915050565b600060208284031215611b1957611b18611391565b5b6000611b2784828501611aee565b91505092915050565b6000611b3b82611586565b91507fffffffffffffffffffffffffffffffffffffffffffffffffffffffffffffffff8203611b6d57611b6c611a39565b5b600182019050919050565b7f496e76616c696420726563656976657200000000000000000000000000000000600082015250565b6000611bae601083611854565b9150611bb982611b78565b602082019050919050565b60006020820190508181036000830152611bdd81611ba1565b9050919050565b7f496e76616c696420746f6b656e00000000000000000000000000000000000000600082015250565b6000611c1a600d83611854565b9150611c2582611be4565b602082019050919050565b60006020820190508181036000830152611c4981611c0d565b9050919050565b7f4d696e2031206d696e0000000000000000000000000000000000000000000000600082015250565b6000611c86600983611854565b9150611c9182611c50565b602082019050919050565b60006020820190508181036000830152611cb581611c79565b9050919050565b7f496e76616c696420454d4920616d6f756e740000000000000000000000000000600082015250565b6000611cf2601283611854565b9150611cfd82611cbc565b602082019050919050565b60006020820190508181036000830152611d2181611ce5565b9050919050565b7f546f74616c203c20454d49000000000000000000000000000000000000000000600082015250565b6000611d5e600b83611854565b9150611d6982611d28565b602082019050919050565b60006020820190508181036000830152611d8d81611d51565b9050919050565b6000608082019050611da9600083018761168e565b611db66020830186611637565b611dc36040830185611637565b611dd06060830184611637565b95945050505050565b7f506c616e206e6f74206163746976650000000000000000000000000000000000600082015250565b6000611e0f600f83611854565b9150611e1a82611dd9565b602082019050919050565b60006020820190508181036000830152611e3e81611e02565b9050919050565b7f506c616e20636f6d706c65746564000000000000000000000000000000000000600082015250565b6000611e7b600e83611854565b9150611e8682611e45565b602082019050919050565b60006020820190508181036000830152611eaa81611e6e565b9050919050565b7f4f6e6c792072656365697665722063616e206d6f646966790000000000000000600082015250565b6000611ee7601883611854565b9150611ef282611eb1565b602082019050919050565b60006020820190508181036000830152611f1681611eda565b9050919050565b7f53616d6520726563656976657200000000000000000000000000000000000000600082015250565b6000611f53600d83611854565b9150611f5e82611f1d565b602082019050919050565b60006020820190508181036000830152611f8281611f46565b9050919050565b7f416c726561647920616374697665000000000000000000000000000000000000600082015250565b6000611fbf600e83611854565b9150611fca82611f89565b602082019050919050565b60006020820190508181036000830152611fee81611fb2565b9050919050565b7f506c616e206e6f7420666f756e64000000000000000000000000000000000000600082015250565b600061202b600e83611854565b915061203682611ff5565b602082019050919050565b6000602082019050818103600083015261205a8161201e565b9050919050565b7f496e73756666696369656e7420616c6c6f77616e636500000000000000000000600082015250565b6000612097601683611854565b91506120a282612061565b602082019050919050565b600060208201905081810360008301526120c68161208a565b9050919050565b6120d68161176a565b82525050565b6120e5816117a3565b82525050565b600060e082019050612100600083018a61168e565b61210d602083018961168e565b61211a6040830188611637565b6121276060830187611637565b61213460808301866120cd565b61214160a08301856120dc565b61214e60c08301846120dc565b98975050505050505050565b7f5265656e7472616e637947756172643a207265656e7472616e742063616c6c00600082015250565b6000612190601f83611854565b915061219b8261215a565b602082019050919050565b600060208201905081810360008301526121bf81612183565b905091905056fea26469706673582212201015ef0e7eb2709b418e690b2a04dacef112b8b900b9230c5bb8a5f2d3730d6c64736f6c63430008140033",
  "linkReferences": {},
  "deployedLinkReferences": {}
}