{
  "_format": "hh-sol-artifact-1",
  "contractName": "EmiAutoPay",
  "sourceName": "contracts/EmiAutoPay.sol",
  "abi": [
    {
      "anonymous": false,
      "inputs": [
        {
          "indexed": true,
          "internalType": "uint256",
          "name": "planId",
          "type": "uint256"
        },
        {
          "indexed": true,
          "internalType": "address",
          "name": "receiver",
          "type": "address"
        }
      ],
      "name": "EmiCompleted",
      "type": "event"
    },
    {
      "anonymous": false,
      "inputs": [
        {
          "indexed": true,
          "internalType": "uint256",
          "name": "planId",
          "type": "uint256"
        },
        {
          "indexed": true,
          "internalType": "address",
          "name": "receiver",
          "type": "address"
        },
        {
          "indexed": false,
          "internalType": "uint256",
          "name": "amount",
          "type": "uint256"
        },
        {
          "indexed": false,
          "internalType": "uint256",
          "name": "nextPaymentTime",
          "type": "uint256"
        }
      ],
      "name": "EmiPaid",
      "type": "event"
    },
    {
      "anonymous": false,
      "inputs": [
        {
          "indexed": true,
          "internalType": "uint256",
          "name": "planId",
          "type": "uint256"
        },
        {
          "indexed": true,
          "internalType": "address",
          "name": "receiver",
          "type": "address"
        },
        {
          "indexed": true,
          "internalType": "address",
          "name": "token",
          "type": "address"
        },
        {
          "indexed": false,
          "internalType": "uint256",
          "name": "emiAmount",
          "type": "uint256"
        },
        {
          "indexed": false,
          "internalType": "uint256",
          "name": "interval",
          "type": "uint256"
        },
        {
          "indexed": false,
          "internalType": "uint256",
          "name": "totalAmount",
          "type": "uint256"
        }
      ],
      "name": "EmiPlanCreated",
      "type": "event"
    },
    {
      "anonymous": false,
      "inputs": [
        {
          "indexed": true,
          "internalType": "uint256",
          "name": "planId",
          "type": "uint256"
        },
        {
          "indexed": true,
          "internalType": "address",
          "name": "sender",
          "type": "address"
        }
      ],
      "name": "PlanActivated",
      "type": "event"
    },
    {
      "inputs": [
        {
          "internalType": "uint256",
          "name": "planId",
          "type": "uint256"
        },
        {
          "internalType": "address",
          "name": "sender",
          "type": "address"
        }
      ],
      "name": "activatePlan",
      "outputs": [],
      "stateMutability": "nonpayable",
      "type": "function"
    },
    {
      "inputs": [
        {
          "internalType": "bytes",
          "name": "",
          "type": "bytes"
        }
      ],
      "name": "checkUpkeep",
      "outputs": [
        {
          "internalType": "bool",
          "name": "upkeepNeeded",
          "type": "bool"
        },
        {
          "internalType": "bytes",
          "name": "",
          "type": "bytes"
        }
      ],
      "stateMutability": "view",
      "type": "function"
    },
    {
      "inputs": [
        {
          "internalType": "address",
          "name": "receiver",
          "type": "address"
        },
        {
          "internalType": "address",
          "name": "token",
          "type": "address"
        },
        {
          "internalType": "uint256",
          "name": "emiAmount",
          "type": "uint256"
        },
        {
          "internalType": "uint256",
          "name": "interval",
          "type": "uint256"
        },
        {
          "internalType": "uint256",
          "name": "totalAmount",
          "type": "uint256"
        }
      ],
      "name": "createEmiPlan",
      "outputs": [],
      "stateMutability": "nonpayable",
      "type": "function"
    },
    {
      "inputs": [
        {
          "internalType": "bytes",
          "name": "performData",
          "type": "bytes"
        }
      ],
      "name": "performUpkeep",
      "outputs": [],
      "stateMutability": "nonpayable",
      "type": "function"
    },
    {
      "inputs": [],
      "name": "planCounter",
      "outputs": [
        {
          "internalType": "uint256",
          "name": "",
          "type": "uint256"
        }
      ],
      "stateMutability": "view",
      "type": "function"
    },
    {
      "inputs": [
        {
          "internalType": "uint256",
          "name": "",
          "type": "uint256"
        }
      ],
      "name": "plans",
      "outputs": [
        {
          "internalType": "address",
          "name": "sender",
          "type": "address"
        },
        {
          "internalType": "address",
          "name": "receiver",
          "type": "address"
        },
        {
          "internalType": "address",
          "name": "token",
          "type": "address"
        },
        {
          "internalType": "uint256",
          "name": "emiAmount",
          "type": "uint256"
        },
        {
          "internalType": "uint256",
          "name": "interval",
          "type": "uint256"
        },
        {
          "internalType": "uint256",
          "name": "totalAmount",
          "type": "uint256"
        },
        {
          "internalType": "uint256",
          "name": "amountPaid",
          "type": "uint256"
        },
        {
          "internalType": "uint256",
          "name": "nextPaymentTime",
          "type": "uint256"
        },
        {
          "internalType": "bool",
          "name": "isActive",
          "type": "bool"
        }
      ],
      "stateMutability": "view",
      "type": "function"
    }
  ],
  "bytecode": "0x608060405234801561000f575f80fd5b5060015f819055506118e4806100245f395ff3fe608060405234801561000f575f80fd5b5060043610610060575f3560e01c80634585e33b146100645780636e04ff0d1461008057806387226f3d146100b1578063a36a38ed146100cd578063b1620616146100eb578063c16c79f214610123575b5f80fd5b61007e60048036038101906100799190610e66565b61013f565b005b61009a60048036038101906100959190610e66565b61048b565b6040516100a8929190610f55565b60405180910390f35b6100cb60048036038101906100c69190611010565b6106e2565b005b6100d5610acd565b6040516100e29190611096565b60405180910390f35b610105600480360381019061010091906110af565b610ad3565b60405161011a999897969594939291906110e9565b60405180910390f35b61013d60048036038101906101389190611174565b610b86565b005b610147610da7565b5f828281019061015791906110af565b90505f60025f8381526020019081526020015f209050806008015f9054906101000a900460ff166101bd576040517f08c379a00000000000000000000000000000000000000000000000000000000081526004016101b49061120c565b60405180910390fd5b8060070154421015610204576040517f08c379a00000000000000000000000000000000000000000000000000000000081526004016101fb90611274565b60405180910390fd5b5f816002015f9054906101000a900473ffffffffffffffffffffffffffffffffffffffff1690508073ffffffffffffffffffffffffffffffffffffffff166323b872dd835f015f9054906101000a900473ffffffffffffffffffffffffffffffffffffffff16846001015f9054906101000a900473ffffffffffffffffffffffffffffffffffffffff1685600301546040518463ffffffff1660e01b81526004016102b193929190611292565b6020604051808303815f875af11580156102cd573d5f803e3d5ffd5b505050506040513d601f19601f820116820180604052508101906102f191906112f1565b610330576040517f08c379a000000000000000000000000000000000000000000000000000000000815260040161032790611366565b60405180910390fd5b8160030154826006015f82825461034791906113b1565b9250508190555081600501548260060154106103e7575f826008015f6101000a81548160ff021916908315150217905550816001015f9054906101000a900473ffffffffffffffffffffffffffffffffffffffff1673ffffffffffffffffffffffffffffffffffffffff16837fa3bab362c56d9c72948ee10e56218f16c5fa98dc088e4da691faa012cd16dc8560405160405180910390a350505061047f565b8160040154426103f791906113b1565b8260070181905550816001015f9054906101000a900473ffffffffffffffffffffffffffffffffffffffff1673ffffffffffffffffffffffffffffffffffffffff16837f8ab83c4430024635edd71fef5c6913522144cac183fecf278259ca65d355b779846003015485600701546040516104739291906113e4565b60405180910390a35050505b610487610df4565b5050565b5f60605f600190505b60015481116106c5575f60025f8381526020019081526020015f209050806008015f9054906101000a900460ff1680156104d5575080600501548160060154105b80156104e5575080600701544210155b80156105b357508060030154816002015f9054906101000a900473ffffffffffffffffffffffffffffffffffffffff1673ffffffffffffffffffffffffffffffffffffffff1663dd62ed3e835f015f9054906101000a900473ffffffffffffffffffffffffffffffffffffffff16306040518363ffffffff1660e01b815260040161057192919061140b565b602060405180830381865afa15801561058c573d5f803e3d5ffd5b505050506040513d601f19601f820116820180604052508101906105b09190611446565b10155b801561067f57508060030154816002015f9054906101000a900473ffffffffffffffffffffffffffffffffffffffff1673ffffffffffffffffffffffffffffffffffffffff166370a08231835f015f9054906101000a900473ffffffffffffffffffffffffffffffffffffffff166040518263ffffffff1660e01b815260040161063d9190611471565b602060405180830381865afa158015610658573d5f803e3d5ffd5b505050506040513d601f19601f8201168201806040525081019061067c9190611446565b10155b156106b1576001826040516020016106979190611096565b6040516020818303038152906040529350935050506106db565b5080806106bd9061148a565b915050610494565b505f60405180602001604052805f815250915091505b9250929050565b5f73ffffffffffffffffffffffffffffffffffffffff168573ffffffffffffffffffffffffffffffffffffffff1603610750576040517f08c379a00000000000000000000000000000000000000000000000000000000081526004016107479061151b565b60405180910390fd5b5f73ffffffffffffffffffffffffffffffffffffffff168473ffffffffffffffffffffffffffffffffffffffff16036107be576040517f08c379a00000000000000000000000000000000000000000000000000000000081526004016107b590611583565b60405180910390fd5b5f8311610800576040517f08c379a00000000000000000000000000000000000000000000000000000000081526004016107f7906115eb565b60405180910390fd5b82811015610843576040517f08c379a000000000000000000000000000000000000000000000000000000000815260040161083a90611653565b60405180910390fd5b603c821015610887576040517f08c379a000000000000000000000000000000000000000000000000000000000815260040161087e906116bb565b60405180910390fd5b60015f8154809291906108999061148a565b91905055506040518061012001604052805f73ffffffffffffffffffffffffffffffffffffffff1681526020018673ffffffffffffffffffffffffffffffffffffffff1681526020018573ffffffffffffffffffffffffffffffffffffffff1681526020018481526020018381526020018281526020015f81526020015f81526020015f151581525060025f60015481526020019081526020015f205f820151815f015f6101000a81548173ffffffffffffffffffffffffffffffffffffffff021916908373ffffffffffffffffffffffffffffffffffffffff1602179055506020820151816001015f6101000a81548173ffffffffffffffffffffffffffffffffffffffff021916908373ffffffffffffffffffffffffffffffffffffffff1602179055506040820151816002015f6101000a81548173ffffffffffffffffffffffffffffffffffffffff021916908373ffffffffffffffffffffffffffffffffffffffff160217905550606082015181600301556080820151816004015560a0820151816005015560c0820151816006015560e08201518160070155610100820151816008015f6101000a81548160ff0219169083151502179055509050508373ffffffffffffffffffffffffffffffffffffffff168573ffffffffffffffffffffffffffffffffffffffff166001547fcdb984ec4074b487d3ab26bf1b6c708d5a85749749c4edbf56da8fdc902fd8a0868686604051610abe939291906116d9565b60405180910390a45050505050565b60015481565b6002602052805f5260405f205f91509050805f015f9054906101000a900473ffffffffffffffffffffffffffffffffffffffff1690806001015f9054906101000a900473ffffffffffffffffffffffffffffffffffffffff1690806002015f9054906101000a900473ffffffffffffffffffffffffffffffffffffffff1690806003015490806004015490806005015490806006015490806007015490806008015f9054906101000a900460ff16905089565b5f60025f8481526020019081526020015f209050806008015f9054906101000a900460ff1615610beb576040517f08c379a0000000000000000000000000000000000000000000000000000000008152600401610be290611758565b60405180910390fd5b5f73ffffffffffffffffffffffffffffffffffffffff16815f015f9054906101000a900473ffffffffffffffffffffffffffffffffffffffff1673ffffffffffffffffffffffffffffffffffffffff1614610c7b576040517f08c379a0000000000000000000000000000000000000000000000000000000008152600401610c72906117c0565b60405180910390fd5b5f73ffffffffffffffffffffffffffffffffffffffff168273ffffffffffffffffffffffffffffffffffffffff1603610ce9576040517f08c379a0000000000000000000000000000000000000000000000000000000008152600401610ce090611828565b60405180910390fd5b81815f015f6101000a81548173ffffffffffffffffffffffffffffffffffffffff021916908373ffffffffffffffffffffffffffffffffffffffff1602179055506001816008015f6101000a81548160ff021916908315150217905550806004015442610d5691906113b1565b81600701819055508173ffffffffffffffffffffffffffffffffffffffff16837f1f07c729fc76534d72c9e3ad0a792bf34de515a8aabc1a61bd40c2a2bd72ad8860405160405180910390a3505050565b60025f5403610deb576040517f08c379a0000000000000000000000000000000000000000000000000000000008152600401610de290611890565b60405180910390fd5b60025f81905550565b60015f81905550565b5f80fd5b5f80fd5b5f80fd5b5f80fd5b5f80fd5b5f8083601f840112610e2657610e25610e05565b5b8235905067ffffffffffffffff811115610e4357610e42610e09565b5b602083019150836001820283011115610e5f57610e5e610e0d565b5b9250929050565b5f8060208385031215610e7c57610e7b610dfd565b5b5f83013567ffffffffffffffff811115610e9957610e98610e01565b5b610ea585828601610e11565b92509250509250929050565b5f8115159050919050565b610ec581610eb1565b82525050565b5f81519050919050565b5f82825260208201905092915050565b5f5b83811015610f02578082015181840152602081019050610ee7565b5f8484015250505050565b5f601f19601f8301169050919050565b5f610f2782610ecb565b610f318185610ed5565b9350610f41818560208601610ee5565b610f4a81610f0d565b840191505092915050565b5f604082019050610f685f830185610ebc565b8181036020830152610f7a8184610f1d565b90509392505050565b5f73ffffffffffffffffffffffffffffffffffffffff82169050919050565b5f610fac82610f83565b9050919050565b610fbc81610fa2565b8114610fc6575f80fd5b50565b5f81359050610fd781610fb3565b92915050565b5f819050919050565b610fef81610fdd565b8114610ff9575f80fd5b50565b5f8135905061100a81610fe6565b92915050565b5f805f805f60a0868803121561102957611028610dfd565b5b5f61103688828901610fc9565b955050602061104788828901610fc9565b945050604061105888828901610ffc565b935050606061106988828901610ffc565b925050608061107a88828901610ffc565b9150509295509295909350565b61109081610fdd565b82525050565b5f6020820190506110a95f830184611087565b92915050565b5f602082840312156110c4576110c3610dfd565b5b5f6110d184828501610ffc565b91505092915050565b6110e381610fa2565b82525050565b5f610120820190506110fd5f83018c6110da565b61110a602083018b6110da565b611117604083018a6110da565b6111246060830189611087565b6111316080830188611087565b61113e60a0830187611087565b61114b60c0830186611087565b61115860e0830185611087565b611166610100830184610ebc565b9a9950505050505050505050565b5f806040838503121561118a57611189610dfd565b5b5f61119785828601610ffc565b92505060206111a885828601610fc9565b9150509250929050565b5f82825260208201905092915050565b7f506c616e20696e616374697665000000000000000000000000000000000000005f82015250565b5f6111f6600d836111b2565b9150611201826111c2565b602082019050919050565b5f6020820190508181035f830152611223816111ea565b9050919050565b7f546f6f206561726c7900000000000000000000000000000000000000000000005f82015250565b5f61125e6009836111b2565b91506112698261122a565b602082019050919050565b5f6020820190508181035f83015261128b81611252565b9050919050565b5f6060820190506112a55f8301866110da565b6112b260208301856110da565b6112bf6040830184611087565b949350505050565b6112d081610eb1565b81146112da575f80fd5b50565b5f815190506112eb816112c7565b92915050565b5f6020828403121561130657611305610dfd565b5b5f611313848285016112dd565b91505092915050565b7f5472616e73666572206661696c656400000000000000000000000000000000005f82015250565b5f611350600f836111b2565b915061135b8261131c565b602082019050919050565b5f6020820190508181035f83015261137d81611344565b9050919050565b7f4e487b71000000000000000000000000000000000000000000000000000000005f52601160045260245ffd5b5f6113bb82610fdd565b91506113c683610fdd565b92508282019050808211156113de576113dd611384565b5b92915050565b5f6040820190506113f75f830185611087565b6114046020830184611087565b9392505050565b5f60408201905061141e5f8301856110da565b61142b60208301846110da565b9392505050565b5f8151905061144081610fe6565b92915050565b5f6020828403121561145b5761145a610dfd565b5b5f61146884828501611432565b91505092915050565b5f6020820190506114845f8301846110da565b92915050565b5f61149482610fdd565b91507fffffffffffffffffffffffffffffffffffffffffffffffffffffffffffffffff82036114c6576114c5611384565b5b600182019050919050565b7f496e76616c6964207265636569766572000000000000000000000000000000005f82015250565b5f6115056010836111b2565b9150611510826114d1565b602082019050919050565b5f6020820190508181035f830152611532816114f9565b9050919050565b7f496e76616c696420746f6b656e000000000000000000000000000000000000005f82015250565b5f61156d600d836111b2565b915061157882611539565b602082019050919050565b5f6020820190508181035f83015261159a81611561565b9050919050565b7f496e76616c696420454d490000000000000000000000000000000000000000005f82015250565b5f6115d5600b836111b2565b91506115e0826115a1565b602082019050919050565b5f6020820190508181035f830152611602816115c9565b9050919050565b7f546f74616c203c20454d490000000000000000000000000000000000000000005f82015250565b5f61163d600b836111b2565b915061164882611609565b602082019050919050565b5f6020820190508181035f83015261166a81611631565b9050919050565b7f496e74657276616c203e3d2031206d696e7574650000000000000000000000005f82015250565b5f6116a56014836111b2565b91506116b082611671565b602082019050919050565b5f6020820190508181035f8301526116d281611699565b9050919050565b5f6060820190506116ec5f830186611087565b6116f96020830185611087565b6117066040830184611087565b949350505050565b7f416c7265616479206163746976650000000000000000000000000000000000005f82015250565b5f611742600e836111b2565b915061174d8261170e565b602082019050919050565b5f6020820190508181035f83015261176f81611736565b9050919050565b7f53656e64657220616c7265616479206c6f636b656400000000000000000000005f82015250565b5f6117aa6015836111b2565b91506117b582611776565b602082019050919050565b5f6020820190508181035f8301526117d78161179e565b9050919050565b7f496e76616c69642073656e6465720000000000000000000000000000000000005f82015250565b5f611812600e836111b2565b915061181d826117de565b602082019050919050565b5f6020820190508181035f83015261183f81611806565b9050919050565b7f5265656e7472616e637947756172643a207265656e7472616e742063616c6c005f82015250565b5f61187a601f836111b2565b915061188582611846565b602082019050919050565b5f6020820190508181035f8301526118a78161186e565b905091905056fea26469706673582212208ab0ccb51f045b4068acd9f39687590f874703337ed2fcbd63c80e91190d955564736f6c63430008140033",
  "linkReferences": {},
  "deployedLinkReferences": {}
}