{
  "_format": "hh-sol-artifact-1",
  "contractName": "EmiAutoPay",
  "sourceName": "contracts/EmiAutoPay.sol",
  "abi": [
    {
      "anonymous": false,
      "inputs": [
        {
          "indexed": true,
          "internalType": "uint256",
          "name": "planId",
          "type": "uint256"
        },
        {
          "indexed": true,
          "internalType": "address",
          "name": "receiver",
          "type": "address"
        }
      ],
      "name": "EmiCompleted",
      "type": "event"
    },
    {
      "anonymous": false,
      "inputs": [
        {
          "indexed": true,
          "internalType": "uint256",
          "name": "planId",
          "type": "uint256"
        },
        {
          "indexed": true,
          "internalType": "address",
          "name": "receiver",
          "type": "address"
        },
        {
          "indexed": false,
          "internalType": "uint256",
          "name": "amount",
          "type": "uint256"
        },
        {
          "indexed": false,
          "internalType": "uint256",
          "name": "nextPaymentTime",
          "type": "uint256"
        }
      ],
      "name": "EmiPaid",
      "type": "event"
    },
    {
      "anonymous": false,
      "inputs": [
        {
          "indexed": true,
          "internalType": "uint256",
          "name": "planId",
          "type": "uint256"
        },
        {
          "indexed": true,
          "internalType": "address",
          "name": "receiver",
          "type": "address"
        },
        {
          "indexed": false,
          "internalType": "string",
          "name": "receiverNetwork",
          "type": "string"
        },
        {
          "indexed": false,
          "internalType": "address",
          "name": "tokenAddress",
          "type": "address"
        },
        {
          "indexed": false,
          "internalType": "uint256",
          "name": "emiAmount",
          "type": "uint256"
        },
        {
          "indexed": false,
          "internalType": "uint256",
          "name": "interval",
          "type": "uint256"
        },
        {
          "indexed": false,
          "internalType": "uint256",
          "name": "totalAmount",
          "type": "uint256"
        }
      ],
      "name": "EmiPlanCreated",
      "type": "event"
    },
    {
      "anonymous": false,
      "inputs": [
        {
          "indexed": true,
          "internalType": "uint256",
          "name": "planId",
          "type": "uint256"
        },
        {
          "indexed": true,
          "internalType": "address",
          "name": "sender",
          "type": "address"
        }
      ],
      "name": "PlanActivated",
      "type": "event"
    },
    {
      "inputs": [
        {
          "internalType": "uint256",
          "name": "planId",
          "type": "uint256"
        }
      ],
      "name": "activatePlan",
      "outputs": [],
      "stateMutability": "nonpayable",
      "type": "function"
    },
    {
      "inputs": [
        {
          "internalType": "bytes",
          "name": "",
          "type": "bytes"
        }
      ],
      "name": "checkUpkeep",
      "outputs": [
        {
          "internalType": "bool",
          "name": "upkeepNeeded",
          "type": "bool"
        },
        {
          "internalType": "bytes",
          "name": "performData",
          "type": "bytes"
        }
      ],
      "stateMutability": "view",
      "type": "function"
    },
    {
      "inputs": [
        {
          "internalType": "address",
          "name": "receiver",
          "type": "address"
        },
        {
          "internalType": "string",
          "name": "receiverNetwork",
          "type": "string"
        },
        {
          "internalType": "address",
          "name": "tokenAddress",
          "type": "address"
        },
        {
          "internalType": "uint256",
          "name": "emiAmount",
          "type": "uint256"
        },
        {
          "internalType": "uint256",
          "name": "interval",
          "type": "uint256"
        },
        {
          "internalType": "uint256",
          "name": "totalAmount",
          "type": "uint256"
        }
      ],
      "name": "createEmiPlan",
      "outputs": [],
      "stateMutability": "nonpayable",
      "type": "function"
    },
    {
      "inputs": [
        {
          "internalType": "bytes",
          "name": "performData",
          "type": "bytes"
        }
      ],
      "name": "performUpkeep",
      "outputs": [],
      "stateMutability": "nonpayable",
      "type": "function"
    },
    {
      "inputs": [],
      "name": "planCounter",
      "outputs": [
        {
          "internalType": "uint256",
          "name": "",
          "type": "uint256"
        }
      ],
      "stateMutability": "view",
      "type": "function"
    },
    {
      "inputs": [
        {
          "internalType": "uint256",
          "name": "",
          "type": "uint256"
        }
      ],
      "name": "plans",
      "outputs": [
        {
          "internalType": "address",
          "name": "sender",
          "type": "address"
        },
        {
          "internalType": "address",
          "name": "receiver",
          "type": "address"
        },
        {
          "internalType": "string",
          "name": "receiverNetwork",
          "type": "string"
        },
        {
          "internalType": "address",
          "name": "tokenAddress",
          "type": "address"
        },
        {
          "internalType": "uint256",
          "name": "emiAmount",
          "type": "uint256"
        },
        {
          "internalType": "uint256",
          "name": "interval",
          "type": "uint256"
        },
        {
          "internalType": "uint256",
          "name": "totalAmount",
          "type": "uint256"
        },
        {
          "internalType": "uint256",
          "name": "amountPaid",
          "type": "uint256"
        },
        {
          "internalType": "uint256",
          "name": "nextPaymentTime",
          "type": "uint256"
        },
        {
          "internalType": "bool",
          "name": "isActive",
          "type": "bool"
        }
      ],
      "stateMutability": "view",
      "type": "function"
    }
  ],
  "bytecode": "0x608060405234801561001057600080fd5b506001600081905550611ddc806100286000396000f3fe608060405234801561001057600080fd5b50600436106100625760003560e01c80634585e33b146100675780634c8cb614146100835780636e04ff0d1461009f578063a36a38ed146100d0578063b1620616146100ee578063d4ea9e6214610127575b600080fd5b610081600480360381019061007c9190610eed565b610143565b005b61009d6004803603810190610098919061110f565b6104a1565b005b6100b960048036038101906100b49190610eed565b6108a7565b6040516100c7929190611252565b60405180910390f35b6100d8610b10565b6040516100e59190611291565b60405180910390f35b610108600480360381019061010391906112ac565b610b16565b60405161011e9a9998979695949392919061133d565b60405180910390f35b610141600480360381019061013c91906112ac565b610c5f565b005b61014b610e1b565b6000828281019061015c91906112ac565b905060006002600083815260200190815260200160002090508060090160009054906101000a900460ff166101c6576040517f08c379a00000000000000000000000000000000000000000000000000000000081526004016101bd9061142c565b60405180910390fd5b806008015442101561020d576040517f08c379a000000000000000000000000000000000000000000000000000000000815260040161020490611498565b60405180910390fd5b60008160030160009054906101000a900473ffffffffffffffffffffffffffffffffffffffff1690508073ffffffffffffffffffffffffffffffffffffffff166323b872dd8360000160009054906101000a900473ffffffffffffffffffffffffffffffffffffffff168460010160009054906101000a900473ffffffffffffffffffffffffffffffffffffffff1685600401546040518463ffffffff1660e01b81526004016102bf939291906114b8565b6020604051808303816000875af11580156102de573d6000803e3d6000fd5b505050506040513d601f19601f82011682018060405250810190610302919061151b565b610341576040517f08c379a000000000000000000000000000000000000000000000000000000000815260040161033890611594565b60405180910390fd5b816004015482600701600082825461035991906115e3565b9250508190555081600601548260070154106103fc5760008260090160006101000a81548160ff0219169083151502179055508160010160009054906101000a900473ffffffffffffffffffffffffffffffffffffffff1673ffffffffffffffffffffffffffffffffffffffff16837fa3bab362c56d9c72948ee10e56218f16c5fa98dc088e4da691faa012cd16dc8560405160405180910390a3505050610495565b81600501544261040c91906115e3565b82600801819055508160010160009054906101000a900473ffffffffffffffffffffffffffffffffffffffff1673ffffffffffffffffffffffffffffffffffffffff16837f8ab83c4430024635edd71fef5c6913522144cac183fecf278259ca65d355b77984600401548560080154604051610489929190611617565b60405180910390a35050505b61049d610e6a565b5050565b600073ffffffffffffffffffffffffffffffffffffffff168673ffffffffffffffffffffffffffffffffffffffff1603610510576040517f08c379a00000000000000000000000000000000000000000000000000000000081526004016105079061168c565b60405180910390fd5b600073ffffffffffffffffffffffffffffffffffffffff168473ffffffffffffffffffffffffffffffffffffffff160361057f576040517f08c379a0000000000000000000000000000000000000000000000000000000008152600401610576906116f8565b60405180910390fd5b600083116105c2576040517f08c379a00000000000000000000000000000000000000000000000000000000081526004016105b990611764565b60405180910390fd5b82811015610605576040517f08c379a00000000000000000000000000000000000000000000000000000000081526004016105fc906117d0565b60405180910390fd5b603c821015610649576040517f08c379a00000000000000000000000000000000000000000000000000000000081526004016106409061183c565b60405180910390fd5b6001600081548092919061065c9061185c565b9190505550604051806101400160405280600073ffffffffffffffffffffffffffffffffffffffff1681526020018773ffffffffffffffffffffffffffffffffffffffff1681526020018681526020018573ffffffffffffffffffffffffffffffffffffffff16815260200184815260200183815260200182815260200160008152602001600081526020016000151581525060026000600154815260200190815260200160002060008201518160000160006101000a81548173ffffffffffffffffffffffffffffffffffffffff021916908373ffffffffffffffffffffffffffffffffffffffff16021790555060208201518160010160006101000a81548173ffffffffffffffffffffffffffffffffffffffff021916908373ffffffffffffffffffffffffffffffffffffffff16021790555060408201518160020190816107a79190611ab0565b5060608201518160030160006101000a81548173ffffffffffffffffffffffffffffffffffffffff021916908373ffffffffffffffffffffffffffffffffffffffff1602179055506080820151816004015560a0820151816005015560c0820151816006015560e0820151816007015561010082015181600801556101208201518160090160006101000a81548160ff0219169083151502179055509050508573ffffffffffffffffffffffffffffffffffffffff166001547feb60d1b76e681363ef82e8588496a2097279e71f177d8817dda75669ccfbd43f8787878787604051610897959493929190611b82565b60405180910390a3505050505050565b600060606000600190505b6001548111610af15760006002600083815260200190815260200160002090508060090160009054906101000a900460ff1680156108f7575080600601548160070154105b8015610907575080600801544210155b80156109da575080600401548160030160009054906101000a900473ffffffffffffffffffffffffffffffffffffffff1673ffffffffffffffffffffffffffffffffffffffff1663dd62ed3e8360000160009054906101000a900473ffffffffffffffffffffffffffffffffffffffff16306040518363ffffffff1660e01b8152600401610996929190611bdc565b602060405180830381865afa1580156109b3573d6000803e3d6000fd5b505050506040513d601f19601f820116820180604052508101906109d79190611c1a565b10155b8015610aab575080600401548160030160009054906101000a900473ffffffffffffffffffffffffffffffffffffffff1673ffffffffffffffffffffffffffffffffffffffff166370a082318360000160009054906101000a900473ffffffffffffffffffffffffffffffffffffffff166040518263ffffffff1660e01b8152600401610a679190611c47565b602060405180830381865afa158015610a84573d6000803e3d6000fd5b505050506040513d601f19601f82011682018060405250810190610aa89190611c1a565b10155b15610add57600182604051602001610ac39190611291565b604051602081830303815290604052935093505050610b09565b508080610ae99061185c565b9150506108b2565b50600060405180602001604052806000815250915091505b9250929050565b60015481565b60026020528060005260406000206000915090508060000160009054906101000a900473ffffffffffffffffffffffffffffffffffffffff16908060010160009054906101000a900473ffffffffffffffffffffffffffffffffffffffff1690806002018054610b85906118d3565b80601f0160208091040260200160405190810160405280929190818152602001828054610bb1906118d3565b8015610bfe5780601f10610bd357610100808354040283529160200191610bfe565b820191906000526020600020905b815481529060010190602001808311610be157829003601f168201915b5050505050908060030160009054906101000a900473ffffffffffffffffffffffffffffffffffffffff16908060040154908060050154908060060154908060070154908060080154908060090160009054906101000a900460ff1690508a565b60006002600083815260200190815260200160002090508060090160009054906101000a900460ff1615610cc8576040517f08c379a0000000000000000000000000000000000000000000000000000000008152600401610cbf90611cae565b60405180910390fd5b600073ffffffffffffffffffffffffffffffffffffffff168160000160009054906101000a900473ffffffffffffffffffffffffffffffffffffffff1673ffffffffffffffffffffffffffffffffffffffff1614610d5b576040517f08c379a0000000000000000000000000000000000000000000000000000000008152600401610d5290611d1a565b60405180910390fd5b338160000160006101000a81548173ffffffffffffffffffffffffffffffffffffffff021916908373ffffffffffffffffffffffffffffffffffffffff16021790555060018160090160006101000a81548160ff021916908315150217905550806005015442610dcb91906115e3565b81600801819055503373ffffffffffffffffffffffffffffffffffffffff16827f1f07c729fc76534d72c9e3ad0a792bf34de515a8aabc1a61bd40c2a2bd72ad8860405160405180910390a35050565b600260005403610e60576040517f08c379a0000000000000000000000000000000000000000000000000000000008152600401610e5790611d86565b60405180910390fd5b6002600081905550565b6001600081905550565b6000604051905090565b600080fd5b600080fd5b600080fd5b600080fd5b600080fd5b60008083601f840112610ead57610eac610e88565b5b8235905067ffffffffffffffff811115610eca57610ec9610e8d565b5b602083019150836001820283011115610ee657610ee5610e92565b5b9250929050565b60008060208385031215610f0457610f03610e7e565b5b600083013567ffffffffffffffff811115610f2257610f21610e83565b5b610f2e85828601610e97565b92509250509250929050565b600073ffffffffffffffffffffffffffffffffffffffff82169050919050565b6000610f6582610f3a565b9050919050565b610f7581610f5a565b8114610f8057600080fd5b50565b600081359050610f9281610f6c565b92915050565b600080fd5b6000601f19601f8301169050919050565b7f4e487b7100000000000000000000000000000000000000000000000000000000600052604160045260246000fd5b610fe682610f9d565b810181811067ffffffffffffffff8211171561100557611004610fae565b5b80604052505050565b6000611018610e74565b90506110248282610fdd565b919050565b600067ffffffffffffffff82111561104457611043610fae565b5b61104d82610f9d565b9050602081019050919050565b82818337600083830152505050565b600061107c61107784611029565b61100e565b90508281526020810184848401111561109857611097610f98565b5b6110a384828561105a565b509392505050565b600082601f8301126110c0576110bf610e88565b5b81356110d0848260208601611069565b91505092915050565b6000819050919050565b6110ec816110d9565b81146110f757600080fd5b50565b600081359050611109816110e3565b92915050565b60008060008060008060c0878903121561112c5761112b610e7e565b5b600061113a89828a01610f83565b965050602087013567ffffffffffffffff81111561115b5761115a610e83565b5b61116789828a016110ab565b955050604061117889828a01610f83565b945050606061118989828a016110fa565b935050608061119a89828a016110fa565b92505060a06111ab89828a016110fa565b9150509295509295509295565b60008115159050919050565b6111cd816111b8565b82525050565b600081519050919050565b600082825260208201905092915050565b60005b8381101561120d5780820151818401526020810190506111f2565b60008484015250505050565b6000611224826111d3565b61122e81856111de565b935061123e8185602086016111ef565b61124781610f9d565b840191505092915050565b600060408201905061126760008301856111c4565b81810360208301526112798184611219565b90509392505050565b61128b816110d9565b82525050565b60006020820190506112a66000830184611282565b92915050565b6000602082840312156112c2576112c1610e7e565b5b60006112d0848285016110fa565b91505092915050565b6112e281610f5a565b82525050565b600081519050919050565b600082825260208201905092915050565b600061130f826112e8565b61131981856112f3565b93506113298185602086016111ef565b61133281610f9d565b840191505092915050565b600061014082019050611353600083018d6112d9565b611360602083018c6112d9565b8181036040830152611372818b611304565b9050611381606083018a6112d9565b61138e6080830189611282565b61139b60a0830188611282565b6113a860c0830187611282565b6113b560e0830186611282565b6113c3610100830185611282565b6113d16101208301846111c4565b9b9a5050505050505050505050565b7f506c616e20696e61637469766500000000000000000000000000000000000000600082015250565b6000611416600d836112f3565b9150611421826113e0565b602082019050919050565b6000602082019050818103600083015261144581611409565b9050919050565b7f546f6f206561726c790000000000000000000000000000000000000000000000600082015250565b60006114826009836112f3565b915061148d8261144c565b602082019050919050565b600060208201905081810360008301526114b181611475565b9050919050565b60006060820190506114cd60008301866112d9565b6114da60208301856112d9565b6114e76040830184611282565b949350505050565b6114f8816111b8565b811461150357600080fd5b50565b600081519050611515816114ef565b92915050565b60006020828403121561153157611530610e7e565b5b600061153f84828501611506565b91505092915050565b7f5472616e73666572206661696c65640000000000000000000000000000000000600082015250565b600061157e600f836112f3565b915061158982611548565b602082019050919050565b600060208201905081810360008301526115ad81611571565b9050919050565b7f4e487b7100000000000000000000000000000000000000000000000000000000600052601160045260246000fd5b60006115ee826110d9565b91506115f9836110d9565b9250828201905080821115611611576116106115b4565b5b92915050565b600060408201905061162c6000830185611282565b6116396020830184611282565b9392505050565b7f496e76616c696420726563656976657200000000000000000000000000000000600082015250565b60006116766010836112f3565b915061168182611640565b602082019050919050565b600060208201905081810360008301526116a581611669565b9050919050565b7f496e76616c696420746f6b656e00000000000000000000000000000000000000600082015250565b60006116e2600d836112f3565b91506116ed826116ac565b602082019050919050565b60006020820190508181036000830152611711816116d5565b9050919050565b7f496e76616c696420454d49000000000000000000000000000000000000000000600082015250565b600061174e600b836112f3565b915061175982611718565b602082019050919050565b6000602082019050818103600083015261177d81611741565b9050919050565b7f546f74616c203c20454d49000000000000000000000000000000000000000000600082015250565b60006117ba600b836112f3565b91506117c582611784565b602082019050919050565b600060208201905081810360008301526117e9816117ad565b9050919050565b7f496e74657276616c203e3d2031206d696e757465000000000000000000000000600082015250565b60006118266014836112f3565b9150611831826117f0565b602082019050919050565b6000602082019050818103600083015261185581611819565b9050919050565b6000611867826110d9565b91507fffffffffffffffffffffffffffffffffffffffffffffffffffffffffffffffff8203611899576118986115b4565b5b600182019050919050565b7f4e487b7100000000000000000000000000000000000000000000000000000000600052602260045260246000fd5b600060028204905060018216806118eb57607f821691505b6020821081036118fe576118fd6118a4565b5b50919050565b60008190508160005260206000209050919050565b60006020601f8301049050919050565b600082821b905092915050565b6000600883026119667fffffffffffffffffffffffffffffffffffffffffffffffffffffffffffffffff82611929565b6119708683611929565b95508019841693508086168417925050509392505050565b6000819050919050565b60006119ad6119a86119a3846110d9565b611988565b6110d9565b9050919050565b6000819050919050565b6119c783611992565b6119db6119d3826119b4565b848454611936565b825550505050565b600090565b6119f06119e3565b6119fb8184846119be565b505050565b5b81811015611a1f57611a146000826119e8565b600181019050611a01565b5050565b601f821115611a6457611a3581611904565b611a3e84611919565b81016020851015611a4d578190505b611a61611a5985611919565b830182611a00565b50505b505050565b600082821c905092915050565b6000611a8760001984600802611a69565b1980831691505092915050565b6000611aa08383611a76565b9150826002028217905092915050565b611ab9826112e8565b67ffffffffffffffff811115611ad257611ad1610fae565b5b611adc82546118d3565b611ae7828285611a23565b600060209050601f831160018114611b1a5760008415611b08578287015190505b611b128582611a94565b865550611b7a565b601f198416611b2886611904565b60005b82811015611b5057848901518255600182019150602085019450602081019050611b2b565b86831015611b6d5784890151611b69601f891682611a76565b8355505b6001600288020188555050505b505050505050565b600060a0820190508181036000830152611b9c8188611304565b9050611bab60208301876112d9565b611bb86040830186611282565b611bc56060830185611282565b611bd26080830184611282565b9695505050505050565b6000604082019050611bf160008301856112d9565b611bfe60208301846112d9565b9392505050565b600081519050611c14816110e3565b92915050565b600060208284031215611c3057611c2f610e7e565b5b6000611c3e84828501611c05565b91505092915050565b6000602082019050611c5c60008301846112d9565b92915050565b7f416c726561647920616374697665000000000000000000000000000000000000600082015250565b6000611c98600e836112f3565b9150611ca382611c62565b602082019050919050565b60006020820190508181036000830152611cc781611c8b565b9050919050565b7f53656e64657220616c72656164792061737369676e6564000000000000000000600082015250565b6000611d046017836112f3565b9150611d0f82611cce565b602082019050919050565b60006020820190508181036000830152611d3381611cf7565b9050919050565b7f5265656e7472616e637947756172643a207265656e7472616e742063616c6c00600082015250565b6000611d70601f836112f3565b9150611d7b82611d3a565b602082019050919050565b60006020820190508181036000830152611d9f81611d63565b905091905056fea2646970667358221220a1e37b0ba1e0331b4e4cab43fb76eb8e9adb83948ba1f203533b3a51436f430364736f6c63430008140033",
  "linkReferences": {},
  "deployedLinkReferences": {}
}