{
  "_format": "hh-sol-artifact-1",
  "contractName": "EmiAutoPay",
  "sourceName": "contracts/EmiAutoPay.sol",
  "abi": [
    {
      "anonymous": false,
      "inputs": [
        {
          "indexed": false,
          "internalType": "uint256",
          "name": "planId",
          "type": "uint256"
        },
        {
          "indexed": false,
          "internalType": "address",
          "name": "sender",
          "type": "address"
        },
        {
          "indexed": false,
          "internalType": "uint256",
          "name": "amount",
          "type": "uint256"
        }
      ],
      "name": "Deposited",
      "type": "event"
    },
    {
      "anonymous": false,
      "inputs": [
        {
          "indexed": false,
          "internalType": "uint256",
          "name": "planId",
          "type": "uint256"
        },
        {
          "indexed": false,
          "internalType": "address",
          "name": "receiver",
          "type": "address"
        }
      ],
      "name": "EmiPlanCreated",
      "type": "event"
    },
    {
      "anonymous": false,
      "inputs": [
        {
          "indexed": false,
          "internalType": "uint256",
          "name": "planId",
          "type": "uint256"
        },
        {
          "indexed": false,
          "internalType": "uint256",
          "name": "amount",
          "type": "uint256"
        }
      ],
      "name": "EmiReleased",
      "type": "event"
    },
    {
      "anonymous": false,
      "inputs": [
        {
          "indexed": false,
          "internalType": "uint256",
          "name": "planId",
          "type": "uint256"
        }
      ],
      "name": "PlanCompleted",
      "type": "event"
    },
    {
      "inputs": [
        {
          "internalType": "bytes",
          "name": "",
          "type": "bytes"
        }
      ],
      "name": "checkUpkeep",
      "outputs": [
        {
          "internalType": "bool",
          "name": "",
          "type": "bool"
        },
        {
          "internalType": "bytes",
          "name": "",
          "type": "bytes"
        }
      ],
      "stateMutability": "view",
      "type": "function"
    },
    {
      "inputs": [
        {
          "internalType": "address",
          "name": "token",
          "type": "address"
        },
        {
          "internalType": "uint256",
          "name": "emiAmount",
          "type": "uint256"
        },
        {
          "internalType": "uint256",
          "name": "interval",
          "type": "uint256"
        },
        {
          "internalType": "uint256",
          "name": "totalAmount",
          "type": "uint256"
        }
      ],
      "name": "createEmiPlan",
      "outputs": [],
      "stateMutability": "nonpayable",
      "type": "function"
    },
    {
      "inputs": [
        {
          "internalType": "uint256",
          "name": "planId",
          "type": "uint256"
        },
        {
          "internalType": "uint256",
          "name": "amount",
          "type": "uint256"
        }
      ],
      "name": "deposit",
      "outputs": [],
      "stateMutability": "nonpayable",
      "type": "function"
    },
    {
      "inputs": [
        {
          "internalType": "bytes",
          "name": "data",
          "type": "bytes"
        }
      ],
      "name": "performUpkeep",
      "outputs": [],
      "stateMutability": "nonpayable",
      "type": "function"
    },
    {
      "inputs": [],
      "name": "planCounter",
      "outputs": [
        {
          "internalType": "uint256",
          "name": "",
          "type": "uint256"
        }
      ],
      "stateMutability": "view",
      "type": "function"
    },
    {
      "inputs": [
        {
          "internalType": "uint256",
          "name": "",
          "type": "uint256"
        }
      ],
      "name": "plans",
      "outputs": [
        {
          "internalType": "address",
          "name": "sender",
          "type": "address"
        },
        {
          "internalType": "address",
          "name": "receiver",
          "type": "address"
        },
        {
          "internalType": "address",
          "name": "token",
          "type": "address"
        },
        {
          "internalType": "uint256",
          "name": "emiAmount",
          "type": "uint256"
        },
        {
          "internalType": "uint256",
          "name": "interval",
          "type": "uint256"
        },
        {
          "internalType": "uint256",
          "name": "totalAmount",
          "type": "uint256"
        },
        {
          "internalType": "uint256",
          "name": "amountReleased",
          "type": "uint256"
        },
        {
          "internalType": "uint256",
          "name": "nextPaymentTime",
          "type": "uint256"
        },
        {
          "internalType": "bool",
          "name": "active",
          "type": "bool"
        }
      ],
      "stateMutability": "view",
      "type": "function"
    }
  ],
  "bytecode": "0x608060405234801561001057600080fd5b506001600081905550611626806100286000396000f3fe608060405234801561001057600080fd5b50600436106100625760003560e01c80634585e33b146100675780636e04ff0d14610083578063a36a38ed146100b4578063b1620616146100d2578063e2bbb1581461010a578063e39a75c014610126575b600080fd5b610081600480360381019061007c9190610c67565b610142565b005b61009d60048036038101906100989190610c67565b6104bc565b6040516100ab929190610d5f565b60405180910390f35b6100bc610581565b6040516100c99190610da8565b60405180910390f35b6100ec60048036038101906100e79190610def565b610587565b60405161010199989796959493929190610e5d565b60405180910390f35b610124600480360381019061011f9190610eea565b610642565b005b610140600480360381019061013b9190610f56565b6108b4565b005b61014a610b9f565b6000828281019061015b9190610def565b90506000600260008381526020019081526020016000209050600073ffffffffffffffffffffffffffffffffffffffff168160010160009054906101000a900473ffffffffffffffffffffffffffffffffffffffff1673ffffffffffffffffffffffffffffffffffffffff1603610207576040517f08c379a00000000000000000000000000000000000000000000000000000000081526004016101fe9061101a565b60405180910390fd5b8060080160009054906101000a900460ff16610258576040517f08c379a000000000000000000000000000000000000000000000000000000000815260040161024f90611086565b60405180910390fd5b806007015442101561029f576040517f08c379a0000000000000000000000000000000000000000000000000000000008152600401610296906110f2565b60405180910390fd5b6000816006015482600501546102b59190611141565b90506000826003015482106102ce5782600301546102d0565b815b90508260020160009054906101000a900473ffffffffffffffffffffffffffffffffffffffff1673ffffffffffffffffffffffffffffffffffffffff1663a9059cbb8460010160009054906101000a900473ffffffffffffffffffffffffffffffffffffffff16836040518363ffffffff1660e01b8152600401610355929190611175565b6020604051808303816000875af1158015610374573d6000803e3d6000fd5b505050506040513d601f19601f8201168201806040525081019061039891906111ca565b6103d7576040517f08c379a00000000000000000000000000000000000000000000000000000000081526004016103ce90611243565b60405180910390fd5b808360060160008282546103eb9190611263565b92505081905550826005015483600601541061045a5760008360080160006101000a81548160ff0219169083151502179055507fd3abf0be8d6454c0f049177f495a98b16bdc964d8271ea4d2212a17e4de6ccac8460405161044d9190610da8565b60405180910390a1610473565b82600401544261046a9190611263565b83600701819055505b7f38bcb7356f1f4d928e6a57f58f810a01645dedb91f01bbb3ddc314352c7525c884826040516104a4929190611297565b60405180910390a1505050506104b8610bee565b5050565b600060606000600190505b60015481116105625760006002600083815260200190815260200160002090508060080160009054906101000a900460ff168015610509575080600701544210155b801561051c575080600501548160060154105b1561054e576001826040516020016105349190610da8565b60405160208183030381529060405293509350505061057a565b50808061055a906112c0565b9150506104c7565b50600060405180602001604052806000815250915091505b9250929050565b60015481565b60026020528060005260406000206000915090508060000160009054906101000a900473ffffffffffffffffffffffffffffffffffffffff16908060010160009054906101000a900473ffffffffffffffffffffffffffffffffffffffff16908060020160009054906101000a900473ffffffffffffffffffffffffffffffffffffffff16908060030154908060040154908060050154908060060154908060070154908060080160009054906101000a900460ff16905089565b61064a610b9f565b60006002600084815260200190815260200160002090508060080160009054906101000a900460ff16156106b3576040517f08c379a00000000000000000000000000000000000000000000000000000000081526004016106aa90611354565b60405180910390fd5b80600501548210156106fa576040517f08c379a00000000000000000000000000000000000000000000000000000000081526004016106f1906113c0565b60405180910390fd5b8060020160009054906101000a900473ffffffffffffffffffffffffffffffffffffffff1673ffffffffffffffffffffffffffffffffffffffff1663a9059cbb8260010160009054906101000a900473ffffffffffffffffffffffffffffffffffffffff1683600301546040518363ffffffff1660e01b8152600401610781929190611175565b6020604051808303816000875af11580156107a0573d6000803e3d6000fd5b505050506040513d601f19601f820116820180604052508101906107c491906111ca565b610803576040517f08c379a00000000000000000000000000000000000000000000000000000000081526004016107fa90611243565b60405180910390fd5b338160000160006101000a81548173ffffffffffffffffffffffffffffffffffffffff021916908373ffffffffffffffffffffffffffffffffffffffff16021790555060018160080160006101000a81548160ff0219169083151502179055504281600701819055507f1599c0fcf897af5babc2bfcf707f5dc050f841b044d97c3251ecec35b9abf80b83338460405161089f939291906113e0565b60405180910390a1506108b0610bee565b5050565b600083116108f7576040517f08c379a00000000000000000000000000000000000000000000000000000000081526004016108ee90611463565b60405180910390fd5b8281101561093a576040517f08c379a0000000000000000000000000000000000000000000000000000000008152600401610931906114cf565b60405180910390fd5b603c82101561097e576040517f08c379a00000000000000000000000000000000000000000000000000000000081526004016109759061153b565b60405180910390fd5b60016000815480929190610991906112c0565b9190505550604051806101200160405280600073ffffffffffffffffffffffffffffffffffffffff1681526020013373ffffffffffffffffffffffffffffffffffffffff1681526020018573ffffffffffffffffffffffffffffffffffffffff16815260200184815260200183815260200182815260200160008152602001600081526020016000151581525060026000600154815260200190815260200160002060008201518160000160006101000a81548173ffffffffffffffffffffffffffffffffffffffff021916908373ffffffffffffffffffffffffffffffffffffffff16021790555060208201518160010160006101000a81548173ffffffffffffffffffffffffffffffffffffffff021916908373ffffffffffffffffffffffffffffffffffffffff16021790555060408201518160020160006101000a81548173ffffffffffffffffffffffffffffffffffffffff021916908373ffffffffffffffffffffffffffffffffffffffff160217905550606082015181600301556080820151816004015560a0820151816005015560c0820151816006015560e082015181600701556101008201518160080160006101000a81548160ff0219169083151502179055509050507fbdb1d7efd6f9632e5aa541aa6d57f0fc4f3a18a6eed668d3c90d45350746ab1360015433604051610b9192919061155b565b60405180910390a150505050565b600260005403610be4576040517f08c379a0000000000000000000000000000000000000000000000000000000008152600401610bdb906115d0565b60405180910390fd5b6002600081905550565b6001600081905550565b600080fd5b600080fd5b600080fd5b600080fd5b600080fd5b60008083601f840112610c2757610c26610c02565b5b8235905067ffffffffffffffff811115610c4457610c43610c07565b5b602083019150836001820283011115610c6057610c5f610c0c565b5b9250929050565b60008060208385031215610c7e57610c7d610bf8565b5b600083013567ffffffffffffffff811115610c9c57610c9b610bfd565b5b610ca885828601610c11565b92509250509250929050565b60008115159050919050565b610cc981610cb4565b82525050565b600081519050919050565b600082825260208201905092915050565b60005b83811015610d09578082015181840152602081019050610cee565b60008484015250505050565b6000601f19601f8301169050919050565b6000610d3182610ccf565b610d3b8185610cda565b9350610d4b818560208601610ceb565b610d5481610d15565b840191505092915050565b6000604082019050610d746000830185610cc0565b8181036020830152610d868184610d26565b90509392505050565b6000819050919050565b610da281610d8f565b82525050565b6000602082019050610dbd6000830184610d99565b92915050565b610dcc81610d8f565b8114610dd757600080fd5b50565b600081359050610de981610dc3565b92915050565b600060208284031215610e0557610e04610bf8565b5b6000610e1384828501610dda565b91505092915050565b600073ffffffffffffffffffffffffffffffffffffffff82169050919050565b6000610e4782610e1c565b9050919050565b610e5781610e3c565b82525050565b600061012082019050610e73600083018c610e4e565b610e80602083018b610e4e565b610e8d604083018a610e4e565b610e9a6060830189610d99565b610ea76080830188610d99565b610eb460a0830187610d99565b610ec160c0830186610d99565b610ece60e0830185610d99565b610edc610100830184610cc0565b9a9950505050505050505050565b60008060408385031215610f0157610f00610bf8565b5b6000610f0f85828601610dda565b9250506020610f2085828601610dda565b9150509250929050565b610f3381610e3c565b8114610f3e57600080fd5b50565b600081359050610f5081610f2a565b92915050565b60008060008060808587031215610f7057610f6f610bf8565b5b6000610f7e87828801610f41565b9450506020610f8f87828801610dda565b9350506040610fa087828801610dda565b9250506060610fb187828801610dda565b91505092959194509250565b600082825260208201905092915050565b7f496e76616c696420706c616e0000000000000000000000000000000000000000600082015250565b6000611004600c83610fbd565b915061100f82610fce565b602082019050919050565b6000602082019050818103600083015261103381610ff7565b9050919050565b7f496e616374697665000000000000000000000000000000000000000000000000600082015250565b6000611070600883610fbd565b915061107b8261103a565b602082019050919050565b6000602082019050818103600083015261109f81611063565b9050919050565b7f546f6f206561726c790000000000000000000000000000000000000000000000600082015250565b60006110dc600983610fbd565b91506110e7826110a6565b602082019050919050565b6000602082019050818103600083015261110b816110cf565b9050919050565b7f4e487b7100000000000000000000000000000000000000000000000000000000600052601160045260246000fd5b600061114c82610d8f565b915061115783610d8f565b925082820390508181111561116f5761116e611112565b5b92915050565b600060408201905061118a6000830185610e4e565b6111976020830184610d99565b9392505050565b6111a781610cb4565b81146111b257600080fd5b50565b6000815190506111c48161119e565b92915050565b6000602082840312156111e0576111df610bf8565b5b60006111ee848285016111b5565b91505092915050565b7f454d49207472616e73666572206661696c656400000000000000000000000000600082015250565b600061122d601383610fbd565b9150611238826111f7565b602082019050919050565b6000602082019050818103600083015261125c81611220565b9050919050565b600061126e82610d8f565b915061127983610d8f565b925082820190508082111561129157611290611112565b5b92915050565b60006040820190506112ac6000830185610d99565b6112b96020830184610d99565b9392505050565b60006112cb82610d8f565b91507fffffffffffffffffffffffffffffffffffffffffffffffffffffffffffffffff82036112fd576112fc611112565b5b600182019050919050565b7f416c726561647920616374697665000000000000000000000000000000000000600082015250565b600061133e600e83610fbd565b915061134982611308565b602082019050919050565b6000602082019050818103600083015261136d81611331565b9050919050565b7f53656e642066756c6c20616d6f756e7400000000000000000000000000000000600082015250565b60006113aa601083610fbd565b91506113b582611374565b602082019050919050565b600060208201905081810360008301526113d98161139d565b9050919050565b60006060820190506113f56000830186610d99565b6114026020830185610e4e565b61140f6040830184610d99565b949350505050565b7f496e76616c696420454d49000000000000000000000000000000000000000000600082015250565b600061144d600b83610fbd565b915061145882611417565b602082019050919050565b6000602082019050818103600083015261147c81611440565b9050919050565b7f546f74616c203c20454d49000000000000000000000000000000000000000000600082015250565b60006114b9600b83610fbd565b91506114c482611483565b602082019050919050565b600060208201905081810360008301526114e8816114ac565b9050919050565b7f4d696e2031206d696e0000000000000000000000000000000000000000000000600082015250565b6000611525600983610fbd565b9150611530826114ef565b602082019050919050565b6000602082019050818103600083015261155481611518565b9050919050565b60006040820190506115706000830185610d99565b61157d6020830184610e4e565b9392505050565b7f5265656e7472616e637947756172643a207265656e7472616e742063616c6c00600082015250565b60006115ba601f83610fbd565b91506115c582611584565b602082019050919050565b600060208201905081810360008301526115e9816115ad565b905091905056fea26469706673582212202008add3420aaf80f2847e21d00faa5b768f00efb744cf1bccea38f3eca3f5ae64736f6c63430008140033",
  "linkReferences": {},
  "deployedLinkReferences": {}
}