{
  "_format": "hh-sol-artifact-1",
  "contractName": "EmiAutoPay",
  "sourceName": "contracts/EmiAutoPay.sol",
  "abi": [
    {
      "anonymous": false,
      "inputs": [
        {
          "indexed": true,
          "internalType": "uint256",
          "name": "planId",
          "type": "uint256"
        }
      ],
      "name": "EmiCompleted",
      "type": "event"
    },
    {
      "anonymous": false,
      "inputs": [
        {
          "indexed": true,
          "internalType": "uint256",
          "name": "planId",
          "type": "uint256"
        },
        {
          "indexed": false,
          "internalType": "address",
          "name": "receiver",
          "type": "address"
        },
        {
          "indexed": false,
          "internalType": "uint256",
          "name": "amount",
          "type": "uint256"
        }
      ],
      "name": "EmiPaid",
      "type": "event"
    },
    {
      "anonymous": false,
      "inputs": [
        {
          "indexed": true,
          "internalType": "uint256",
          "name": "planId",
          "type": "uint256"
        },
        {
          "indexed": true,
          "internalType": "address",
          "name": "receiver",
          "type": "address"
        },
        {
          "indexed": false,
          "internalType": "address",
          "name": "token",
          "type": "address"
        },
        {
          "indexed": false,
          "internalType": "uint256",
          "name": "emiAmount",
          "type": "uint256"
        },
        {
          "indexed": false,
          "internalType": "uint256",
          "name": "interval",
          "type": "uint256"
        },
        {
          "indexed": false,
          "internalType": "uint256",
          "name": "totalAmount",
          "type": "uint256"
        }
      ],
      "name": "EmiPlanCreated",
      "type": "event"
    },
    {
      "anonymous": false,
      "inputs": [
        {
          "indexed": true,
          "internalType": "uint256",
          "name": "planId",
          "type": "uint256"
        },
        {
          "indexed": true,
          "internalType": "address",
          "name": "sender",
          "type": "address"
        }
      ],
      "name": "PlanActivated",
      "type": "event"
    },
    {
      "inputs": [
        {
          "internalType": "bytes",
          "name": "",
          "type": "bytes"
        }
      ],
      "name": "checkUpkeep",
      "outputs": [
        {
          "internalType": "bool",
          "name": "upkeepNeeded",
          "type": "bool"
        },
        {
          "internalType": "bytes",
          "name": "performData",
          "type": "bytes"
        }
      ],
      "stateMutability": "view",
      "type": "function"
    },
    {
      "inputs": [
        {
          "internalType": "address",
          "name": "receiver",
          "type": "address"
        },
        {
          "internalType": "address",
          "name": "token",
          "type": "address"
        },
        {
          "internalType": "uint256",
          "name": "emiAmount",
          "type": "uint256"
        },
        {
          "internalType": "uint256",
          "name": "interval",
          "type": "uint256"
        },
        {
          "internalType": "uint256",
          "name": "totalAmount",
          "type": "uint256"
        }
      ],
      "name": "createEmiPlan",
      "outputs": [],
      "stateMutability": "nonpayable",
      "type": "function"
    },
    {
      "inputs": [
        {
          "internalType": "bytes",
          "name": "performData",
          "type": "bytes"
        }
      ],
      "name": "performUpkeep",
      "outputs": [],
      "stateMutability": "nonpayable",
      "type": "function"
    },
    {
      "inputs": [],
      "name": "planCounter",
      "outputs": [
        {
          "internalType": "uint256",
          "name": "",
          "type": "uint256"
        }
      ],
      "stateMutability": "view",
      "type": "function"
    },
    {
      "inputs": [
        {
          "internalType": "uint256",
          "name": "",
          "type": "uint256"
        }
      ],
      "name": "plans",
      "outputs": [
        {
          "internalType": "address",
          "name": "sender",
          "type": "address"
        },
        {
          "internalType": "address",
          "name": "receiver",
          "type": "address"
        },
        {
          "internalType": "address",
          "name": "token",
          "type": "address"
        },
        {
          "internalType": "uint256",
          "name": "emiAmount",
          "type": "uint256"
        },
        {
          "internalType": "uint256",
          "name": "interval",
          "type": "uint256"
        },
        {
          "internalType": "uint256",
          "name": "totalAmount",
          "type": "uint256"
        },
        {
          "internalType": "uint256",
          "name": "amountPaid",
          "type": "uint256"
        },
        {
          "internalType": "uint256",
          "name": "nextPaymentTime",
          "type": "uint256"
        },
        {
          "internalType": "bool",
          "name": "isActive",
          "type": "bool"
        }
      ],
      "stateMutability": "view",
      "type": "function"
    },
    {
      "inputs": [
        {
          "internalType": "uint256",
          "name": "planId",
          "type": "uint256"
        },
        {
          "internalType": "uint256",
          "name": "amount",
          "type": "uint256"
        }
      ],
      "name": "receivePayment",
      "outputs": [],
      "stateMutability": "nonpayable",
      "type": "function"
    }
  ],
  "bytecode": "0x608060405234801561001057600080fd5b506001600081905550611e64806100286000396000f3fe608060405234801561001057600080fd5b50600436106100625760003560e01c80634585e33b146100675780636e04ff0d1461008357806387226f3d146100b4578063a36a38ed146100d0578063b1620616146100ee578063ded1e6eb14610126575b600080fd5b610081600480360381019061007c9190611173565b610142565b005b61009d60048036038101906100989190611173565b6105df565b6040516100ab92919061126b565b60405180910390f35b6100ce60048036038101906100c9919061132f565b610777565b005b6100d8610b5d565b6040516100e591906113b9565b60405180910390f35b610108600480360381019061010391906113d4565b610b63565b60405161011d99989796959493929190611410565b60405180910390f35b610140600480360381019061013b919061149d565b610c1e565b005b61014a6110ab565b6000828281019061015b91906113d4565b905060006002600083815260200190815260200160002090508060080160009054906101000a900460ff166101c5576040517f08c379a00000000000000000000000000000000000000000000000000000000081526004016101bc9061153a565b60405180910390fd5b806005015481600601541061020f576040517f08c379a0000000000000000000000000000000000000000000000000000000008152600401610206906115a6565b60405180910390fd5b8060070154421015610256576040517f08c379a000000000000000000000000000000000000000000000000000000000815260040161024d90611612565b60405180910390fd5b60008160020160009054906101000a900473ffffffffffffffffffffffffffffffffffffffff16905081600301548173ffffffffffffffffffffffffffffffffffffffff1663dd62ed3e8460000160009054906101000a900473ffffffffffffffffffffffffffffffffffffffff16306040518363ffffffff1660e01b81526004016102e3929190611632565b602060405180830381865afa158015610300573d6000803e3d6000fd5b505050506040513d601f19601f820116820180604052508101906103249190611670565b1015610365576040517f08c379a000000000000000000000000000000000000000000000000000000000815260040161035c906116e9565b60405180910390fd5b60008173ffffffffffffffffffffffffffffffffffffffff166323b872dd8460000160009054906101000a900473ffffffffffffffffffffffffffffffffffffffff168560010160009054906101000a900473ffffffffffffffffffffffffffffffffffffffff1686600301546040518463ffffffff1660e01b81526004016103f093929190611709565b6020604051808303816000875af115801561040f573d6000803e3d6000fd5b505050506040513d601f19601f82011682018060405250810190610433919061176c565b905080610475576040517f08c379a000000000000000000000000000000000000000000000000000000000815260040161046c906117e5565b60405180910390fd5b826003015483600601600082825461048d9190611834565b9250508190555082600501548360060154106105545760008360080160006101000a81548160ff021916908315150217905550837ffcdb70ec34e50c8a6b968805fe08898ed287d82b5e8c24c5a672b0d4bd0bad128460010160009054906101000a900473ffffffffffffffffffffffffffffffffffffffff16856003015460405161051a929190611868565b60405180910390a2837f5417900f2b30001c152939c30dea707712a1b6254728bc12c5bf0137cb36e9a060405160405180910390a26105cf565b8260040154426105649190611834565b8360070181905550837ffcdb70ec34e50c8a6b968805fe08898ed287d82b5e8c24c5a672b0d4bd0bad128460010160009054906101000a900473ffffffffffffffffffffffffffffffffffffffff1685600301546040516105c6929190611868565b60405180910390a25b505050506105db6110fa565b5050565b600060606000600190505b60015481116107585760006002600083815260200190815260200160002090508060080160009054906101000a900460ff16801561062f575080600501548160060154105b801561063f575080600701544210155b8015610712575080600301548160020160009054906101000a900473ffffffffffffffffffffffffffffffffffffffff1673ffffffffffffffffffffffffffffffffffffffff1663dd62ed3e8360000160009054906101000a900473ffffffffffffffffffffffffffffffffffffffff16306040518363ffffffff1660e01b81526004016106ce929190611632565b602060405180830381865afa1580156106eb573d6000803e3d6000fd5b505050506040513d601f19601f8201168201806040525081019061070f9190611670565b10155b156107445760018260405160200161072a91906113b9565b604051602081830303815290604052935093505050610770565b50808061075090611891565b9150506105ea565b50600060405180602001604052806000815250915091505b9250929050565b600073ffffffffffffffffffffffffffffffffffffffff168573ffffffffffffffffffffffffffffffffffffffff16036107e6576040517f08c379a00000000000000000000000000000000000000000000000000000000081526004016107dd90611925565b60405180910390fd5b600073ffffffffffffffffffffffffffffffffffffffff168473ffffffffffffffffffffffffffffffffffffffff1603610855576040517f08c379a000000000000000000000000000000000000000000000000000000000815260040161084c90611991565b60405180910390fd5b603c821015610899576040517f08c379a0000000000000000000000000000000000000000000000000000000008152600401610890906119fd565b60405180910390fd5b600083116108dc576040517f08c379a00000000000000000000000000000000000000000000000000000000081526004016108d390611a69565b60405180910390fd5b8281101561091f576040517f08c379a000000000000000000000000000000000000000000000000000000000815260040161091690611ad5565b60405180910390fd5b6001600081548092919061093290611891565b9190505550604051806101200160405280600073ffffffffffffffffffffffffffffffffffffffff1681526020018673ffffffffffffffffffffffffffffffffffffffff1681526020018573ffffffffffffffffffffffffffffffffffffffff16815260200184815260200183815260200182815260200160008152602001600081526020016000151581525060026000600154815260200190815260200160002060008201518160000160006101000a81548173ffffffffffffffffffffffffffffffffffffffff021916908373ffffffffffffffffffffffffffffffffffffffff16021790555060208201518160010160006101000a81548173ffffffffffffffffffffffffffffffffffffffff021916908373ffffffffffffffffffffffffffffffffffffffff16021790555060408201518160020160006101000a81548173ffffffffffffffffffffffffffffffffffffffff021916908373ffffffffffffffffffffffffffffffffffffffff160217905550606082015181600301556080820151816004015560a0820151816005015560c0820151816006015560e082015181600701556101008201518160080160006101000a81548160ff0219169083151502179055509050508473ffffffffffffffffffffffffffffffffffffffff166001547fcdb984ec4074b487d3ab26bf1b6c708d5a85749749c4edbf56da8fdc902fd8a086868686604051610b4e9493929190611af5565b60405180910390a35050505050565b60015481565b60026020528060005260406000206000915090508060000160009054906101000a900473ffffffffffffffffffffffffffffffffffffffff16908060010160009054906101000a900473ffffffffffffffffffffffffffffffffffffffff16908060020160009054906101000a900473ffffffffffffffffffffffffffffffffffffffff16908060030154908060040154908060050154908060060154908060070154908060080160009054906101000a900460ff16905089565b610c266110ab565b60006002600084815260200190815260200160002090508060080160009054906101000a900460ff1615610c8f576040517f08c379a0000000000000000000000000000000000000000000000000000000008152600401610c8690611b86565b60405180910390fd5b8060030154821015610cd6576040517f08c379a0000000000000000000000000000000000000000000000000000000008152600401610ccd90611bf2565b60405180910390fd5b8060050154821115610d1d576040517f08c379a0000000000000000000000000000000000000000000000000000000008152600401610d1490611c5e565b60405180910390fd5b600073ffffffffffffffffffffffffffffffffffffffff168160010160009054906101000a900473ffffffffffffffffffffffffffffffffffffffff1673ffffffffffffffffffffffffffffffffffffffff1603610db0576040517f08c379a0000000000000000000000000000000000000000000000000000000008152600401610da790611cca565b60405180910390fd5b60008160020160009054906101000a900473ffffffffffffffffffffffffffffffffffffffff169050828173ffffffffffffffffffffffffffffffffffffffff1663dd62ed3e33306040518363ffffffff1660e01b8152600401610e15929190611632565b602060405180830381865afa158015610e32573d6000803e3d6000fd5b505050506040513d601f19601f82011682018060405250810190610e569190611670565b1015610e97576040517f08c379a0000000000000000000000000000000000000000000000000000000008152600401610e8e90611d36565b60405180910390fd5b8073ffffffffffffffffffffffffffffffffffffffff166323b872dd338460010160009054906101000a900473ffffffffffffffffffffffffffffffffffffffff16866040518463ffffffff1660e01b8152600401610ef893929190611709565b6020604051808303816000875af1158015610f17573d6000803e3d6000fd5b505050506040513d601f19601f82011682018060405250810190610f3b919061176c565b610f7a576040517f08c379a0000000000000000000000000000000000000000000000000000000008152600401610f7190611da2565b60405180910390fd5b338260000160006101000a81548173ffffffffffffffffffffffffffffffffffffffff021916908373ffffffffffffffffffffffffffffffffffffffff16021790555060018260080160006101000a81548160ff021916908315150217905550828260060181905550816004015442610ff39190611834565b82600701819055503373ffffffffffffffffffffffffffffffffffffffff16847f1f07c729fc76534d72c9e3ad0a792bf34de515a8aabc1a61bd40c2a2bd72ad8860405160405180910390a3837ffcdb70ec34e50c8a6b968805fe08898ed287d82b5e8c24c5a672b0d4bd0bad128360010160009054906101000a900473ffffffffffffffffffffffffffffffffffffffff1685604051611095929190611868565b60405180910390a250506110a76110fa565b5050565b6002600054036110f0576040517f08c379a00000000000000000000000000000000000000000000000000000000081526004016110e790611e0e565b60405180910390fd5b6002600081905550565b6001600081905550565b600080fd5b600080fd5b600080fd5b600080fd5b600080fd5b60008083601f8401126111335761113261110e565b5b8235905067ffffffffffffffff8111156111505761114f611113565b5b60208301915083600182028301111561116c5761116b611118565b5b9250929050565b6000806020838503121561118a57611189611104565b5b600083013567ffffffffffffffff8111156111a8576111a7611109565b5b6111b48582860161111d565b92509250509250929050565b60008115159050919050565b6111d5816111c0565b82525050565b600081519050919050565b600082825260208201905092915050565b60005b838110156112155780820151818401526020810190506111fa565b60008484015250505050565b6000601f19601f8301169050919050565b600061123d826111db565b61124781856111e6565b93506112578185602086016111f7565b61126081611221565b840191505092915050565b600060408201905061128060008301856111cc565b81810360208301526112928184611232565b90509392505050565b600073ffffffffffffffffffffffffffffffffffffffff82169050919050565b60006112c68261129b565b9050919050565b6112d6816112bb565b81146112e157600080fd5b50565b6000813590506112f3816112cd565b92915050565b6000819050919050565b61130c816112f9565b811461131757600080fd5b50565b60008135905061132981611303565b92915050565b600080600080600060a0868803121561134b5761134a611104565b5b6000611359888289016112e4565b955050602061136a888289016112e4565b945050604061137b8882890161131a565b935050606061138c8882890161131a565b925050608061139d8882890161131a565b9150509295509295909350565b6113b3816112f9565b82525050565b60006020820190506113ce60008301846113aa565b92915050565b6000602082840312156113ea576113e9611104565b5b60006113f88482850161131a565b91505092915050565b61140a816112bb565b82525050565b600061012082019050611426600083018c611401565b611433602083018b611401565b611440604083018a611401565b61144d60608301896113aa565b61145a60808301886113aa565b61146760a08301876113aa565b61147460c08301866113aa565b61148160e08301856113aa565b61148f6101008301846111cc565b9a9950505050505050505050565b600080604083850312156114b4576114b3611104565b5b60006114c28582860161131a565b92505060206114d38582860161131a565b9150509250929050565b600082825260208201905092915050565b7f506c616e206e6f74206163746976650000000000000000000000000000000000600082015250565b6000611524600f836114dd565b915061152f826114ee565b602082019050919050565b6000602082019050818103600083015261155381611517565b9050919050565b7f506c616e20616c726561647920636f6d706c6574656400000000000000000000600082015250565b60006115906016836114dd565b915061159b8261155a565b602082019050919050565b600060208201905081810360008301526115bf81611583565b9050919050565b7f546f6f206561726c790000000000000000000000000000000000000000000000600082015250565b60006115fc6009836114dd565b9150611607826115c6565b602082019050919050565b6000602082019050818103600083015261162b816115ef565b9050919050565b60006040820190506116476000830185611401565b6116546020830184611401565b9392505050565b60008151905061166a81611303565b92915050565b60006020828403121561168657611685611104565b5b60006116948482850161165b565b91505092915050565b7f496e73756666696369656e7420616c6c6f77616e636520666f7220454d490000600082015250565b60006116d3601e836114dd565b91506116de8261169d565b602082019050919050565b60006020820190508181036000830152611702816116c6565b9050919050565b600060608201905061171e6000830186611401565b61172b6020830185611401565b61173860408301846113aa565b949350505050565b611749816111c0565b811461175457600080fd5b50565b60008151905061176681611740565b92915050565b60006020828403121561178257611781611104565b5b600061179084828501611757565b91505092915050565b7f454d49207472616e73666572206661696c656400000000000000000000000000600082015250565b60006117cf6013836114dd565b91506117da82611799565b602082019050919050565b600060208201905081810360008301526117fe816117c2565b9050919050565b7f4e487b7100000000000000000000000000000000000000000000000000000000600052601160045260246000fd5b600061183f826112f9565b915061184a836112f9565b925082820190508082111561186257611861611805565b5b92915050565b600060408201905061187d6000830185611401565b61188a60208301846113aa565b9392505050565b600061189c826112f9565b91507fffffffffffffffffffffffffffffffffffffffffffffffffffffffffffffffff82036118ce576118cd611805565b5b600182019050919050565b7f496e76616c696420726563656976657200000000000000000000000000000000600082015250565b600061190f6010836114dd565b915061191a826118d9565b602082019050919050565b6000602082019050818103600083015261193e81611902565b9050919050565b7f496e76616c696420746f6b656e00000000000000000000000000000000000000600082015250565b600061197b600d836114dd565b915061198682611945565b602082019050919050565b600060208201905081810360008301526119aa8161196e565b9050919050565b7f4d696e2031206d696e0000000000000000000000000000000000000000000000600082015250565b60006119e76009836114dd565b91506119f2826119b1565b602082019050919050565b60006020820190508181036000830152611a16816119da565b9050919050565b7f496e76616c696420454d4920616d6f756e740000000000000000000000000000600082015250565b6000611a536012836114dd565b9150611a5e82611a1d565b602082019050919050565b60006020820190508181036000830152611a8281611a46565b9050919050565b7f546f74616c203c20454d49000000000000000000000000000000000000000000600082015250565b6000611abf600b836114dd565b9150611aca82611a89565b602082019050919050565b60006020820190508181036000830152611aee81611ab2565b9050919050565b6000608082019050611b0a6000830187611401565b611b1760208301866113aa565b611b2460408301856113aa565b611b3160608301846113aa565b95945050505050565b7f506c616e20616c72656164792061637469766500000000000000000000000000600082015250565b6000611b706013836114dd565b9150611b7b82611b3a565b602082019050919050565b60006020820190508181036000830152611b9f81611b63565b9050919050565b7f416d6f756e74203c20454d490000000000000000000000000000000000000000600082015250565b6000611bdc600c836114dd565b9150611be782611ba6565b602082019050919050565b60006020820190508181036000830152611c0b81611bcf565b9050919050565b7f416d6f756e74206578636565647320746f74616c000000000000000000000000600082015250565b6000611c486014836114dd565b9150611c5382611c12565b602082019050919050565b60006020820190508181036000830152611c7781611c3b565b9050919050565b7f506c616e20646f6573206e6f7420657869737400000000000000000000000000600082015250565b6000611cb46013836114dd565b9150611cbf82611c7e565b602082019050919050565b60006020820190508181036000830152611ce381611ca7565b9050919050565b7f417070726f766520746f6b656e20666972737400000000000000000000000000600082015250565b6000611d206013836114dd565b9150611d2b82611cea565b602082019050919050565b60006020820190508181036000830152611d4f81611d13565b9050919050565b7f5472616e73666572206661696c65640000000000000000000000000000000000600082015250565b6000611d8c600f836114dd565b9150611d9782611d56565b602082019050919050565b60006020820190508181036000830152611dbb81611d7f565b9050919050565b7f5265656e7472616e637947756172643a207265656e7472616e742063616c6c00600082015250565b6000611df8601f836114dd565b9150611e0382611dc2565b602082019050919050565b60006020820190508181036000830152611e2781611deb565b905091905056fea2646970667358221220a57f2c57e9e386a4d652fe2ce10dc50b2947ce08255525d03333af17a53f7bf464736f6c63430008140033",
  "linkReferences": {},
  "deployedLinkReferences": {}
}