{
  "_format": "hh-sol-artifact-1",
  "contractName": "EmiAutoPay",
  "sourceName": "contracts/EmiAutoPay.sol",
  "abi": [
    {
      "anonymous": false,
      "inputs": [
        {
          "indexed": true,
          "internalType": "uint256",
          "name": "planId",
          "type": "uint256"
        }
      ],
      "name": "EmiCompleted",
      "type": "event"
    },
    {
      "anonymous": false,
      "inputs": [
        {
          "indexed": true,
          "internalType": "uint256",
          "name": "planId",
          "type": "uint256"
        },
        {
          "indexed": false,
          "internalType": "address",
          "name": "receiver",
          "type": "address"
        },
        {
          "indexed": false,
          "internalType": "uint256",
          "name": "amount",
          "type": "uint256"
        }
      ],
      "name": "EmiPaid",
      "type": "event"
    },
    {
      "anonymous": false,
      "inputs": [
        {
          "indexed": true,
          "internalType": "uint256",
          "name": "planId",
          "type": "uint256"
        },
        {
          "indexed": true,
          "internalType": "address",
          "name": "receiver",
          "type": "address"
        },
        {
          "indexed": false,
          "internalType": "address",
          "name": "token",
          "type": "address"
        },
        {
          "indexed": false,
          "internalType": "uint256",
          "name": "emiAmount",
          "type": "uint256"
        },
        {
          "indexed": false,
          "internalType": "uint256",
          "name": "interval",
          "type": "uint256"
        },
        {
          "indexed": false,
          "internalType": "uint256",
          "name": "totalAmount",
          "type": "uint256"
        }
      ],
      "name": "EmiPlanCreated",
      "type": "event"
    },
    {
      "anonymous": false,
      "inputs": [
        {
          "indexed": true,
          "internalType": "uint256",
          "name": "planId",
          "type": "uint256"
        },
        {
          "indexed": true,
          "internalType": "address",
          "name": "sender",
          "type": "address"
        }
      ],
      "name": "PlanActivated",
      "type": "event"
    },
    {
      "anonymous": false,
      "inputs": [
        {
          "indexed": true,
          "internalType": "uint256",
          "name": "planId",
          "type": "uint256"
        },
        {
          "indexed": false,
          "internalType": "address",
          "name": "oldReceiver",
          "type": "address"
        },
        {
          "indexed": false,
          "internalType": "address",
          "name": "newReceiver",
          "type": "address"
        }
      ],
      "name": "ReceiverModified",
      "type": "event"
    },
    {
      "inputs": [
        {
          "internalType": "uint256",
          "name": "planId",
          "type": "uint256"
        }
      ],
      "name": "activatePlan",
      "outputs": [],
      "stateMutability": "nonpayable",
      "type": "function"
    },
    {
      "inputs": [
        {
          "internalType": "bytes",
          "name": "",
          "type": "bytes"
        }
      ],
      "name": "checkUpkeep",
      "outputs": [
        {
          "internalType": "bool",
          "name": "upkeepNeeded",
          "type": "bool"
        },
        {
          "internalType": "bytes",
          "name": "",
          "type": "bytes"
        }
      ],
      "stateMutability": "view",
      "type": "function"
    },
    {
      "inputs": [
        {
          "internalType": "address",
          "name": "receiver",
          "type": "address"
        },
        {
          "internalType": "address",
          "name": "token",
          "type": "address"
        },
        {
          "internalType": "uint256",
          "name": "emiAmount",
          "type": "uint256"
        },
        {
          "internalType": "uint256",
          "name": "interval",
          "type": "uint256"
        },
        {
          "internalType": "uint256",
          "name": "totalAmount",
          "type": "uint256"
        }
      ],
      "name": "createEmiPlan",
      "outputs": [],
      "stateMutability": "nonpayable",
      "type": "function"
    },
    {
      "inputs": [
        {
          "internalType": "uint256",
          "name": "planId",
          "type": "uint256"
        },
        {
          "internalType": "address",
          "name": "newReceiver",
          "type": "address"
        }
      ],
      "name": "modifyReceiver",
      "outputs": [],
      "stateMutability": "nonpayable",
      "type": "function"
    },
    {
      "inputs": [
        {
          "internalType": "bytes",
          "name": "data",
          "type": "bytes"
        }
      ],
      "name": "performUpkeep",
      "outputs": [],
      "stateMutability": "nonpayable",
      "type": "function"
    },
    {
      "inputs": [],
      "name": "planCounter",
      "outputs": [
        {
          "internalType": "uint256",
          "name": "",
          "type": "uint256"
        }
      ],
      "stateMutability": "view",
      "type": "function"
    },
    {
      "inputs": [
        {
          "internalType": "uint256",
          "name": "",
          "type": "uint256"
        }
      ],
      "name": "plans",
      "outputs": [
        {
          "internalType": "address",
          "name": "sender",
          "type": "address"
        },
        {
          "internalType": "address",
          "name": "receiver",
          "type": "address"
        },
        {
          "internalType": "address",
          "name": "token",
          "type": "address"
        },
        {
          "internalType": "uint256",
          "name": "emiAmount",
          "type": "uint256"
        },
        {
          "internalType": "uint256",
          "name": "interval",
          "type": "uint256"
        },
        {
          "internalType": "uint256",
          "name": "totalAmount",
          "type": "uint256"
        },
        {
          "internalType": "uint256",
          "name": "amountPaid",
          "type": "uint256"
        },
        {
          "internalType": "uint256",
          "name": "nextPaymentTime",
          "type": "uint256"
        },
        {
          "internalType": "bool",
          "name": "isActive",
          "type": "bool"
        }
      ],
      "stateMutability": "view",
      "type": "function"
    }
  ],
  "bytecode": "0x608060405234801561001057600080fd5b506001600081905550611dff806100286000396000f3fe608060405234801561001057600080fd5b506004361061007d5760003560e01c8063a36a38ed1161005b578063a36a38ed146100eb578063b162061614610109578063c067921714610141578063d4ea9e621461015d5761007d565b80634585e33b146100825780636e04ff0d1461009e57806387226f3d146100cf575b600080fd5b61009c6004803603810190610097919061117a565b610179565b005b6100b860048036038101906100b3919061117a565b6104e0565b6040516100c6929190611272565b60405180910390f35b6100e960048036038101906100e49190611336565b610678565b005b6100f3610a5e565b60405161010091906113c0565b60405180910390f35b610123600480360381019061011e91906113db565b610a64565b60405161013899989796959493929190611417565b60405180910390f35b61015b600480360381019061015691906114a4565b610b1f565b005b610177600480360381019061017291906113db565b610e10565b005b6101816110b2565b6000828281019061019291906113db565b905060006002600083815260200190815260200160002090508060080160009054906101000a900460ff166101fc576040517f08c379a00000000000000000000000000000000000000000000000000000000081526004016101f390611541565b60405180910390fd5b8060070154421015610243576040517f08c379a000000000000000000000000000000000000000000000000000000000815260040161023a906115ad565b60405180910390fd5b60008160020160009054906101000a900473ffffffffffffffffffffffffffffffffffffffff1690508073ffffffffffffffffffffffffffffffffffffffff166323b872dd8360000160009054906101000a900473ffffffffffffffffffffffffffffffffffffffff168460010160009054906101000a900473ffffffffffffffffffffffffffffffffffffffff1685600301546040518463ffffffff1660e01b81526004016102f5939291906115cd565b6020604051808303816000875af1158015610314573d6000803e3d6000fd5b505050506040513d601f19601f820116820180604052508101906103389190611630565b610377576040517f08c379a000000000000000000000000000000000000000000000000000000000815260040161036e906116a9565b60405180910390fd5b816003015482600601600082825461038f91906116f8565b9250508190555081600501548260060154106104565760008260080160006101000a81548160ff021916908315150217905550827ffcdb70ec34e50c8a6b968805fe08898ed287d82b5e8c24c5a672b0d4bd0bad128360010160009054906101000a900473ffffffffffffffffffffffffffffffffffffffff16846003015460405161041c92919061172c565b60405180910390a2827f5417900f2b30001c152939c30dea707712a1b6254728bc12c5bf0137cb36e9a060405160405180910390a26104d1565b81600401544261046691906116f8565b8260070181905550827ffcdb70ec34e50c8a6b968805fe08898ed287d82b5e8c24c5a672b0d4bd0bad128360010160009054906101000a900473ffffffffffffffffffffffffffffffffffffffff1684600301546040516104c892919061172c565b60405180910390a25b5050506104dc611101565b5050565b600060606000600190505b60015481116106595760006002600083815260200190815260200160002090508060080160009054906101000a900460ff168015610530575080600501548160060154105b8015610540575080600701544210155b8015610613575080600301548160020160009054906101000a900473ffffffffffffffffffffffffffffffffffffffff1673ffffffffffffffffffffffffffffffffffffffff1663dd62ed3e8360000160009054906101000a900473ffffffffffffffffffffffffffffffffffffffff16306040518363ffffffff1660e01b81526004016105cf929190611755565b602060405180830381865afa1580156105ec573d6000803e3d6000fd5b505050506040513d601f19601f820116820180604052508101906106109190611793565b10155b156106455760018260405160200161062b91906113c0565b604051602081830303815290604052935093505050610671565b508080610651906117c0565b9150506104eb565b50600060405180602001604052806000815250915091505b9250929050565b600073ffffffffffffffffffffffffffffffffffffffff168573ffffffffffffffffffffffffffffffffffffffff16036106e7576040517f08c379a00000000000000000000000000000000000000000000000000000000081526004016106de90611854565b60405180910390fd5b600073ffffffffffffffffffffffffffffffffffffffff168473ffffffffffffffffffffffffffffffffffffffff1603610756576040517f08c379a000000000000000000000000000000000000000000000000000000000815260040161074d906118c0565b60405180910390fd5b603c82101561079a576040517f08c379a00000000000000000000000000000000000000000000000000000000081526004016107919061192c565b60405180910390fd5b600083116107dd576040517f08c379a00000000000000000000000000000000000000000000000000000000081526004016107d490611998565b60405180910390fd5b82811015610820576040517f08c379a000000000000000000000000000000000000000000000000000000000815260040161081790611a04565b60405180910390fd5b60016000815480929190610833906117c0565b9190505550604051806101200160405280600073ffffffffffffffffffffffffffffffffffffffff1681526020018673ffffffffffffffffffffffffffffffffffffffff1681526020018573ffffffffffffffffffffffffffffffffffffffff16815260200184815260200183815260200182815260200160008152602001600081526020016000151581525060026000600154815260200190815260200160002060008201518160000160006101000a81548173ffffffffffffffffffffffffffffffffffffffff021916908373ffffffffffffffffffffffffffffffffffffffff16021790555060208201518160010160006101000a81548173ffffffffffffffffffffffffffffffffffffffff021916908373ffffffffffffffffffffffffffffffffffffffff16021790555060408201518160020160006101000a81548173ffffffffffffffffffffffffffffffffffffffff021916908373ffffffffffffffffffffffffffffffffffffffff160217905550606082015181600301556080820151816004015560a0820151816005015560c0820151816006015560e082015181600701556101008201518160080160006101000a81548160ff0219169083151502179055509050508473ffffffffffffffffffffffffffffffffffffffff166001547fcdb984ec4074b487d3ab26bf1b6c708d5a85749749c4edbf56da8fdc902fd8a086868686604051610a4f9493929190611a24565b60405180910390a35050505050565b60015481565b60026020528060005260406000206000915090508060000160009054906101000a900473ffffffffffffffffffffffffffffffffffffffff16908060010160009054906101000a900473ffffffffffffffffffffffffffffffffffffffff16908060020160009054906101000a900473ffffffffffffffffffffffffffffffffffffffff16908060030154908060040154908060050154908060060154908060070154908060080160009054906101000a900460ff16905089565b60006002600084815260200190815260200160002090508060080160009054906101000a900460ff16610b87576040517f08c379a0000000000000000000000000000000000000000000000000000000008152600401610b7e90611ab5565b60405180910390fd5b8060050154816006015410610bd1576040517f08c379a0000000000000000000000000000000000000000000000000000000008152600401610bc890611b21565b60405180910390fd5b8060010160009054906101000a900473ffffffffffffffffffffffffffffffffffffffff1673ffffffffffffffffffffffffffffffffffffffff163373ffffffffffffffffffffffffffffffffffffffff1614610c63576040517f08c379a0000000000000000000000000000000000000000000000000000000008152600401610c5a90611b8d565b60405180910390fd5b600073ffffffffffffffffffffffffffffffffffffffff168273ffffffffffffffffffffffffffffffffffffffff1603610cd2576040517f08c379a0000000000000000000000000000000000000000000000000000000008152600401610cc990611854565b60405180910390fd5b8060010160009054906101000a900473ffffffffffffffffffffffffffffffffffffffff1673ffffffffffffffffffffffffffffffffffffffff168273ffffffffffffffffffffffffffffffffffffffff1603610d64576040517f08c379a0000000000000000000000000000000000000000000000000000000008152600401610d5b90611bf9565b60405180910390fd5b60008160010160009054906101000a900473ffffffffffffffffffffffffffffffffffffffff169050828260010160006101000a81548173ffffffffffffffffffffffffffffffffffffffff021916908373ffffffffffffffffffffffffffffffffffffffff160217905550837faadf15e12a2dfa21dc4dff8615b2be4cc4ba80ec8a5338ceba7ef92d606fb75f8285604051610e02929190611755565b60405180910390a250505050565b60006002600083815260200190815260200160002090508060080160009054906101000a900460ff1615610e79576040517f08c379a0000000000000000000000000000000000000000000000000000000008152600401610e7090611c65565b60405180910390fd5b600073ffffffffffffffffffffffffffffffffffffffff168160010160009054906101000a900473ffffffffffffffffffffffffffffffffffffffff1673ffffffffffffffffffffffffffffffffffffffff1603610f0c576040517f08c379a0000000000000000000000000000000000000000000000000000000008152600401610f0390611cd1565b60405180910390fd5b80600301548160020160009054906101000a900473ffffffffffffffffffffffffffffffffffffffff1673ffffffffffffffffffffffffffffffffffffffff1663dd62ed3e33306040518363ffffffff1660e01b8152600401610f70929190611755565b602060405180830381865afa158015610f8d573d6000803e3d6000fd5b505050506040513d601f19601f82011682018060405250810190610fb19190611793565b1015610ff2576040517f08c379a0000000000000000000000000000000000000000000000000000000008152600401610fe990611d3d565b60405180910390fd5b338160000160006101000a81548173ffffffffffffffffffffffffffffffffffffffff021916908373ffffffffffffffffffffffffffffffffffffffff16021790555060018160080160006101000a81548160ff02191690831515021790555080600401544261106291906116f8565b81600701819055503373ffffffffffffffffffffffffffffffffffffffff16827f1f07c729fc76534d72c9e3ad0a792bf34de515a8aabc1a61bd40c2a2bd72ad8860405160405180910390a35050565b6002600054036110f7576040517f08c379a00000000000000000000000000000000000000000000000000000000081526004016110ee90611da9565b60405180910390fd5b6002600081905550565b6001600081905550565b600080fd5b600080fd5b600080fd5b600080fd5b600080fd5b60008083601f84011261113a57611139611115565b5b8235905067ffffffffffffffff8111156111575761115661111a565b5b6020830191508360018202830111156111735761117261111f565b5b9250929050565b600080602083850312156111915761119061110b565b5b600083013567ffffffffffffffff8111156111af576111ae611110565b5b6111bb85828601611124565b92509250509250929050565b60008115159050919050565b6111dc816111c7565b82525050565b600081519050919050565b600082825260208201905092915050565b60005b8381101561121c578082015181840152602081019050611201565b60008484015250505050565b6000601f19601f8301169050919050565b6000611244826111e2565b61124e81856111ed565b935061125e8185602086016111fe565b61126781611228565b840191505092915050565b600060408201905061128760008301856111d3565b81810360208301526112998184611239565b90509392505050565b600073ffffffffffffffffffffffffffffffffffffffff82169050919050565b60006112cd826112a2565b9050919050565b6112dd816112c2565b81146112e857600080fd5b50565b6000813590506112fa816112d4565b92915050565b6000819050919050565b61131381611300565b811461131e57600080fd5b50565b6000813590506113308161130a565b92915050565b600080600080600060a086880312156113525761135161110b565b5b6000611360888289016112eb565b9550506020611371888289016112eb565b945050604061138288828901611321565b935050606061139388828901611321565b92505060806113a488828901611321565b9150509295509295909350565b6113ba81611300565b82525050565b60006020820190506113d560008301846113b1565b92915050565b6000602082840312156113f1576113f061110b565b5b60006113ff84828501611321565b91505092915050565b611411816112c2565b82525050565b60006101208201905061142d600083018c611408565b61143a602083018b611408565b611447604083018a611408565b61145460608301896113b1565b61146160808301886113b1565b61146e60a08301876113b1565b61147b60c08301866113b1565b61148860e08301856113b1565b6114966101008301846111d3565b9a9950505050505050505050565b600080604083850312156114bb576114ba61110b565b5b60006114c985828601611321565b92505060206114da858286016112eb565b9150509250929050565b600082825260208201905092915050565b7f496e616374697665000000000000000000000000000000000000000000000000600082015250565b600061152b6008836114e4565b9150611536826114f5565b602082019050919050565b6000602082019050818103600083015261155a8161151e565b9050919050565b7f546f6f206561726c790000000000000000000000000000000000000000000000600082015250565b60006115976009836114e4565b91506115a282611561565b602082019050919050565b600060208201905081810360008301526115c68161158a565b9050919050565b60006060820190506115e26000830186611408565b6115ef6020830185611408565b6115fc60408301846113b1565b949350505050565b61160d816111c7565b811461161857600080fd5b50565b60008151905061162a81611604565b92915050565b6000602082840312156116465761164561110b565b5b60006116548482850161161b565b91505092915050565b7f5472616e73666572206661696c65640000000000000000000000000000000000600082015250565b6000611693600f836114e4565b915061169e8261165d565b602082019050919050565b600060208201905081810360008301526116c281611686565b9050919050565b7f4e487b7100000000000000000000000000000000000000000000000000000000600052601160045260246000fd5b600061170382611300565b915061170e83611300565b9250828201905080821115611726576117256116c9565b5b92915050565b60006040820190506117416000830185611408565b61174e60208301846113b1565b9392505050565b600060408201905061176a6000830185611408565b6117776020830184611408565b9392505050565b60008151905061178d8161130a565b92915050565b6000602082840312156117a9576117a861110b565b5b60006117b78482850161177e565b91505092915050565b60006117cb82611300565b91507fffffffffffffffffffffffffffffffffffffffffffffffffffffffffffffffff82036117fd576117fc6116c9565b5b600182019050919050565b7f496e76616c696420726563656976657200000000000000000000000000000000600082015250565b600061183e6010836114e4565b915061184982611808565b602082019050919050565b6000602082019050818103600083015261186d81611831565b9050919050565b7f496e76616c696420746f6b656e00000000000000000000000000000000000000600082015250565b60006118aa600d836114e4565b91506118b582611874565b602082019050919050565b600060208201905081810360008301526118d98161189d565b9050919050565b7f4d696e2031206d696e0000000000000000000000000000000000000000000000600082015250565b60006119166009836114e4565b9150611921826118e0565b602082019050919050565b6000602082019050818103600083015261194581611909565b9050919050565b7f496e76616c696420454d4920616d6f756e740000000000000000000000000000600082015250565b60006119826012836114e4565b915061198d8261194c565b602082019050919050565b600060208201905081810360008301526119b181611975565b9050919050565b7f546f74616c203c20454d49000000000000000000000000000000000000000000600082015250565b60006119ee600b836114e4565b91506119f9826119b8565b602082019050919050565b60006020820190508181036000830152611a1d816119e1565b9050919050565b6000608082019050611a396000830187611408565b611a4660208301866113b1565b611a5360408301856113b1565b611a6060608301846113b1565b95945050505050565b7f506c616e206e6f74206163746976650000000000000000000000000000000000600082015250565b6000611a9f600f836114e4565b9150611aaa82611a69565b602082019050919050565b60006020820190508181036000830152611ace81611a92565b9050919050565b7f506c616e20636f6d706c65746564000000000000000000000000000000000000600082015250565b6000611b0b600e836114e4565b9150611b1682611ad5565b602082019050919050565b60006020820190508181036000830152611b3a81611afe565b9050919050565b7f4f6e6c792072656365697665722063616e206d6f646966790000000000000000600082015250565b6000611b776018836114e4565b9150611b8282611b41565b602082019050919050565b60006020820190508181036000830152611ba681611b6a565b9050919050565b7f53616d6520726563656976657200000000000000000000000000000000000000600082015250565b6000611be3600d836114e4565b9150611bee82611bad565b602082019050919050565b60006020820190508181036000830152611c1281611bd6565b9050919050565b7f416c726561647920616374697665000000000000000000000000000000000000600082015250565b6000611c4f600e836114e4565b9150611c5a82611c19565b602082019050919050565b60006020820190508181036000830152611c7e81611c42565b9050919050565b7f506c616e206e6f7420666f756e64000000000000000000000000000000000000600082015250565b6000611cbb600e836114e4565b9150611cc682611c85565b602082019050919050565b60006020820190508181036000830152611cea81611cae565b9050919050565b7f496e73756666696369656e7420616c6c6f77616e636500000000000000000000600082015250565b6000611d276016836114e4565b9150611d3282611cf1565b602082019050919050565b60006020820190508181036000830152611d5681611d1a565b9050919050565b7f5265656e7472616e637947756172643a207265656e7472616e742063616c6c00600082015250565b6000611d93601f836114e4565b9150611d9e82611d5d565b602082019050919050565b60006020820190508181036000830152611dc281611d86565b905091905056fea264697066735822122001542b6ccc640e8c57d52622da03e45ccb06f99794dcd4ff321ad76a617c35d364736f6c63430008140033",
  "linkReferences": {},
  "deployedLinkReferences": {}
}